{
  "_format": "hh-sol-artifact-1",
  "contractName": "ERC1155SingleTokenFactory",
  "sourceName": "contracts/ERC1155SingleTokenFactory.sol",
  "abi": [
    {
      "inputs": [],
      "stateMutability": "nonpayable",
      "type": "constructor"
    },
    {
      "inputs": [],
      "name": "AccessControlBadConfirmation",
      "type": "error"
    },
    {
      "inputs": [
        {
          "internalType": "address",
          "name": "account",
          "type": "address"
        },
        {
          "internalType": "bytes32",
          "name": "neededRole",
          "type": "bytes32"
        }
      ],
      "name": "AccessControlUnauthorizedAccount",
      "type": "error"
    },
    {
      "inputs": [],
      "name": "EnforcedPause",
      "type": "error"
    },
    {
      "inputs": [],
      "name": "ExpectedPause",
      "type": "error"
    },
    {
      "anonymous": false,
      "inputs": [
        {
          "indexed": true,
          "internalType": "address",
          "name": "nftAddress",
          "type": "address"
        },
        {
          "indexed": true,
          "internalType": "address",
          "name": "creator",
          "type": "address"
        },
        {
          "indexed": false,
          "internalType": "uint256",
          "name": "editionSize",
          "type": "uint256"
        }
      ],
      "name": "NFTDropped",
      "type": "event"
    },
    {
      "anonymous": false,
      "inputs": [
        {
          "indexed": true,
          "internalType": "address",
          "name": "nftAddress",
          "type": "address"
        },
        {
          "indexed": true,
          "internalType": "address",
          "name": "to",
          "type": "address"
        },
        {
          "indexed": false,
          "internalType": "uint256",
          "name": "tokenId",
          "type": "uint256"
        },
        {
          "indexed": false,
          "internalType": "uint256",
          "name": "amount",
          "type": "uint256"
        }
      ],
      "name": "NFTMinted",
      "type": "event"
    },
    {
      "anonymous": false,
      "inputs": [
        {
          "indexed": false,
          "internalType": "address",
          "name": "account",
          "type": "address"
        }
      ],
      "name": "Paused",
      "type": "event"
    },
    {
      "anonymous": false,
      "inputs": [
        {
          "indexed": false,
          "internalType": "bool",
          "name": "isPaused",
          "type": "bool"
        }
      ],
      "name": "PausedStateChanged",
      "type": "event"
    },
    {
      "anonymous": false,
      "inputs": [
        {
          "indexed": true,
          "internalType": "bytes32",
          "name": "role",
          "type": "bytes32"
        },
        {
          "indexed": true,
          "internalType": "bytes32",
          "name": "previousAdminRole",
          "type": "bytes32"
        },
        {
          "indexed": true,
          "internalType": "bytes32",
          "name": "newAdminRole",
          "type": "bytes32"
        }
      ],
      "name": "RoleAdminChanged",
      "type": "event"
    },
    {
      "anonymous": false,
      "inputs": [
        {
          "indexed": true,
          "internalType": "bytes32",
          "name": "role",
          "type": "bytes32"
        },
        {
          "indexed": true,
          "internalType": "address",
          "name": "account",
          "type": "address"
        },
        {
          "indexed": true,
          "internalType": "address",
          "name": "sender",
          "type": "address"
        }
      ],
      "name": "RoleGranted",
      "type": "event"
    },
    {
      "anonymous": false,
      "inputs": [
        {
          "indexed": true,
          "internalType": "bytes32",
          "name": "role",
          "type": "bytes32"
        },
        {
          "indexed": true,
          "internalType": "address",
          "name": "account",
          "type": "address"
        },
        {
          "indexed": true,
          "internalType": "address",
          "name": "sender",
          "type": "address"
        }
      ],
      "name": "RoleRevoked",
      "type": "event"
    },
    {
      "anonymous": false,
      "inputs": [
        {
          "indexed": false,
          "internalType": "address",
          "name": "account",
          "type": "address"
        }
      ],
      "name": "Unpaused",
      "type": "event"
    },
    {
      "inputs": [],
      "name": "ADMIN_ROLE",
      "outputs": [
        {
          "internalType": "bytes32",
          "name": "",
          "type": "bytes32"
        }
      ],
      "stateMutability": "view",
      "type": "function"
    },
    {
      "inputs": [],
      "name": "DEFAULT_ADMIN_ROLE",
      "outputs": [
        {
          "internalType": "bytes32",
          "name": "",
          "type": "bytes32"
        }
      ],
      "stateMutability": "view",
      "type": "function"
    },
    {
      "inputs": [],
      "name": "PAUSER_ROLE",
      "outputs": [
        {
          "internalType": "bytes32",
          "name": "",
          "type": "bytes32"
        }
      ],
      "stateMutability": "view",
      "type": "function"
    },
    {
      "inputs": [
        {
          "internalType": "string",
          "name": "_name",
          "type": "string"
        },
        {
          "internalType": "string",
          "name": "_symbol",
          "type": "string"
        },
        {
          "internalType": "uint96",
          "name": "_royaltyPercentage",
          "type": "uint96"
        },
        {
          "internalType": "uint256",
          "name": "_editionSize",
          "type": "uint256"
        }
      ],
      "name": "dropNFT",
      "outputs": [],
      "stateMutability": "nonpayable",
      "type": "function"
    },
    {
      "inputs": [
        {
          "internalType": "bytes32",
          "name": "role",
          "type": "bytes32"
        }
      ],
      "name": "getRoleAdmin",
      "outputs": [
        {
          "internalType": "bytes32",
          "name": "",
          "type": "bytes32"
        }
      ],
      "stateMutability": "view",
      "type": "function"
    },
    {
      "inputs": [
        {
          "internalType": "bytes32",
          "name": "role",
          "type": "bytes32"
        },
        {
          "internalType": "address",
          "name": "account",
          "type": "address"
        }
      ],
      "name": "grantRole",
      "outputs": [],
      "stateMutability": "nonpayable",
      "type": "function"
    },
    {
      "inputs": [
        {
          "internalType": "bytes32",
          "name": "role",
          "type": "bytes32"
        },
        {
          "internalType": "address",
          "name": "account",
          "type": "address"
        }
      ],
      "name": "hasRole",
      "outputs": [
        {
          "internalType": "bool",
          "name": "",
          "type": "bool"
        }
      ],
      "stateMutability": "view",
      "type": "function"
    },
    {
      "inputs": [],
      "name": "pause",
      "outputs": [],
      "stateMutability": "nonpayable",
      "type": "function"
    },
    {
      "inputs": [],
      "name": "paused",
      "outputs": [
        {
          "internalType": "bool",
          "name": "",
          "type": "bool"
        }
      ],
      "stateMutability": "view",
      "type": "function"
    },
    {
      "inputs": [
        {
          "internalType": "bytes32",
          "name": "role",
          "type": "bytes32"
        },
        {
          "internalType": "address",
          "name": "callerConfirmation",
          "type": "address"
        }
      ],
      "name": "renounceRole",
      "outputs": [],
      "stateMutability": "nonpayable",
      "type": "function"
    },
    {
      "inputs": [
        {
          "internalType": "bytes32",
          "name": "role",
          "type": "bytes32"
        },
        {
          "internalType": "address",
          "name": "account",
          "type": "address"
        }
      ],
      "name": "revokeRole",
      "outputs": [],
      "stateMutability": "nonpayable",
      "type": "function"
    },
    {
      "inputs": [
        {
          "internalType": "bytes4",
          "name": "interfaceId",
          "type": "bytes4"
        }
      ],
      "name": "supportsInterface",
      "outputs": [
        {
          "internalType": "bool",
          "name": "",
          "type": "bool"
        }
      ],
      "stateMutability": "view",
      "type": "function"
    },
    {
      "inputs": [],
      "name": "unpause",
      "outputs": [],
      "stateMutability": "nonpayable",
      "type": "function"
    }
  ],
  "bytecode": "0x608060405234610037576100123361003b565b5061001c336100aa565b5061002633610149565b506040516134f49081620001e38239f35b5f80fd5b6001600160a01b03165f8181525f80516020620036f7833981519152602052604090205460ff166100a5575f8181525f80516020620036f783398151915260205260408120805460ff191660011790553391905f80516020620036d78339815191528180a4600190565b505f90565b6001600160a01b03165f8181527f7d7ffb7a348e1c6a02869081a26547b49160dd3df72d1d75a570eb9b698292ec60205260409020547fa49807205ce4d355092ef5a8a18f56e8913cf4a201fbe287825b095693c21775919060ff1661014357815f525f60205260405f20815f5260205260405f20600160ff1982541617905533915f80516020620036d78339815191525f80a4600190565b50505f90565b6001600160a01b03165f8181527ff7c9542c591017a21c74b6f3fab6263c7952fc0aaf9db4c22a2a04ddc7f8674f60205260409020547f65d7a28e3265b37a6474929f336521b332c1681b933f6cb9f3376673440d862a919060ff1661014357815f525f60205260405f20815f5260205260405f20600160ff1982541617905533915f80516020620036d78339815191525f80a460019056fe608060408181526004918236101562000016575f80fd5b5f925f3560e01c91826301ffc9a71462000a8f57508163248a9ca31462000a645781632f2ff15d1462000a2d57816336568abe14620009ec5781633d7f368514620003145781633f4ba83a1462000279575080635c975abb146200025457806375b238fc14620002185780638456cb59146200019057806391d148541462000155578063a217fddf1462000139578063d547741f14620000fe5763e63ab1e914620000bf575f80fd5b34620000fa5781600319360112620000fa57602090517f65d7a28e3265b37a6474929f336521b332c1681b933f6cb9f3376673440d862a8152f35b5080fd5b5034620000fa57600162000135916200012f6200011b3662000ae6565b939092838752866020528620015462000c6f565b62000d0e565b5080f35b5034620000fa5781600319360112620000fa5751908152602090f35b5034620000fa57602091816200016b3662000ae6565b92908152808552209060018060a01b03165f52825260ff815f20541690519015158152f35b5034620000fa5781600319360112620000fa5760207f9e3a5e37224532dea67b89face185703738a228a6e8a23dee546960180d3be6491620001d162000bf5565b620001db62000d81565b600160ff19815416176001557f62e78cea01bee320cd4e420270b5ea74000d11b0c9f74754ebdbfc544b05a258828251338152a15160018152a180f35b5034620000fa5781600319360112620000fa57602090517fa49807205ce4d355092ef5a8a18f56e8913cf4a201fbe287825b095693c217758152f35b5034620000fa5781600319360112620000fa5760209060ff6001541690519015158152f35b90503462000310578260031936011262000310576200029762000bf5565b6001549060ff8216156200030257507f9e3a5e37224532dea67b89face185703738a228a6e8a23dee546960180d3be649160209160ff19166001557f5db9ee0a495bf2e6ff9c91a7834c1ba4fdd244a5e8aa4e537bd38aeae4b073aa828251338152a151838152a180f35b8251638dfc202b60e01b8152fd5b8280fd5b8391503462000773576080366003190112620007735767ffffffffffffffff92813584811162000773576200034d903690840162000b5a565b91602435858111620007735762000368903690830162000b5a565b926044356bffffffffffffffffffffffff81168091036200077357606435966200039162000d81565b84519261271e80850192831185841017620009d957849392620003db620003cb8c9460609462000da1893960808452608084019062000bb5565b60209a8382038c85015262000bb5565b9388820152015203905ff08015620009cf5760018060a01b0316908251868152827f8f509d2eb195903fdb2148fdcad2b774b3c81b3b11e22eb2b03711470b0e7439863393a382516344d4480160e11b808252969085818481875afa90811562000992575f916200099c575b50833b15620007735784519063731133e960e01b825233848301526024820152816044820152608060648201525f60848201525f8160a48183885af1801562000992576200097c575b50958596845191825285828481875afa9182156200077f57879262000944575b50845191825285820152827f9e8a709a89b83b7026f9ebab1f1b5b04c5edf5339369ea5ae302868f443aead7853393a3825163a217fddf60e01b808252929085818481855afa9081156200077f5787916200090d575b50813b15620007a1578451632f2ff15d60e01b80825284820192835233602084015291889082908190604001038183875af18015620007a557908891620008f5575b50508451631d6c8e3f60e21b8082529087818681875afa90811562000802578991620008be575b50833b15620008ba57865183815285810191825233602083015290899082908190604001038183885af180156200080257908991620008a2575b5050855163d539139360e01b8082529288828781885afa91821562000898578a9262000860575b50843b156200085c57875190815285810191825233602083015290899082908190604001038183885af18015620008025790899162000844575b5050855194855286858581865afa948515620007a55788956200080c575b50823b15620007af578551631b2b455f60e11b80825285820196875230602088015295899082908190604001038183885af180156200080257908991620007ea575b5050855190815286818581865afa908115620007a5578891620007b3575b50823b15620007af57855185815284810191825230602083015290889082908190604001038183875af18015620007a55790889162000789575b5050845190815285818481855afa9586156200077f57879662000742575b5050803b156200073e57835192835290820193845230602085015290928491849182908490829060400103925af19081156200073557506200071f5750f35b6200072a9062000b0e565b620007325780f35b80fd5b513d84823e3d90fd5b8580fd5b819750809296503d831162000777575b6200075e818362000b37565b810103126200077357859451938780620006e0565b5f80fd5b503d62000752565b85513d89823e3d90fd5b620007949062000b0e565b620007a1578689620006c2565b8680fd5b86513d8a823e3d90fd5b8780fd5b809850878092503d8311620007e2575b620007cf818362000b37565b8101031262000773578796518962000688565b503d620007c3565b620007f59062000b0e565b620007af57878a6200066a565b87513d8b823e3d90fd5b975093508587813d81116200083c575b62000828818362000b37565b810103126200077357879651938962000628565b503d6200081c565b6200084f9062000b0e565b620007af57878a6200060a565b8980fd5b995090508789813d811162000890575b6200087c818362000b37565b810103126200077357899851908b620005d0565b503d62000870565b88513d8c823e3d90fd5b620008ad9062000b0e565b620007af57878a620005a9565b8880fd5b809950888092503d8311620008ed575b620008da818362000b37565b8101031262000773578897518a6200056f565b503d620008ce565b620009009062000b0e565b620007a157868962000548565b809750868092503d83116200093c575b62000929818362000b37565b8101031262000773578695518862000506565b503d6200091d565b965090508486813d811162000974575b62000960818362000b37565b8101031262000773578695519088620004b0565b503d62000954565b6200098991965062000b0e565b5f948762000490565b85513d5f823e3d90fd5b90508581813d8311620009c7575b620009b6818362000b37565b810103126200077357518862000447565b503d620009aa565b82513d5f823e3d90fd5b604186634e487b7160e01b5f525260245ffd5b82346200077357620009fe3662000ae6565b91336001600160a01b0384160362000a1e5762000a1c838362000d0e565b005b5163334bd91960e11b81528390fd5b82346200077357600162000a1c9162000a5e62000a4a3662000ae6565b939092835f525f6020525f20015462000c6f565b62000c91565b8234620007735760203660031901126200077357602091355f525f82526001815f2001549051908152f35b9034620007735760203660031901126200077357359063ffffffff60e01b82168092036200077357602091637965db0b60e01b811490811562000ad4575b5015158152f35b6301ffc9a760e01b1490508362000acd565b60409060031901126200077357600435906024356001600160a01b0381168103620007735790565b67ffffffffffffffff811162000b2357604052565b634e487b7160e01b5f52604160045260245ffd5b90601f8019910116810190811067ffffffffffffffff82111762000b2357604052565b81601f82011215620007735780359067ffffffffffffffff821162000b23576040519262000b93601f8401601f19166020018562000b37565b828452602083830101116200077357815f926020809301838601378301015290565b91908251928382525f5b84811062000be0575050825f602080949584010152601f8019910116010190565b60208183018101518483018201520162000bbf565b335f9081527ff7c9542c591017a21c74b6f3fab6263c7952fc0aaf9db4c22a2a04ddc7f8674f60205260409020547f65d7a28e3265b37a6474929f336521b332c1681b933f6cb9f3376673440d862a9060ff161562000c515750565b6044906040519063e2517d3f60e01b82523360048301526024820152fd5b805f525f60205260405f20335f5260205260ff60405f2054161562000c515750565b90815f525f60205260405f209060018060a01b031690815f5260205260ff60405f205416155f1462000d0857815f525f60205260405f20815f5260205260405f20600160ff1982541617905533917f2f8788117e7eff1d82e926ec794901d17c78024a50270940304540a733656f0d5f80a4600190565b50505f90565b90815f525f60205260405f209060018060a01b031690815f5260205260ff60405f2054165f1462000d0857815f525f60205260405f20815f5260205260405f2060ff19815416905533917ff6391f5c32d9c69d2a47ea670b442974b53935d1edc7fd64eb21e047a839171b5f80a4600190565b60ff6001541662000d8e57565b60405163d93c066560e01b8152600490fdfe604060808152346200049f576200271e803803806200001e81620004a3565b92833981016080828203126200049f5781516001600160401b0391908281116200049f578162000050918501620004c9565b60209182850151908482116200049f576200006d918601620004c9565b848601516001600160601b038116959192918682036200049f5760600151958751858101908082108883111762000236575f918a52526002546001948582811c9216801562000494575b878310146200034657601f9182811162000466575b505f600255620000dc3362000539565b50620000e833620005a9565b50620000f4336200064a565b508215159485806200044e575b62000436578051908982116200023657600754908882811c921680156200042b575b8a83101462000346578185849311620003d7575b50899085831160011462000371575f9262000365575b50505f19600383901b1c191690871b176007555b8051918883116200023657600854918783811c931680156200035a575b8984101462000346578282859411620002f0575b50889183116001146200028a575f926200027e575b50505f19600383901b1c191690851b176008555b600680546001600160a01b0319908116321790915592620001f3575b505050600992505f5252815f205551611ff89081620006e68239f35b61271080821162000261575032156200024a5787519586890190811187821017620002365760099686918a52328152015260a01b1632176003555f8080620001d7565b634e487b7160e01b5f52604160045260245ffd5b8751635b6cc80560e11b81525f6004820152602490fd5b60449250885191636f483d0960e01b835260048301526024820152fd5b015190505f80620001a7565b90879350601f1983169160085f52895f20925f5b8b828210620002d95750508411620002c0575b505050811b01600855620001bb565b01515f1960f88460031b161c191690555f8080620002b1565b8385015186558b979095019493840193016200029e565b9091925060085f52885f208380860160051c8201928b87106200033c575b9186958b929594930160051c01915b8281106200032d57505062000192565b5f81558695508a91016200031d565b925081926200030e565b634e487b7160e01b5f52602260045260245ffd5b92607f16926200017e565b015190505f806200014d565b90899350601f1983169160075f528b5f20925f5b8d828210620003c05750508411620003a7575b505050811b0160075562000161565b01515f1960f88460031b161c191690555f808062000398565b8385015186558d9790950194938401930162000385565b90915060075f52895f208580850160051c8201928c861062000421575b918b91869594930160051c01915b8281106200041257505062000137565b5f81558594508b910162000402565b92508192620003f4565b91607f169162000123565b8a5163c8ba874960e01b815260048101859052602490fd5b506101f4841080620001015750612710841162000101565b60025f528683895f20920160051c8201915b82811062000488575050620000cc565b5f815501879062000478565b91607f1691620000b7565b5f80fd5b6040519190601f01601f191682016001600160401b038111838210176200023657604052565b919080601f840112156200049f5782516001600160401b0381116200023657602090620004ff601f8201601f19168301620004a3565b928184528282870101116200049f575f5b818110620005255750825f9394955001015290565b858101830151848201840152820162000510565b6001600160a01b03165f8181525f80516020620026fe833981519152602052604090205460ff16620005a4575f8181525f80516020620026fe83398151915260205260408120805460ff191660011790553391905f80516020620026de8339815191528180a4600190565b505f90565b6001600160a01b03165f8181527fd8ef4509105c3edb0b04658b4528edc5ddd30ea5a81e623a2623c88db1eb54b660205260409020547fa49807205ce4d355092ef5a8a18f56e8913cf4a201fbe287825b095693c21775919060ff166200064457815f52600560205260405f20815f5260205260405f20600160ff1982541617905533915f80516020620026de8339815191525f80a4600190565b50505f90565b6001600160a01b03165f8181527f15a28d26fa1bf736cf7edc9922607171ccb09c3c73b808e7772a3013e068a52260205260409020547f9f2df0fed2c77648de5860a4cc508cd0818c85b8b8a1ab4ceeef8d981c8956a6919060ff166200064457815f52600560205260405f20815f5260205260405f20600160ff1982541617905533915f80516020620026de8339815191525f80a460019056fe60806040526004361015610011575f80fd5b5f3560e01c8062fdd58e146101ce57806301ffc9a7146101c957806302d05d3f146101c457806306fdde03146101bf5780630e89341c146101ba5780631f7fdffa146101b5578063248a9ca3146101b05780632a55205a146101ab5780632eb2c2d6146101a65780632f2ff15d146101a157806332cb6b0c1461017957806336568abe1461019c5780634e1273f41461019757806350f85214146101925780635bbe07101461018d5780636b20c45414610188578063731133e91461018357806375b238fc1461017e57806389a890021461017957806391d148541461017457806395d89b411461016f578063a217fddf1461016a578063a22cb46514610165578063d539139314610160578063d547741f1461015b578063e985e9c514610156578063f242432a146101515763f5298aca1461014c575f80fd5b611347565b6112aa565b61125a565b61121d565b6111e3565b611117565b6110fd565b61103c565b610fee565b610bdf565b610fb4565b610eb8565b610d94565b610d6a565b610d40565b610c85565b610bfa565b610ba2565b610974565b6108d6565b6108a9565b610765565b61049a565b610395565b610313565b610271565b610217565b600435906001600160a01b03821682036101e957565b5f80fd5b602435906001600160a01b03821682036101e957565b35906001600160a01b03821682036101e957565b346101e95760403660031901126101e95760206102566102356101d3565b6024355f525f835260405f209060018060a01b03165f5260205260405f2090565b54604051908152f35b6001600160e01b03198116036101e957565b346101e95760203660031901126101e95760206004356102908161025f565b63ffffffff60e01b16637965db0b60e01b81149081156102b6575b506040519015158152f35b63152a902d60e11b8114915081156102d0575b505f6102ab565b636cdb3d1360e11b811491508115610302575b81156102f1575b505f6102c9565b6301ffc9a760e01b1490505f6102ea565b6303a24d0760e21b811491506102e3565b346101e9575f3660031901126101e9576006546040516001600160a01b039091168152602090f35b5f5b83811061034c5750505f910152565b818101518382015260200161033d565b906020916103758151809281855285808601910161033b565b601f01601f1916010190565b90602061039292818152019061035c565b90565b346101e9575f3660031901126101e9576040515f60075460018160011c9160018116918215610490575b60209160208510841461047c57848752602087019390811561045d5750600114610404575b610400866103f481880382610669565b60405191829182610381565b0390f35b60075f90815294509192917fa66cc928b5edb82af9bd49922954155ab7b0942694bea4ce44661d9a8736c6885b83861061044c57505050910190506103f4826104005f6103e4565b805485870152948201948101610431565b60ff1916845250505090151560051b0190506103f4826104005f6103e4565b634e487b7160e01b5f52602260045260245ffd5b92607f16926103bf565b346101e95760203660031901126101e9575f600435807a184f03e93ff9f4daa797ed6e38ed64bf6a1f01000000000000000080821015610626575b506d04ee2d6d415b85acef810000000080831015610617575b50662386f26fc1000080831015610608575b506305f5e100808310156105f9575b50612710808310156105ea575b5060648210156105da575b600a809210156105d0575b60019081602161054460018701611515565b95860101905b61059b575b6040517f68747470733a2f2f746573742e78797a2f6170692f6d657461646174612f00006020820152610400906103f48161058d603e82018a6113eb565b03601f198101835282610669565b5f19019083906f181899199a1a9b1b9c1cb0b131b232b360811b8282061a8353049182156105cb5791908261054a565b61054f565b9160010191610532565b9190606460029104910191610527565b6004919392049101915f61051c565b6008919392049101915f61050f565b6010919392049101915f610500565b6020919392049101915f6104ee565b60409350810491505f6104d5565b634e487b7160e01b5f52604160045260245ffd5b6020810190811067ffffffffffffffff82111761066457604052565b610634565b90601f8019910116810190811067ffffffffffffffff82111761066457604052565b67ffffffffffffffff81116106645760051b60200190565b9080601f830112156101e95760209082356106bd8161068b565b936106cb6040519586610669565b81855260208086019260051b8201019283116101e957602001905b8282106106f4575050505090565b813581529083019083016106e6565b67ffffffffffffffff811161066457601f01601f191660200190565b81601f820112156101e95780359061073682610703565b926107446040519485610669565b828452602083830101116101e957815f926020809301838601378301015290565b346101e95760803660031901126101e95761077e6101d3565b6024359067ffffffffffffffff8083116101e9576107a260049336906004016106a3565b926044358281116101e9576107bb9036906004016106a3565b916064359081116101e9576107d490369060040161071f565b6107dc611547565b5f5b855181101561089b576108036107f48288611402565b515f52600a60205260405f2090565b546108206108118389611402565b515f52600960205260405f2090565b541115610855578061083460019286611402565b5161084d6108456107f4848b611402565b91825461143e565b9055016107de565b826108976108726108118461086b8b9687611402565b5195611402565b546040805163063d5bef60e11b81529384019485526020850191909152919283920190565b0390fd5b6108a7828588886115e2565b005b346101e95760203660031901126101e9576004355f5260056020526020600160405f200154604051908152f35b346101e95760403660031901126101e9576024356004355f52600460205260405f20549060018060a01b038083169260a01c908315610955575b506bffffffffffffffffffffffff169081810291818304149015171561095057604080516001600160a01b03939093168352612710909104602083015290f35b61142a565b600354908116935060a01c90506bffffffffffffffffffffffff610910565b346101e95760a03660031901126101e95761098d6101d3565b6109956101ed565b9060443567ffffffffffffffff8082116101e9576109b8600492369084016106a3565b926064358281116101e9576109d090369085016106a3565b916084359081116101e9576109e8903690850161071f565b936109f382336116b0565b6001600160a01b0386811695908615610b8b578316958615610b755782518551808203610b505750505f5b8351811015610ae6578060051b6020808287010151918801015190610a6387610a4e835f525f60205260405f2090565b9060018060a01b03165f5260205260405f2090565b54828110610aa8576108458c610a4e859460019796610aa09503610a928d610a4e845f525f60205260405f2090565b555f525f60205260405f2090565b905501610a1e565b604080516303dee4c560e01b81526001600160a01b038a16818d01908152602081019390935290820193909352606081019190915281906080010390fd5b506108a792888587938a60018551145f14610b295760208581015187820151604080519283529282015233915f80516020611fa383398151915291a45b33611f4b565b6040515f80516020611f83833981519152339180610b488a8a83611c3c565b0390a4610b23565b60408051635b05999160e01b8152808a01938452602084019290925290918291010390fd5b604051626a0d4560e21b81525f81880152602490fd5b604051632bfa23e760e11b81525f81880152602490fd5b346101e95760403660031901126101e9576108a7600435610bc16101ed565b90805f526005602052610bda600160405f2001546115c2565b611727565b346101e9575f3660031901126101e957602060405160018152f35b346101e95760403660031901126101e957610c136101ed565b336001600160a01b03821603610c2f576108a7906004356117b7565b60405163334bd91960e11b8152600490fd5b9081518082526020808093019301915f5b828110610c60575050505090565b835185529381019392810192600101610c52565b906020610392928181520190610c41565b346101e95760403660031901126101e95760043567ffffffffffffffff8082116101e957366023830112156101e9578160040135610cc28161068b565b92610cd06040519485610669565b8184526020916024602086019160051b830101913683116101e957602401905b828210610d2957856024358681116101e95761040091610d17610d1d9236906004016106a3565b9061144b565b60405191829182610c74565b838091610d3584610203565b815201910190610cf0565b346101e95760203660031901126101e9576004355f526009602052602060405f2054604051908152f35b346101e95760203660031901126101e9576004355f52600a602052602060405f2054604051908152f35b346101e95760603660031901126101e957610dad6101d3565b67ffffffffffffffff6024358181116101e957610dce9036906004016106a3565b906044359081116101e957610de79036906004016106a3565b916001600160a01b0381163381141580610e95575b610e6e5715610e57578282610e1e925f604051610e1881610648565b5261183f565b5f5b81518110156108a75780610e3660019285611402565b51610e4f610e476107f48487611402565b918254611508565b905501610e20565b604051626a0d4560e21b81525f6004820152602490fd5b60405163711bec9160e11b81523360048201526001600160a01b0383166024820152604490fd5b505f81815260016020908152604080832033845290915290205460ff1615610dfc565b346101e95760803660031901126101e957610ed16101d3565b6044359060243560643567ffffffffffffffff81116101e957610ef890369060040161071f565b90610f01611547565b805f52600a60205260405f2054600960205260405f205480911015610f9557506001600160a01b03831615610f7d57610f6b61084592610f7994610f6587859160405192600184526020840152604083019160018352606084015260808301604052565b91611978565b5f52600a60205260405f2090565b9055005b604051632bfa23e760e11b81525f6004820152602490fd5b60405163063d5bef60e11b815260048101929092526024820152604490fd5b346101e9575f3660031901126101e95760206040517fa49807205ce4d355092ef5a8a18f56e8913cf4a201fbe287825b095693c217758152f35b346101e95760403660031901126101e957602060ff61103061100e6101ed565b6004355f526005845260405f209060018060a01b03165f5260205260405f2090565b54166040519015158152f35b346101e9575f3660031901126101e9576040515f60085460018160011c91600181169182156110f3575b60209160208510841461047c57848752602087019390811561045d575060011461109a57610400866103f481880382610669565b60085f90815294509192917ff3f7a9fe364faab93b216da50a3214154f22a0a2b415b23a84c8169e8b636ee35b8386106110e257505050910190506103f4826104005f6103e4565b8054858701529482019481016110c7565b92607f1692611066565b346101e9575f3660031901126101e95760206040515f8152f35b346101e95760403660031901126101e9576111306101d3565b60243580151581036101e95733156111cb576001600160a01b0382169182156111b457335f9081526001602052604090206111829183916111719190610a4e565b9060ff801983541691151516179055565b604051901515815233907f17307eab39ab6107e8899845ad3d59bd9653f200f220920489ca2b5937696c3190602090a3005b60405162ced3e160e81b81525f6004820152602490fd5b604051631f18c42760e11b81525f6004820152602490fd5b346101e9575f3660031901126101e95760206040517f9f2df0fed2c77648de5860a4cc508cd0818c85b8b8a1ab4ceeef8d981c8956a68152f35b346101e95760403660031901126101e9576108a760043561123c6101ed565b90805f526005602052611255600160405f2001546115c2565b6117b7565b346101e95760403660031901126101e957602060ff61103061127a6101d3565b6112826101ed565b6001600160a01b039182165f9081526001865260408082209290931681526020919091522090565b346101e95760a03660031901126101e9576112c36101d3565b6112cb6101ed565b60843567ffffffffffffffff81116101e9576112eb90369060040161071f565b906112f683336116b0565b6001600160a01b0381811615610f7d57831615610e57576108a79261133f6064356044359160405192600184526020840152604083019160018352606084015260808301604052565b929091611a8e565b346101e95760603660031901126101e9576113606101d3565b60443590602435906001600160a01b03811633811415806113c8575b610e6e5715610e575781610f6b610e47926113ba86610f79969160405192600184526020840152604083019160018352606084015260808301604052565b915f604051610e1881610648565b505f81815260016020908152604080832033845290915290205460ff161561137c565b906113fe6020928281519485920161033b565b0190565b80518210156114165760209160051b010190565b634e487b7160e01b5f52603260045260245ffd5b634e487b7160e01b5f52601160045260245ffd5b9190820180921161095057565b919091805183518082036114e657505080519061148061146a8361068b565b926114786040519485610669565b80845261068b565b60209190601f190136848401375f5b81518110156114de57600581901b8281018401519087018401515f908152602081815260408083206001600160a01b0390941683529290522054600191906114d78287611402565b520161148f565b509193505050565b604051635b05999160e01b815260048101919091526024810191909152604490fd5b9190820391821161095057565b9061151f82610703565b61152c6040519182610669565b828152809261153d601f1991610703565b0190602036910137565b335f9081527f15a28d26fa1bf736cf7edc9922607171ccb09c3c73b808e7772a3013e068a522602052604090207f9f2df0fed2c77648de5860a4cc508cd0818c85b8b8a1ab4ceeef8d981c8956a69060ff905b5416156115a45750565b6044906040519063e2517d3f60e01b82523360048301526024820152fd5b5f818152600560209081526040808320338452909152902060ff9061159a565b6001600160a01b038116939091908415610f7d5781518451908181036114e65750505f5b8251811015611643578060019160051b61163b61084587610a4e602080868b010151958c010151945f525f60205260405f2090565b905501611606565b5092916116869460018351145f14611688576020838101518582015160408051928352928201525f9133915f80516020611fa38339815191529190a45b33611f16565b565b5f6040515f80516020611f838339815191523391806116a8898983611c3c565b0390a4611680565b6001600160a01b0382811690821681141590816116fa575b506116d1575050565b60405163711bec9160e11b81526001600160a01b03918216600482015291166024820152604490fd5b5f9081526001602090815260408083206001600160a01b038616845290915281205460ff161591506116c8565b5f8181526005602090815260408083206001600160a01b038616845290915290205460ff166117b1575f8181526005602090815260408083206001600160a01b03861684529091529020805460ff1916600117905533916001600160a01b0316907f2f8788117e7eff1d82e926ec794901d17c78024a50270940304540a733656f0d5f80a4600190565b50505f90565b5f8181526005602090815260408083206001600160a01b038616845290915290205460ff16156117b1575f8181526005602090815260408083206001600160a01b03861684529091529020805460ff1916905533916001600160a01b0316907ff6391f5c32d9c69d2a47ea670b442974b53935d1edc7fd64eb21e047a839171b5f80a4600190565b92919080518251908181036114e65750505f5b81518110156118ff57600581901b82810160209081015191850101516001600160a01b038716611887575b5050600101611852565b61189c87610a4e845f525f60205260405f2090565b548181106118c85787610a4e60019594936118c09303935f525f60205260405f2090565b55905f61187d565b6040516303dee4c560e01b81526001600160a01b038916600482015260248101919091526044810182905260648101839052608490fd5b50905f9293916001815114841461194c576020908101519181015160408051938452918301526001600160a01b039092169133915f80516020611fa383398151915291819081015b0390a4565b6040516001600160a01b039093169233925f80516020611f838339815191529282916119479183611c3c565b9080518351908181036114e65750505f5b81518110156119e557600581901b82810160209081015191860101516001929185906001600160a01b0382166119c3575b50505001611989565b6119db91610a4e610845925f525f60205260405f2090565b90555f84816119ba565b50929160018451145f14611a59576020848101518282015160408051928352928201526001600160a01b038416915f9133915f80516020611fa383398151915291a45b6001600160a01b038216611a3d575b50505050565b602080611a509501519101519133611d08565b5f808080611a37565b6040516001600160a01b038316905f9033905f80516020611f838339815191529080611a86878b83611c3c565b0390a4611a28565b9491909181518451908181036114e65750505f5b8251811015611b8757600581901b83810160209081015191870101516001600160a01b03929186908a8516611b07575b6001948216611ae5575b50505001611aa2565b611afd91610a4e610845925f525f60205260405f2090565b90555f8581611adc565b9192939050611b218a610a4e845f525f60205260405f2090565b54838110611b505791879184600196959403611b488d610a4e855f525f60205260405f2090565b559450611ad2565b6040516303dee4c560e01b81526001600160a01b038c16600482015260248101919091526044810184905260648101839052608490fd5b5094919392909360018551145f14611c04576020858101518382015160408051928352928201526001600160a01b03838116929086169133915f80516020611fa383398151915291a45b6001600160a01b038116611be7575b5050505050565b602080611bfa9601519201519233611e01565b5f80808080611be0565b6040516001600160a01b03828116919085169033905f80516020611f838339815191529080611c34888c83611c3c565b0390a4611bd1565b9091611c5361039293604084526040840190610c41565b916020818403910152610c41565b908160209103126101e957516103928161025f565b909260a0926103929594600180861b031683525f602084015260408301526060820152816080820152019061035c565b919261039295949160a094600180871b03809216855216602084015260408301526060820152816080820152019061035c565b3d15611d03573d90611cea82610703565b91611cf86040519384610669565b82523d5f602084013e565b606090565b9293919093843b611d1a575050505050565b602091611d3d604051948593849363f23a6e6160e01b9889865260048601611c76565b03815f6001600160a01b0388165af15f9181611dd0575b50611d935782611d62611cd9565b8051919082611d8c57604051632bfa23e760e11b81526001600160a01b0383166004820152602490fd5b6020915001fd5b6001600160e01b03191603611dad57505f80808080611be0565b604051632bfa23e760e11b81526001600160a01b03919091166004820152602490fd5b611df391925060203d602011611dfa575b611deb8183610669565b810190611c61565b905f611d54565b503d611de1565b939290949194853b611e16575b505050505050565b611e39602093604051958694859463f23a6e6160e01b998a875260048701611ca6565b03815f6001600160a01b0388165af15f9181611e79575b50611e5e5782611d62611cd9565b6001600160e01b03191603611dad57505f8080808080611e0e565b611e9391925060203d602011611dfa57611deb8183610669565b905f611e50565b92611ec86103929593611ed69360018060a01b031686525f602087015260a0604087015260a0860190610c41565b908482036060860152610c41565b91608081840391015261035c565b93906103929593611ec891611ed69460018060a01b03809216885216602087015260a0604087015260a0860190610c41565b9293919093843b611f28575050505050565b602091611d3d604051948593849363bc197c8160e01b9889865260048601611e9a565b939290949194853b611f5f57505050505050565b611e39602093604051958694859463bc197c8160e01b998a875260048701611ee456fe4a39dc06d4c0dbc64b70af90fd698a233a518aa5d07e595d983b8c0526c8f7fbc3d58168c5ae7397731d063d5bbf3d657854427343f4c083240f7aacaa2d0f62a2646970667358221220de87acacaa61a9d77c032ae2a55520c6fdd40c81616a06820bb21d2d74ff66a864736f6c634300081800332f8788117e7eff1d82e926ec794901d17c78024a50270940304540a733656f0d05b8ccbb9d4d8fb16ea74ce3c29a41f1b461fbdaff4714a0d9a8eb05499746bca2646970667358221220262088c36141184536e636cdb78e3281bc7a9f776eb6f0b7c946ea3e1fe1f80864736f6c634300081800332f8788117e7eff1d82e926ec794901d17c78024a50270940304540a733656f0dad3228b676f7d3cd4284a5443f17f1962b36e491b30a40b2405849e597ba5fb5",
  "linkReferences": {},
  "deployedLinkReferences": {}
}