{
  "_format": "hh-sol-artifact-1",
  "contractName": "ERC721SingleTokenFactory",
  "sourceName": "contracts/ERC721SingleTokenFactory.sol",
  "abi": [
    {
      "inputs": [],
      "stateMutability": "nonpayable",
      "type": "constructor"
    },
    {
      "inputs": [],
      "name": "AccessControlBadConfirmation",
      "type": "error"
    },
    {
      "inputs": [
        {
          "internalType": "address",
          "name": "account",
          "type": "address"
        },
        {
          "internalType": "bytes32",
          "name": "neededRole",
          "type": "bytes32"
        }
      ],
      "name": "AccessControlUnauthorizedAccount",
      "type": "error"
    },
    {
      "inputs": [],
      "name": "EnforcedPause",
      "type": "error"
    },
    {
      "inputs": [],
      "name": "ExpectedPause",
      "type": "error"
    },
    {
      "anonymous": false,
      "inputs": [
        {
          "indexed": true,
          "internalType": "address",
          "name": "nftAddress",
          "type": "address"
        },
        {
          "indexed": true,
          "internalType": "address",
          "name": "creator",
          "type": "address"
        }
      ],
      "name": "NFTDropped",
      "type": "event"
    },
    {
      "anonymous": false,
      "inputs": [
        {
          "indexed": true,
          "internalType": "address",
          "name": "nftAddress",
          "type": "address"
        },
        {
          "indexed": true,
          "internalType": "address",
          "name": "to",
          "type": "address"
        },
        {
          "indexed": false,
          "internalType": "uint256",
          "name": "tokenId",
          "type": "uint256"
        }
      ],
      "name": "NFTMinted",
      "type": "event"
    },
    {
      "anonymous": false,
      "inputs": [
        {
          "indexed": false,
          "internalType": "address",
          "name": "account",
          "type": "address"
        }
      ],
      "name": "Paused",
      "type": "event"
    },
    {
      "anonymous": false,
      "inputs": [
        {
          "indexed": false,
          "internalType": "bool",
          "name": "isPaused",
          "type": "bool"
        }
      ],
      "name": "PausedStateChanged",
      "type": "event"
    },
    {
      "anonymous": false,
      "inputs": [
        {
          "indexed": true,
          "internalType": "bytes32",
          "name": "role",
          "type": "bytes32"
        },
        {
          "indexed": true,
          "internalType": "bytes32",
          "name": "previousAdminRole",
          "type": "bytes32"
        },
        {
          "indexed": true,
          "internalType": "bytes32",
          "name": "newAdminRole",
          "type": "bytes32"
        }
      ],
      "name": "RoleAdminChanged",
      "type": "event"
    },
    {
      "anonymous": false,
      "inputs": [
        {
          "indexed": true,
          "internalType": "bytes32",
          "name": "role",
          "type": "bytes32"
        },
        {
          "indexed": true,
          "internalType": "address",
          "name": "account",
          "type": "address"
        },
        {
          "indexed": true,
          "internalType": "address",
          "name": "sender",
          "type": "address"
        }
      ],
      "name": "RoleGranted",
      "type": "event"
    },
    {
      "anonymous": false,
      "inputs": [
        {
          "indexed": true,
          "internalType": "bytes32",
          "name": "role",
          "type": "bytes32"
        },
        {
          "indexed": true,
          "internalType": "address",
          "name": "account",
          "type": "address"
        },
        {
          "indexed": true,
          "internalType": "address",
          "name": "sender",
          "type": "address"
        }
      ],
      "name": "RoleRevoked",
      "type": "event"
    },
    {
      "anonymous": false,
      "inputs": [
        {
          "indexed": false,
          "internalType": "address",
          "name": "account",
          "type": "address"
        }
      ],
      "name": "Unpaused",
      "type": "event"
    },
    {
      "inputs": [],
      "name": "ADMIN_ROLE",
      "outputs": [
        {
          "internalType": "bytes32",
          "name": "",
          "type": "bytes32"
        }
      ],
      "stateMutability": "view",
      "type": "function"
    },
    {
      "inputs": [],
      "name": "DEFAULT_ADMIN_ROLE",
      "outputs": [
        {
          "internalType": "bytes32",
          "name": "",
          "type": "bytes32"
        }
      ],
      "stateMutability": "view",
      "type": "function"
    },
    {
      "inputs": [],
      "name": "PAUSER_ROLE",
      "outputs": [
        {
          "internalType": "bytes32",
          "name": "",
          "type": "bytes32"
        }
      ],
      "stateMutability": "view",
      "type": "function"
    },
    {
      "inputs": [
        {
          "internalType": "string",
          "name": "_name",
          "type": "string"
        },
        {
          "internalType": "string",
          "name": "_symbol",
          "type": "string"
        },
        {
          "internalType": "uint96",
          "name": "_royaltyPercentage",
          "type": "uint96"
        }
      ],
      "name": "dropNFT",
      "outputs": [],
      "stateMutability": "nonpayable",
      "type": "function"
    },
    {
      "inputs": [
        {
          "internalType": "bytes32",
          "name": "role",
          "type": "bytes32"
        }
      ],
      "name": "getRoleAdmin",
      "outputs": [
        {
          "internalType": "bytes32",
          "name": "",
          "type": "bytes32"
        }
      ],
      "stateMutability": "view",
      "type": "function"
    },
    {
      "inputs": [
        {
          "internalType": "bytes32",
          "name": "role",
          "type": "bytes32"
        },
        {
          "internalType": "address",
          "name": "account",
          "type": "address"
        }
      ],
      "name": "grantRole",
      "outputs": [],
      "stateMutability": "nonpayable",
      "type": "function"
    },
    {
      "inputs": [
        {
          "internalType": "bytes32",
          "name": "role",
          "type": "bytes32"
        },
        {
          "internalType": "address",
          "name": "account",
          "type": "address"
        }
      ],
      "name": "hasRole",
      "outputs": [
        {
          "internalType": "bool",
          "name": "",
          "type": "bool"
        }
      ],
      "stateMutability": "view",
      "type": "function"
    },
    {
      "inputs": [],
      "name": "pause",
      "outputs": [],
      "stateMutability": "nonpayable",
      "type": "function"
    },
    {
      "inputs": [],
      "name": "paused",
      "outputs": [
        {
          "internalType": "bool",
          "name": "",
          "type": "bool"
        }
      ],
      "stateMutability": "view",
      "type": "function"
    },
    {
      "inputs": [
        {
          "internalType": "bytes32",
          "name": "role",
          "type": "bytes32"
        },
        {
          "internalType": "address",
          "name": "callerConfirmation",
          "type": "address"
        }
      ],
      "name": "renounceRole",
      "outputs": [],
      "stateMutability": "nonpayable",
      "type": "function"
    },
    {
      "inputs": [
        {
          "internalType": "bytes32",
          "name": "role",
          "type": "bytes32"
        },
        {
          "internalType": "address",
          "name": "account",
          "type": "address"
        }
      ],
      "name": "revokeRole",
      "outputs": [],
      "stateMutability": "nonpayable",
      "type": "function"
    },
    {
      "inputs": [
        {
          "internalType": "bytes4",
          "name": "interfaceId",
          "type": "bytes4"
        }
      ],
      "name": "supportsInterface",
      "outputs": [
        {
          "internalType": "bool",
          "name": "",
          "type": "bool"
        }
      ],
      "stateMutability": "view",
      "type": "function"
    },
    {
      "inputs": [],
      "name": "unpause",
      "outputs": [],
      "stateMutability": "nonpayable",
      "type": "function"
    }
  ],
  "bytecode": "0x608060405234610036576100123361003a565b5061001c336100a6565b5061002633610144565b5060405161295790816101dd8239f35b5f80fd5b6001600160a01b03165f8181525f80516020612b54833981519152602052604090205460ff166100a1575f8181525f80516020612b5483398151915260205260408120805460ff191660011790553391905f80516020612b348339815191528180a4600190565b505f90565b6001600160a01b03165f8181527f7d7ffb7a348e1c6a02869081a26547b49160dd3df72d1d75a570eb9b698292ec60205260409020547fa49807205ce4d355092ef5a8a18f56e8913cf4a201fbe287825b095693c21775919060ff1661013e57815f525f60205260405f20815f5260205260405f20600160ff1982541617905533915f80516020612b348339815191525f80a4600190565b50505f90565b6001600160a01b03165f8181527ff7c9542c591017a21c74b6f3fab6263c7952fc0aaf9db4c22a2a04ddc7f8674f60205260409020547f65d7a28e3265b37a6474929f336521b332c1681b933f6cb9f3376673440d862a919060ff1661013e57815f525f60205260405f20815f5260205260405f20600160ff1982541617905533915f80516020612b348339815191525f80a460019056fe608060408181526004918236101562000016575f80fd5b5f925f3560e01c91826301ffc9a714620009b357508163248a9ca314620009885781632f2ff15d146200095157816336568abe14620009105781633f4ba83a146200087c5781635c975abb14620008575781636afb0c0e14620002545750806375b238fc14620002185780638456cb59146200019057806391d148541462000155578063a217fddf1462000139578063d547741f14620000fe5763e63ab1e914620000bf575f80fd5b34620000fa5781600319360112620000fa57602090517f65d7a28e3265b37a6474929f336521b332c1681b933f6cb9f3376673440d862a8152f35b5080fd5b5034620000fa57600162000135916200012f6200011b3662000a0a565b939092838752866020528620015462000b93565b62000c32565b5080f35b5034620000fa5781600319360112620000fa5751908152602090f35b5034620000fa57602091816200016b3662000a0a565b92908152808552209060018060a01b03165f52825260ff815f20541690519015158152f35b5034620000fa5781600319360112620000fa5760207f9e3a5e37224532dea67b89face185703738a228a6e8a23dee546960180d3be6491620001d162000b19565b620001db62000ca5565b600160ff19815416176001557f62e78cea01bee320cd4e420270b5ea74000d11b0c9f74754ebdbfc544b05a258828251338152a15160018152a180f35b5034620000fa5781600319360112620000fa57602090517fa49807205ce4d355092ef5a8a18f56e8913cf4a201fbe287825b095693c217758152f35b83833462000649576060366003190112620006495767ffffffffffffffff90833582811162000649576200028c903690860162000a7e565b6024358381116200064957620002a6903690870162000a7e565b926044356bffffffffffffffffffffffff81168091036200064957620002cb62000ca5565b835192611c5d808501938411858510176200084457620003136200030386959493889362000cc5883960608652606086019062000ad9565b6020988582038a87015262000ad9565b92015203905ff080156200083a5760018060a01b031693815133867f47b52f5d12fdfec4cc5e9f962c989898d8655735e2ed3d979188e7097d8c52915f80a3853b1562000649576340c10f1960e01b81523382820152600160248201525f81604481838a5af1801562000830576200081a575b50938394825160018152827f2f7377f0470ca5f5d5bcb55c33ff5e20e0a2653933e0615e99f01e81640d0a92863393a3825163a217fddf60e01b808252929085818481855afa90811562000655578791620007e3575b50813b1562000677578451632f2ff15d60e01b80825284820192835233602084015291889082908190604001038183875af180156200067b57908891620007cb575b50508451631d6c8e3f60e21b8082529087818681875afa908115620006d857899162000794575b50833b156200079057865183815285810191825233602083015290899082908190604001038183885af18015620006d85790899162000778575b5050855163d539139360e01b8082529288828781885afa9182156200076e578a9262000736575b50843b156200073257875190815285810191825233602083015290899082908190604001038183885af18015620006d8579089916200071a575b5050855194855286858581865afa9485156200067b578895620006e2575b50823b1562000685578551631b2b455f60e11b80825285820196875230602088015295899082908190604001038183885af18015620006d857908991620006c0575b5050855190815286818581865afa9081156200067b57889162000689575b50823b156200068557855185815284810191825230602083015290889082908190604001038183875af180156200067b579088916200065f575b5050845190815285818481855afa9586156200065557879662000618575b5050803b156200061457835192835290820193845230602085015290928491849182908490829060400103925af19081156200060b5750620005f55750f35b620006009062000a32565b620006085780f35b80fd5b513d84823e3d90fd5b8580fd5b819750809296503d83116200064d575b62000634818362000a5b565b810103126200064957859451938780620005b6565b5f80fd5b503d62000628565b85513d89823e3d90fd5b6200066a9062000a32565b6200067757868962000598565b8680fd5b86513d8a823e3d90fd5b8780fd5b809850878092503d8311620006b8575b620006a5818362000a5b565b810103126200064957879651896200055e565b503d62000699565b620006cb9062000a32565b6200068557878a62000540565b87513d8b823e3d90fd5b975093508587813d811162000712575b620006fe818362000a5b565b8101031262000649578796519389620004fe565b503d620006f2565b620007259062000a32565b6200068557878a620004e0565b8980fd5b995090508789813d811162000766575b62000752818362000a5b565b810103126200064957899851908b620004a6565b503d62000746565b88513d8c823e3d90fd5b620007839062000a32565b6200068557878a6200047f565b8880fd5b809950888092503d8311620007c3575b620007b0818362000a5b565b8101031262000649578897518a62000445565b503d620007a4565b620007d69062000a32565b620006775786896200041e565b809750868092503d831162000812575b620007ff818362000a5b565b81010312620006495786955188620003dc565b503d620007f3565b6200082791945062000a32565b5f928562000386565b83513d5f823e3d90fd5b50513d5f823e3d90fd5b604189634e487b7160e01b5f525260245ffd5b823462000649575f366003190112620006495760209060ff6001541690519015158152f35b823462000649575f36600319011262000649576200089962000b19565b6001549160ff83161562000902577f9e3a5e37224532dea67b89face185703738a228a6e8a23dee546960180d3be646020838560ff19166001557f5db9ee0a495bf2e6ff9c91a7834c1ba4fdd244a5e8aa4e537bd38aeae4b073aa828251338152a1515f8152a1005b9051638dfc202b60e01b8152fd5b82346200064957620009223662000a0a565b91336001600160a01b03841603620009425762000940838362000c32565b005b5163334bd91960e11b81528390fd5b8234620006495760016200094091620009826200096e3662000a0a565b939092835f525f6020525f20015462000b93565b62000bb5565b8234620006495760203660031901126200064957602091355f525f82526001815f2001549051908152f35b9034620006495760203660031901126200064957359063ffffffff60e01b82168092036200064957602091637965db0b60e01b8114908115620009f8575b5015158152f35b6301ffc9a760e01b14905083620009f1565b60409060031901126200064957600435906024356001600160a01b0381168103620006495790565b67ffffffffffffffff811162000a4757604052565b634e487b7160e01b5f52604160045260245ffd5b90601f8019910116810190811067ffffffffffffffff82111762000a4757604052565b81601f82011215620006495780359067ffffffffffffffff821162000a47576040519262000ab7601f8401601f19166020018562000a5b565b828452602083830101116200064957815f926020809301838601378301015290565b91908251928382525f5b84811062000b04575050825f602080949584010152601f8019910116010190565b60208183018101518483018201520162000ae3565b335f9081527ff7c9542c591017a21c74b6f3fab6263c7952fc0aaf9db4c22a2a04ddc7f8674f60205260409020547f65d7a28e3265b37a6474929f336521b332c1681b933f6cb9f3376673440d862a9060ff161562000b755750565b6044906040519063e2517d3f60e01b82523360048301526024820152fd5b805f525f60205260405f20335f5260205260ff60405f2054161562000b755750565b90815f525f60205260405f209060018060a01b031690815f5260205260ff60405f205416155f1462000c2c57815f525f60205260405f20815f5260205260405f20600160ff1982541617905533917f2f8788117e7eff1d82e926ec794901d17c78024a50270940304540a733656f0d5f80a4600190565b50505f90565b90815f525f60205260405f209060018060a01b031690815f5260205260ff60405f2054165f1462000c2c57815f525f60205260405f20815f5260205260405f2060ff19815416905533917ff6391f5c32d9c69d2a47ea670b442974b53935d1edc7fd64eb21e047a839171b5f80a4600190565b60ff6001541662000cb257565b60405163d93c066560e01b8152600490fdfe60406080815234620004075762001c5d803803806200001e816200040b565b9283398101606082820312620004075781516001600160401b0392908381116200040757826200005091830162000431565b9160209081830151858111620004075786916200006f91850162000431565b920151926001600160601b038416928385036200040757815190868211620001dd575f54916001938484811c94168015620003fc575b868510146200031a578190601f94858111620003a9575b50869085831160011462000345575f9262000339575b50505f19600383901b1c191690841b175f555b805191878311620001dd578354918483811c931680156200032e575b868410146200031a578282859411620002c5575b508591831160011462000261575f9262000255575b50505f19600383901b1c191690821b1790555b6200014833620004a1565b50620001543362000511565b506200016033620005b2565b508115159384806200023d575b6200022557600a80546001600160a01b03199081163217909155946200019d575b85516115cf90816200064e8239f35b6127108084116200020857503215620001f15785519081870190811182821017620001dd578652328152015260a01b1632176006555f808080806200018e565b634e487b7160e01b5f52604160045260245ffd5b8551635b6cc80560e11b81525f6004820152602490fd5b83604491885191636f483d0960e01b835260048301526024820152fd5b855163c8ba874960e01b815260048101849052602490fd5b506101f48310806200016d575061271083116200016d565b015190505f806200012a565b90849350601f19831691845f52865f20925f5b88828210620002ae575050841162000295575b505050811b0190556200013d565b01515f1960f88460031b161c191690555f808062000287565b838501518655889790950194938401930162000274565b90919250845f52855f208380860160051c82019288871062000310575b91869588929594930160051c01915b8281106200030157505062000115565b5f8155869550879101620002f1565b92508192620002e2565b634e487b7160e01b5f52602260045260245ffd5b92607f169262000101565b015190505f80620000d2565b90869350601f198316915f8052885f20925f5b8a82821062000392575050841162000379575b505050811b015f55620000e5565b01515f1960f88460031b161c191690555f80806200036b565b8385015186558a9790950194938401930162000358565b9091505f8052865f208580850160051c820192898610620003f2575b918891869594930160051c01915b828110620003e3575050620000bc565b5f8155859450889101620003d3565b92508192620003c5565b93607f1693620000a5565b5f80fd5b6040519190601f01601f191682016001600160401b03811183821017620001dd57604052565b919080601f84011215620004075782516001600160401b038111620001dd5760209062000467601f8201601f191683016200040b565b9281845282828701011162000407575f5b8181106200048d5750825f9394955001015290565b858101830151848201840152820162000478565b6001600160a01b03165f8181525f8051602062001c3d833981519152602052604090205460ff166200050c575f8181525f8051602062001c3d83398151915260205260408120805460ff191660011790553391905f8051602062001c1d8339815191528180a4600190565b505f90565b6001600160a01b03165f8181527f17d1276acf776df712513cd7e943076446ad62eef46fc257e0602ed40109c3c660205260409020547fa49807205ce4d355092ef5a8a18f56e8913cf4a201fbe287825b095693c21775919060ff16620005ac57815f52600860205260405f20815f5260205260405f20600160ff1982541617905533915f8051602062001c1d8339815191525f80a4600190565b50505f90565b6001600160a01b03165f8181527f51a495916474fe1a0c0fcfb65a8a97682b84a054118858cdd1f5dfd7fc0919eb60205260409020547f9f2df0fed2c77648de5860a4cc508cd0818c85b8b8a1ab4ceeef8d981c8956a6919060ff16620005ac57815f52600860205260405f20815f5260205260405f20600160ff1982541617905533915f8051602062001c1d8339815191525f80a460019056fe6080604090808252600480361015610015575f80fd5b5f3560e01c91826301ffc9a714610f975750816302d05d3f14610f6f57816306fdde0314610ea9578163081812fc14610e71578163095ea7b314610d9657816318160ddd14610d7857816323b872dd14610d61578163248a9ca314610d375781632a55205a14610caa5781632f2ff15d14610c8257816332cb6b0c14610c6757816336568abe14610c2357816340c10f191461094057816342842e0e1461091257816342966c681461079b5781636352211e1461076c57816370a082311461071857816375b238fc146106de57816391d148541461069a57816395d89b411461059a578163a217fddf14610580578163a22cb465146104c9578163b88d4fde14610439578163c87b56dd14610210578163d5391393146101d6578163d547741f1461019a575063e985e9c514610149575f80fd5b3461019657806003193601126101965760209061016461107b565b61016c611091565b9060018060a01b038091165f5260058452825f2091165f52825260ff815f20541690519015158152f35b5f80fd5b82346101965780600319360112610196576101d491356101cf60016101bd611091565b93835f5260086020525f20015461131d565b6113db565b005b8234610196575f36600319011261019657602090517f9f2df0fed2c77648de5860a4cc508cd0818c85b8b8a1ab4ceeef8d981c8956a68152f35b8234610196576020908160031936011261019657823561022f816112e3565b5081519382850185811067ffffffffffffffff821117610426578352601e85528385017f68747470733a2f2f746573742e78797a2f6170692f6d657461646174612f00008152829183905f947a184f03e93ff9f4daa797ed6e38ed64bf6a1f0100000000000000009081811015610419575b5050866d04ee2d6d415b85acef81000000008084101561040b575b5050662386f26fc10000808310156103fc575b506305f5e100808310156103ed575b50612710808310156103e1575b505060648110156103d3575b600a809110156103c9575b60018085019381602161032c6103178861112e565b976103248b51998a61110c565b80895261112e565b878b019890601f1901368a37870101905b610394575b610366896103908a610381838f8d8d6103758e87519a8b9551809288880190611035565b84019151809386840190611035565b0103808752018561110c565b51928284938452830190611056565b0390f35b5f19019083906f181899199a1a9b1b9c1cb0b131b232b360811b8282061a8353049182156103c45791908261033d565b610342565b9260010192610302565b6064600291049301926102f7565b940193900487806102eb565b600891959204910193886102de565b601091959204910193886102cf565b9501949091049086896102bc565b87965004915088806102a1565b604182634e487b7160e01b5f525260245ffd5b82346101965760803660031901126101965761045361107b565b61045b611091565b604435916064359467ffffffffffffffff861161019657366023870112156101965785013561049561048c8261112e565b9551958661110c565b8085523660248288010111610196576020815f9260246101d4990183890137860101526104c383838361114a565b3361144f565b82346101965780600319360112610196576104e261107b565b906024359182151580930361019657331561056a576001600160a01b03169283156105555750335f526005602052805f20835f52602052805f2060ff1981541660ff8416179055519081527f17307eab39ab6107e8899845ad3d59bd9653f200f220920489ca2b5937696c3160203392a3005b836024925191630b61174360e31b8352820152fd5b815163a9fbf51f60e01b81525f81860152602490fd5b8234610196575f36600319011261019657602090515f8152f35b8234610196575f366003190112610196578051905f90600191600154928360011c9060018516948515610690575b602095868410811461067d5783885287949392918790821561065b575050600114610600575b5050610390929161038191038561110c565b9085925060015f527fb10e2d527612073b26eecdfd717e6a320cf44b4afac2b0732d9fcbe2b7fa0cf6915f925b82841061064357505050820101816103816105ee565b8054848a01860152889550879490930192810161062d565b60ff19168682015292151560051b8501909201925083915061038190506105ee565b602289634e487b7160e01b5f525260245ffd5b91607f16916105c8565b82346101965780600319360112610196576020916106b6611091565b90355f5260088352815f209060018060a01b03165f52825260ff815f20541690519015158152f35b8234610196575f36600319011261019657602090517fa49807205ce4d355092ef5a8a18f56e8913cf4a201fbe287825b095693c217758152f35b8234610196576020366003190112610196576001600160a01b0361073a61107b565b16801561075657602092505f5260038252805f20549051908152f35b81516322718ad960e21b81525f81850152602490fd5b82346101965760203660031901126101965761078a602092356112e3565b90516001600160a01b039091168152f35b90503461019657602091826003193601126101965781355f818152600285528290205490916001600160a01b03918216913315159081610873575b505060025f93949583610842575b85855252822080546001600160a01b03191690557fddf252ad1be2c89b69c2b068fc378daa952ba7f163c4a11628f55a4df523b3ef8280a460095490811561082f57505f1901600955005b601190634e487b7160e01b5f525260245ffd5b5f86815260046020526040902080546001600160a01b031916905583855260038152828520851981540190556107e4565b816108c4575b5015610886575f806107d6565b83916108a157916024925191637e27328960e01b8352820152fd5b5163177e802f60e01b815233918101918252602082019290925281906040010390fd5b338414915081156108f4575b81156108de575b505f610879565b9050835f528486523390825f205416145f6108d7565b9050825f5260058652815f20335f52865260ff825f205416906108d0565b8234610196576101d490610925366110a7565b91925192610932846110dc565b5f84526104c383838361114a565b90503461019657816003193601126101965761095a61107b565b60249283357f9f2df0fed2c77648de5860a4cc508cd0818c85b8b8a1ab4ceeef8d981c8956a690815f5260209160088352835f20335f52835260ff845f20541615610c0657505f81815260028352839020546001600160a01b0394908516610bf15760016009541015610be1578351906109d3826110dc565b5f8252858116958615610bcc57835f5260028552855f20541683878215159283610b9b575b5f82815260038952898120805460010190558381526002895289812080546001600160a01b031916841790557fddf252ad1be2c89b69c2b068fc378daa952ba7f163c4a11628f55a4df523b3ef9080a4610b86573b610a7e575b5050505050600954905f198214610a6c5760018201600955005b60119150634e487b7160e01b5f52525ffd5b82610ab591855180938192630a85bd0160e11b96878452338c8501525f8d8501526044840152608060648401526084830190611056565b03815f895af15f9181610b46575b50610b185750503d15610b10573d90610adb8261112e565b91610ae88451938461110c565b82523d5f8284013e5b81519182610b0d575050505191633250574960e11b8352820152fd5b01fd5b606090610af1565b6001600160e01b031916039050610b355750505f80808080610a52565b51633250574960e11b815291820152fd5b9091508381813d8311610b7f575b610b5e818361110c565b8101031261019657516001600160e01b03198116810361019657905f610ac3565b503d610b54565b84516339e3563760e11b81525f818901528890fd5b5f83815260046020526040812080546001600160a01b03191690558181526003895289902080545f190190556109f8565b8551633250574960e11b81525f818a01528990fd5b835163d05cb60960e01b81528690fd5b5092505051916322d1d39560e21b8352820152fd5b835163e2517d3f60e01b8152338188015280880191909152604490fd5b8234610196578060031936011261019657610c3c611091565b90336001600160a01b03831603610c5857506101d491356113db565b5163334bd91960e11b81529050fd5b8234610196575f366003190112610196576020905160018152f35b82346101965780600319360112610196576101d49135610ca560016101bd611091565b61135d565b82346101965780600319360112610196576024359082355f526007602052805f20549260018060a01b038085169460a01c908515610d1d575b506001600160601b03169283810293818504149015171561082f5750516001600160a01b0392909216825261271090046020820152604090f35b600654908116955060a01c90506001600160601b03610ce3565b823461019657602036600319011261019657602091355f52600882526001815f2001549051908152f35b34610196576101d4610d72366110a7565b9161114a565b8234610196575f366003190112610196576020906009549051908152f35b8234610196578060031936011261019657610daf61107b565b91602435610dbc816112e3565b33151580610e5e575b80610e37575b610e21576001600160a01b039485169482918691167f8c5be1e5ebec7d5bd14f71427d1e84f3dd0314c0f7b2291e5b200ac8c7c3b9255f80a45f526020525f20906001600160601b0360a01b8254161790555f80f35b835163a9fbf51f60e01b81523381850152602490fd5b5060018060a01b0381165f526005602052835f20335f5260205260ff845f20541615610dcb565b506001600160a01b038116331415610dc5565b8234610196576020366003190112610196578160209235610e91816112e3565b505f52825260018060a01b03815f2054169051908152f35b8234610196575f366003190112610196578051905f905f549160018360011c9060018516948515610f65575b602095868410811461067d5783885287949392918790821561065b575050600114610f0c575050610390929161038191038561110c565b5f80805286935091907f290decd9548b62a8d60345a988386fc84ba6bc95484008f6362f93160ef3e5635b828410610f4d57505050820101816103816105ee565b8054848a018601528895508794909301928101610f37565b91607f1691610ed5565b8234610196575f36600319011261019657600a5490516001600160a01b039091168152602090f35b903461019657602036600319011261019657359063ffffffff60e01b821680920361019657602091637965db0b60e01b8114908115610fd8575b5015158152f35b63152a902d60e11b811491508115610ff2575b5083610fd1565b6380ac58cd60e01b811491508115611024575b8115611013575b5083610feb565b6301ffc9a760e01b1490508361100c565b635b5e139f60e01b81149150611005565b5f5b8381106110465750505f910152565b8181015183820152602001611037565b9060209161106f81518092818552858086019101611035565b601f01601f1916010190565b600435906001600160a01b038216820361019657565b602435906001600160a01b038216820361019657565b6060906003190112610196576001600160a01b0390600435828116810361019657916024359081168103610196579060443590565b6020810190811067ffffffffffffffff8211176110f857604052565b634e487b7160e01b5f52604160045260245ffd5b90601f8019910116810190811067ffffffffffffffff8211176110f857604052565b67ffffffffffffffff81116110f857601f01601f191660200190565b6001600160a01b0391821692909183156112cb57815f52602092600284528260409583875f2054169533151580611236575b5060029087611205575b825f5260038152885f2060018154019055835f5252865f20816001600160601b0360a01b825416179055857fddf252ad1be2c89b69c2b068fc378daa952ba7f163c4a11628f55a4df523b3ef5f80a416928383036111e45750505050565b6064945051926364283d7b60e01b8452600484015260248301526044820152fd5b5f84815260046020526040812080546001600160a01b03191690558881526003825289902080545f19019055611186565b919250908061128a575b1561124e579084915f61117c565b86858761126b576024915190637e27328960e01b82526004820152fd5b905163177e802f60e01b81523360048201526024810191909152604490fd5b5033861480156112af575b806112405750845f52600481523384885f20541614611240565b50855f5260058152865f20335f52815260ff875f205416611295565b604051633250574960e11b81525f6004820152602490fd5b5f818152600260205260409020546001600160a01b0316908115611305575090565b60249060405190637e27328960e01b82526004820152fd5b805f52600860205260405f20335f5260205260ff60405f2054161561133f5750565b6044906040519063e2517d3f60e01b82523360048301526024820152fd5b90815f52600860205260405f209060018060a01b031690815f5260205260ff60405f205416155f146113d557815f52600860205260405f20815f5260205260405f20600160ff1982541617905533917f2f8788117e7eff1d82e926ec794901d17c78024a50270940304540a733656f0d5f80a4600190565b50505f90565b90815f52600860205260405f209060018060a01b031690815f5260205260ff60405f2054165f146113d557815f52600860205260405f20815f5260205260405f2060ff19815416905533917ff6391f5c32d9c69d2a47ea670b442974b53935d1edc7fd64eb21e047a839171b5f80a4600190565b9293909193843b611462575b5050505050565b604051630a85bd0160e11b8082526001600160a01b0395861660048301529385166024820152604481019190915260806064820152602095949093169392908590829081906114b5906084830190611056565b03815f885af15f9181611559575b50611522575050503d5f1461151a573d916114dd8361112e565b926114eb604051948561110c565b83523d5f8285013e5b8251928361151557604051633250574960e11b815260048101849052602490fd5b019050fd5b6060916114f4565b9193506001600160e01b03199091160361154157505f8080808061145b565b60249060405190633250574960e11b82526004820152fd5b9091508581813d8311611592575b611571818361110c565b8101031261019657516001600160e01b03198116810361019657905f6114c3565b503d61156756fea2646970667358221220b22d4fddb5e16f2860398c3f4cda601a9f65c4bf08fc0065583a3cc0709e027d64736f6c634300081800332f8788117e7eff1d82e926ec794901d17c78024a50270940304540a733656f0d5eff886ea0ce6ca488a3d6e336d6c0f75f46d19b42c06ce5ee98e42c96d256c7a2646970667358221220140e1a2af1a19303da5b2d64971e41d2c8fc00c5f77e06c20264274854817c6064736f6c634300081800332f8788117e7eff1d82e926ec794901d17c78024a50270940304540a733656f0dad3228b676f7d3cd4284a5443f17f1962b36e491b30a40b2405849e597ba5fb5",
  "linkReferences": {},
  "deployedLinkReferences": {}
}