{
  "_format": "hh-sol-artifact-1",
  "contractName": "ERC721Factory",
  "sourceName": "contracts/ERC721Factory.sol",
  "abi": [
    {
      "inputs": [],
      "stateMutability": "nonpayable",
      "type": "constructor"
    },
    {
      "inputs": [],
      "name": "AccessControlBadConfirmation",
      "type": "error"
    },
    {
      "inputs": [
        {
          "internalType": "address",
          "name": "account",
          "type": "address"
        },
        {
          "internalType": "bytes32",
          "name": "neededRole",
          "type": "bytes32"
        }
      ],
      "name": "AccessControlUnauthorizedAccount",
      "type": "error"
    },
    {
      "inputs": [],
      "name": "EnforcedPause",
      "type": "error"
    },
    {
      "inputs": [],
      "name": "ExpectedPause",
      "type": "error"
    },
    {
      "anonymous": false,
      "inputs": [
        {
          "indexed": true,
          "internalType": "address",
          "name": "nftAddress",
          "type": "address"
        },
        {
          "indexed": true,
          "internalType": "address",
          "name": "creator",
          "type": "address"
        }
      ],
      "name": "NFTDropped",
      "type": "event"
    },
    {
      "anonymous": false,
      "inputs": [
        {
          "indexed": false,
          "internalType": "address",
          "name": "account",
          "type": "address"
        }
      ],
      "name": "Paused",
      "type": "event"
    },
    {
      "anonymous": false,
      "inputs": [
        {
          "indexed": false,
          "internalType": "bool",
          "name": "isPaused",
          "type": "bool"
        }
      ],
      "name": "PausedStateChanged",
      "type": "event"
    },
    {
      "anonymous": false,
      "inputs": [
        {
          "indexed": true,
          "internalType": "bytes32",
          "name": "role",
          "type": "bytes32"
        },
        {
          "indexed": true,
          "internalType": "bytes32",
          "name": "previousAdminRole",
          "type": "bytes32"
        },
        {
          "indexed": true,
          "internalType": "bytes32",
          "name": "newAdminRole",
          "type": "bytes32"
        }
      ],
      "name": "RoleAdminChanged",
      "type": "event"
    },
    {
      "anonymous": false,
      "inputs": [
        {
          "indexed": true,
          "internalType": "bytes32",
          "name": "role",
          "type": "bytes32"
        },
        {
          "indexed": true,
          "internalType": "address",
          "name": "account",
          "type": "address"
        },
        {
          "indexed": true,
          "internalType": "address",
          "name": "sender",
          "type": "address"
        }
      ],
      "name": "RoleGranted",
      "type": "event"
    },
    {
      "anonymous": false,
      "inputs": [
        {
          "indexed": true,
          "internalType": "bytes32",
          "name": "role",
          "type": "bytes32"
        },
        {
          "indexed": true,
          "internalType": "address",
          "name": "account",
          "type": "address"
        },
        {
          "indexed": true,
          "internalType": "address",
          "name": "sender",
          "type": "address"
        }
      ],
      "name": "RoleRevoked",
      "type": "event"
    },
    {
      "anonymous": false,
      "inputs": [
        {
          "indexed": false,
          "internalType": "address",
          "name": "account",
          "type": "address"
        }
      ],
      "name": "Unpaused",
      "type": "event"
    },
    {
      "inputs": [],
      "name": "ADMIN_ROLE",
      "outputs": [
        {
          "internalType": "bytes32",
          "name": "",
          "type": "bytes32"
        }
      ],
      "stateMutability": "view",
      "type": "function"
    },
    {
      "inputs": [],
      "name": "DEFAULT_ADMIN_ROLE",
      "outputs": [
        {
          "internalType": "bytes32",
          "name": "",
          "type": "bytes32"
        }
      ],
      "stateMutability": "view",
      "type": "function"
    },
    {
      "inputs": [],
      "name": "PAUSER_ROLE",
      "outputs": [
        {
          "internalType": "bytes32",
          "name": "",
          "type": "bytes32"
        }
      ],
      "stateMutability": "view",
      "type": "function"
    },
    {
      "inputs": [
        {
          "internalType": "string",
          "name": "_name",
          "type": "string"
        },
        {
          "internalType": "string",
          "name": "_symbol",
          "type": "string"
        },
        {
          "internalType": "uint256",
          "name": "_royaltyPercentage",
          "type": "uint256"
        }
      ],
      "name": "dropNFT",
      "outputs": [],
      "stateMutability": "nonpayable",
      "type": "function"
    },
    {
      "inputs": [
        {
          "internalType": "bytes32",
          "name": "role",
          "type": "bytes32"
        }
      ],
      "name": "getRoleAdmin",
      "outputs": [
        {
          "internalType": "bytes32",
          "name": "",
          "type": "bytes32"
        }
      ],
      "stateMutability": "view",
      "type": "function"
    },
    {
      "inputs": [
        {
          "internalType": "bytes32",
          "name": "role",
          "type": "bytes32"
        },
        {
          "internalType": "address",
          "name": "account",
          "type": "address"
        }
      ],
      "name": "grantRole",
      "outputs": [],
      "stateMutability": "nonpayable",
      "type": "function"
    },
    {
      "inputs": [
        {
          "internalType": "bytes32",
          "name": "role",
          "type": "bytes32"
        },
        {
          "internalType": "address",
          "name": "account",
          "type": "address"
        }
      ],
      "name": "hasRole",
      "outputs": [
        {
          "internalType": "bool",
          "name": "",
          "type": "bool"
        }
      ],
      "stateMutability": "view",
      "type": "function"
    },
    {
      "inputs": [],
      "name": "pause",
      "outputs": [],
      "stateMutability": "nonpayable",
      "type": "function"
    },
    {
      "inputs": [],
      "name": "paused",
      "outputs": [
        {
          "internalType": "bool",
          "name": "",
          "type": "bool"
        }
      ],
      "stateMutability": "view",
      "type": "function"
    },
    {
      "inputs": [
        {
          "internalType": "bytes32",
          "name": "role",
          "type": "bytes32"
        },
        {
          "internalType": "address",
          "name": "callerConfirmation",
          "type": "address"
        }
      ],
      "name": "renounceRole",
      "outputs": [],
      "stateMutability": "nonpayable",
      "type": "function"
    },
    {
      "inputs": [
        {
          "internalType": "bytes32",
          "name": "role",
          "type": "bytes32"
        },
        {
          "internalType": "address",
          "name": "account",
          "type": "address"
        }
      ],
      "name": "revokeRole",
      "outputs": [],
      "stateMutability": "nonpayable",
      "type": "function"
    },
    {
      "inputs": [
        {
          "internalType": "bytes4",
          "name": "interfaceId",
          "type": "bytes4"
        }
      ],
      "name": "supportsInterface",
      "outputs": [
        {
          "internalType": "bool",
          "name": "",
          "type": "bool"
        }
      ],
      "stateMutability": "view",
      "type": "function"
    },
    {
      "inputs": [],
      "name": "unpause",
      "outputs": [],
      "stateMutability": "nonpayable",
      "type": "function"
    }
  ],
  "bytecode": "0x608060405234610036576100123361003a565b5061001c336100a6565b5061002633610144565b50604051611b2990816101dd8239f35b5f80fd5b6001600160a01b03165f8181525f80516020611d26833981519152602052604090205460ff166100a1575f8181525f80516020611d2683398151915260205260408120805460ff191660011790553391905f80516020611d068339815191528180a4600190565b505f90565b6001600160a01b03165f8181527f7d7ffb7a348e1c6a02869081a26547b49160dd3df72d1d75a570eb9b698292ec60205260409020547fa49807205ce4d355092ef5a8a18f56e8913cf4a201fbe287825b095693c21775919060ff1661013e57815f525f60205260405f20815f5260205260405f20600160ff1982541617905533915f80516020611d068339815191525f80a4600190565b50505f90565b6001600160a01b03165f8181527ff7c9542c591017a21c74b6f3fab6263c7952fc0aaf9db4c22a2a04ddc7f8674f60205260409020547f65d7a28e3265b37a6474929f336521b332c1681b933f6cb9f3376673440d862a919060ff1661013e57815f525f60205260405f20815f5260205260405f20600160ff1982541617905533915f80516020611d068339815191525f80a460019056fe608060409080825260048036101562000016575f80fd5b5f3560e01c91826301ffc9a7146200049c57508163248a9ca314620004715781632f2ff15d146200044e57816336568abe146200040f5781633f4ba83a146200037b5781635c975abb146200035657816375b238fc146200031a5781638456cb59146200029357816391d148541462000258578163a217fddf146200023c578163d547741f1462000203578163d6d8c80d14620000fc575063e63ab1e914620000bd575f80fd5b34620000f8575f366003190112620000f857602090517f65d7a28e3265b37a6474929f336521b332c1681b933f6cb9f3376673440d862a8152f35b5f80fd5b905034620000f8576060366003190112620000f85767ffffffffffffffff8135818111620000f8576200013390369084016200051b565b602435828111620000f8576200014d90369085016200051b565b906200015862000761565b845193611373908186019486861090861117620001f057509162000192620001a19286959462000781873960608552606085019062000595565b90838203602085015262000595565b908460443591015203905ff0908115620001e7575033906001600160a01b03167f47b52f5d12fdfec4cc5e9f962c989898d8655735e2ed3d979188e7097d8c52915f80a3005b513d5f823e3d90fd5b604190634e487b7160e01b5f525260245ffd5b8234620000f85760016200023a91620002346200022036620004f3565b939092835f525f6020525f2001546200064f565b620006ee565b005b8234620000f8575f366003190112620000f857602090515f8152f35b8234620000f8576020906200026d36620004f3565b905f525f8352815f209060018060a01b03165f52825260ff815f20541690519015158152f35b8234620000f8575f366003190112620000f85760207f9e3a5e37224532dea67b89face185703738a228a6e8a23dee546960180d3be6491620002d4620005d5565b620002de62000761565b600160ff19815416176001557f62e78cea01bee320cd4e420270b5ea74000d11b0c9f74754ebdbfc544b05a258828251338152a15160018152a1005b8234620000f8575f366003190112620000f857602090517fa49807205ce4d355092ef5a8a18f56e8913cf4a201fbe287825b095693c217758152f35b8234620000f8575f366003190112620000f85760209060ff6001541690519015158152f35b8234620000f8575f366003190112620000f85762000398620005d5565b6001549160ff83161562000401577f9e3a5e37224532dea67b89face185703738a228a6e8a23dee546960180d3be646020838560ff19166001557f5db9ee0a495bf2e6ff9c91a7834c1ba4fdd244a5e8aa4e537bd38aeae4b073aa828251338152a1515f8152a1005b9051638dfc202b60e01b8152fd5b8234620000f8576200042136620004f3565b91336001600160a01b038416036200043f576200023a8383620006ee565b5163334bd91960e11b81528390fd5b8234620000f85760016200023a916200046b6200022036620004f3565b62000671565b8234620000f8576020366003190112620000f857602091355f525f82526001815f2001549051908152f35b9034620000f8576020366003190112620000f857359063ffffffff60e01b8216809203620000f857602091637965db0b60e01b8114908115620004e1575b5015158152f35b6301ffc9a760e01b14905083620004da565b6040906003190112620000f857600435906024356001600160a01b0381168103620000f85790565b81601f82011215620000f85780359067ffffffffffffffff92838311620005815760405193601f8401601f19908116603f0116850190811185821017620005815760405282845260208383010111620000f857815f926020809301838601378301015290565b634e487b7160e01b5f52604160045260245ffd5b91908251928382525f5b848110620005c0575050825f602080949584010152601f8019910116010190565b6020818301810151848301820152016200059f565b335f9081527ff7c9542c591017a21c74b6f3fab6263c7952fc0aaf9db4c22a2a04ddc7f8674f60205260409020547f65d7a28e3265b37a6474929f336521b332c1681b933f6cb9f3376673440d862a9060ff1615620006315750565b6044906040519063e2517d3f60e01b82523360048301526024820152fd5b805f525f60205260405f20335f5260205260ff60405f20541615620006315750565b90815f525f60205260405f209060018060a01b031690815f5260205260ff60405f205416155f14620006e857815f525f60205260405f20815f5260205260405f20600160ff1982541617905533917f2f8788117e7eff1d82e926ec794901d17c78024a50270940304540a733656f0d5f80a4600190565b50505f90565b90815f525f60205260405f209060018060a01b031690815f5260205260ff60405f2054165f14620006e857815f525f60205260405f20815f5260205260405f2060ff19815416905533917ff6391f5c32d9c69d2a47ea670b442974b53935d1edc7fd64eb21e047a839171b5f80a4600190565b60ff600154166200076e57565b60405163d93c066560e01b8152600490fdfe604060808152346200040c5762001373803803806200001e8162000410565b92833981016060828203126200040c5781516001600160401b0392908381116200040c57826200005091830162000436565b92602092838301518281116200040c5786916200006f91850162000436565b9201519184518281116200032a575f54906001968783811c9316801562000401575b878410146200030b578190601f93848111620003ae575b5087908483116001146200034a575f926200033e575b50505f19600383901b1c191690871b175f555b81519283116200032a578554918683811c931680156200031f575b868410146200030b578282859411620002b6575b508591831160011462000252575f9262000246575b50505f19600383901b1c191690841b1783555b6005811080156200023b575b620002245760065560018060a01b0319913283600754161760075532156200020d57805f526002825260018060a01b03845f2054169260028415159384620001e9575b325f5260038152865f20848154019055835f5252845f2090329082541617905583519232907fddf252ad1be2c89b69c2b068fc378daa952ba7f163c4a11628f55a4df523b3ef5f80a4620001d4575051610ecc9081620004a78239f35b6339e3563760e11b81525f6004820152602490fd5b60048152865f20838154169055855f5260038152865f205f19815401905562000177565b8351633250574960e11b81525f6004820152602490fd5b60249084519063c8ba874960e01b82526004820152fd5b506064811162000134565b015190505f8062000115565b90869350601f19831691845f52865f20925f5b888282106200029f575050841162000286575b505050811b01835562000128565b01515f1960f88460031b161c191690555f808062000278565b8385015186558a9790950194938401930162000265565b90919250865f52855f208380860160051c82019288871062000301575b9186958a929594930160051c01915b828110620002f257505062000100565b5f8155869550899101620002e2565b92508192620002d3565b634e487b7160e01b5f52602260045260245ffd5b92607f1692620000ec565b634e487b7160e01b5f52604160045260245ffd5b015190505f80620000be565b90899350601f198316915f8052895f20925f5b8b8282106200039757505084116200037e575b505050811b015f55620000d1565b01515f1960f88460031b161c191690555f808062000370565b8385015186558d979095019493840193016200035d565b9091505f8052875f208480850160051c8201928a8610620003f7575b918b91869594930160051c01915b828110620003e8575050620000a8565b5f81558594508b9101620003d8565b92508192620003ca565b92607f169262000091565b5f80fd5b6040519190601f01601f191682016001600160401b038111838210176200032a57604052565b919080601f840112156200040c5782516001600160401b0381116200032a576020906200046c601f8201601f1916830162000410565b928184528282870101116200040c575f5b818110620004925750825f9394955001015290565b85810183015184820184015282016200047d56fe6080604090808252600480361015610015575f80fd5b5f3560e01c91826301ffc9a714610a105750816306fdde031461094a5781630754617214610922578163081812fc146108ea578163095ea7b31461080a57816323b872dd146107f357816332cb6b0c146107d857816342842e0e1461078c57816342966c68146106405781636352211e1461061157816370a08231146105bd5781638a71bb2d1461059f57816395d89b411461049f578163a22cb465146103e8578163b88d4fde14610362578163c87b56dd1461012c575063e985e9c5146100db575f80fd5b346101285780600319360112610128576020906100f6610ac0565b6100fe610ad6565b9060018060a01b038091165f5260058452825f2091165f52825260ff815f20541690519015158152f35b5f80fd5b8234610128576020908160031936011261012857823561014b81610e5c565b508151936060850185811067ffffffffffffffff82111761034f578352602485528385017f68747470733a2f2f72656672616d656875622e78797a2f6170692f6d657461648152636174612f60e01b84870152829183905f947a184f03e93ff9f4daa797ed6e38ed64bf6a1f0100000000000000009081811015610342575b5050866d04ee2d6d415b85acef810000000080841015610334575b5050662386f26fc1000080831015610325575b506305f5e10080831015610316575b506127108083101561030a575b505060648110156102fc575b600a809110156102f2575b60018085019381602161025561024088610b57565b9761024d8b51998a610b21565b808952610b57565b878b019890601f1901368a37870101905b6102bd575b61028f896102b98a6102aa838f8d8d61029e8e87519a8b9551809288880190610a7a565b84019151809386840190610a7a565b01038087520185610b21565b51928284938452830190610a9b565b0390f35b5f19019083906f181899199a1a9b1b9c1cb0b131b232b360811b8282061a8353049182156102ed57919082610266565b61026b565b926001019261022b565b606460029104930192610220565b94019390048780610214565b60089195920491019388610207565b601091959204910193886101f8565b9501949091049086896101e5565b87965004915088806101ca565b604182634e487b7160e01b5f525260245ffd5b82346101285760803660031901126101285761037c610ac0565b610384610ad6565b6064359367ffffffffffffffff85116101285736602386011215610128578401356103ba6103b182610b57565b94519485610b21565b8084523660248287010111610128576020815f9260246103e69801838801378501015260443591610d0e565b005b8234610128578060031936011261012857610401610ac0565b9060243591821515809303610128573315610489576001600160a01b03169283156104745750335f526005602052805f20835f52602052805f2060ff1981541660ff8416179055519081527f17307eab39ab6107e8899845ad3d59bd9653f200f220920489ca2b5937696c3160203392a3005b836024925191630b61174360e31b8352820152fd5b815163a9fbf51f60e01b81525f81860152602490fd5b8234610128575f366003190112610128578051905f90600191600154928360011c9060018516948515610595575b602095868410811461058257838852879493929187908215610560575050600114610505575b50506102b992916102aa910385610b21565b9085925060015f527fb10e2d527612073b26eecdfd717e6a320cf44b4afac2b0732d9fcbe2b7fa0cf6915f925b82841061054857505050820101816102aa6104f3565b8054848a018601528895508794909301928101610532565b60ff19168682015292151560051b850190920192508391506102aa90506104f3565b602289634e487b7160e01b5f525260245ffd5b91607f16916104cd565b8234610128575f366003190112610128576020906006549051908152f35b8234610128576020366003190112610128576001600160a01b036105df610ac0565b1680156105fb57602092505f5260038252805f20549051908152f35b81516322718ad960e21b81525f81850152602490fd5b82346101285760203660031901126101285761062f60209235610e5c565b90516001600160a01b039091168152f35b905034610128576020908160031936011261012857803591825f526002815260018060a01b039182855f2054169233151590816106f2575b5050509260025f9394836106c1575b85855252822080546001600160a01b03191690557fddf252ad1be2c89b69c2b068fc378daa952ba7f163c4a11628f55a4df523b3ef8280a4005b5f86815260046020526040902080546001600160a01b03191690558385526003815282852085198154019055610687565b8161073e575b5015610705578080610678565b929115159050610723576024925191637e27328960e01b8352820152fd5b604492519163177e802f60e01b835233908301526024820152fd5b3385149150811561076e575b8115610758575b505f6106f8565b9050845f528183523390865f205416145f610751565b9050835f5260058352855f20335f52835260ff865f2054169061074a565b82346101285761079b36610aec565b91835193602085019085821067ffffffffffffffff8311176107c5576103e69650525f8452610d0e565b604187634e487b7160e01b5f525260245ffd5b8234610128575f366003190112610128576020905160018152f35b34610128576103e661080436610aec565b91610b73565b8234610128578060031936011261012857610823610ac0565b9160243561083081610e5c565b331515806108d7575b806108b0575b61089a576001600160a01b039485169482918691167f8c5be1e5ebec7d5bd14f71427d1e84f3dd0314c0f7b2291e5b200ac8c7c3b9255f80a45f526020525f20906bffffffffffffffffffffffff60a01b8254161790555f80f35b835163a9fbf51f60e01b81523381850152602490fd5b5060018060a01b0381165f526005602052835f20335f5260205260ff845f2054161561083f565b506001600160a01b038116331415610839565b823461012857602036600319011261012857816020923561090a81610e5c565b505f52825260018060a01b03815f2054169051908152f35b8234610128575f3660031901126101285760075490516001600160a01b039091168152602090f35b8234610128575f366003190112610128578051905f905f549160018360011c9060018516948515610a06575b6020958684108114610582578388528794939291879082156105605750506001146109ad5750506102b992916102aa910385610b21565b5f80805286935091907f290decd9548b62a8d60345a988386fc84ba6bc95484008f6362f93160ef3e5635b8284106109ee57505050820101816102aa6104f3565b8054848a0186015288955087949093019281016109d8565b91607f1691610976565b903461012857602036600319011261012857359063ffffffff60e01b8216809203610128576020916380ac58cd60e01b8114908115610a69575b8115610a58575b5015158152f35b6301ffc9a760e01b14905083610a51565b635b5e139f60e01b81149150610a4a565b5f5b838110610a8b5750505f910152565b8181015183820152602001610a7c565b90602091610ab481518092818552858086019101610a7a565b601f01601f1916010190565b600435906001600160a01b038216820361012857565b602435906001600160a01b038216820361012857565b6060906003190112610128576001600160a01b0390600435828116810361012857916024359081168103610128579060443590565b90601f8019910116810190811067ffffffffffffffff821117610b4357604052565b634e487b7160e01b5f52604160045260245ffd5b67ffffffffffffffff8111610b4357601f01601f191660200190565b6001600160a01b039182169290918315610cf657815f52602092600284528260409583875f2054169533151580610c64575b5060029087610c33575b825f5260038152885f2060018154019055835f5252865f20816bffffffffffffffffffffffff60a01b825416179055857fddf252ad1be2c89b69c2b068fc378daa952ba7f163c4a11628f55a4df523b3ef5f80a41692838303610c125750505050565b6064945051926364283d7b60e01b8452600484015260248301526044820152fd5b5f84815260046020526040812080546001600160a01b03191690558881526003825289902080545f19019055610baf565b9192509080610cb5575b15610c7c579084915f610ba5565b868587610c99576024915190637e27328960e01b82526004820152fd5b604491519063177e802f60e01b82523360048301526024820152fd5b503386148015610cda575b80610c6e5750845f52600481523384885f20541614610c6e565b50855f5260058152865f20335f52815260ff875f205416610cc0565b604051633250574960e11b81525f6004820152602490fd5b9192610d1b848385610b73565b813b610d28575b50505050565b604051630a85bd0160e11b8082523360048301526001600160a01b03948516602483015260448201959095526080606482015260209593909216939190859082908190610d79906084830190610a9b565b03815f885af15f9181610e1c575b50610de6575050503d5f14610dde573d91610da183610b57565b92610daf6040519485610b21565b83523d5f8285013e5b82519283610dd957604051633250574960e11b815260048101849052602490fd5b019050fd5b606091610db8565b9193506001600160e01b031990911603610e0457505f808080610d22565b60249060405190633250574960e11b82526004820152fd5b9091508581813d8311610e55575b610e348183610b21565b8101031261012857516001600160e01b03198116810361012857905f610d87565b503d610e2a565b5f818152600260205260409020546001600160a01b0316908115610e7e575090565b60249060405190637e27328960e01b82526004820152fdfea2646970667358221220055fd2e92e1319dc805a08c03ba8c52ec7139c8ac0483131d3b4d43921cbd9e164736f6c63430008180033a2646970667358221220702917bdf2728a3575d05aa165a3eaa7fc4f60e08021b227e110bfe95e20b18764736f6c634300081800332f8788117e7eff1d82e926ec794901d17c78024a50270940304540a733656f0dad3228b676f7d3cd4284a5443f17f1962b36e491b30a40b2405849e597ba5fb5",
  "linkReferences": {},
  "deployedLinkReferences": {}
}