{
  "_format": "hh-sol-artifact-1",
  "contractName": "ReframeMarketplace",
  "sourceName": "contracts/ReframeMarketplace.sol",
  "abi": [
    {
      "inputs": [
        {
          "internalType": "address",
          "name": "admin",
          "type": "address"
        },
        {
          "internalType": "address",
          "name": "treasuryAddress",
          "type": "address"
        },
        {
          "internalType": "uint96",
          "name": "feeBps",
          "type": "uint96"
        }
      ],
      "stateMutability": "nonpayable",
      "type": "constructor"
    },
    {
      "inputs": [],
      "name": "AccessControlBadConfirmation",
      "type": "error"
    },
    {
      "inputs": [
        {
          "internalType": "address",
          "name": "account",
          "type": "address"
        },
        {
          "internalType": "bytes32",
          "name": "neededRole",
          "type": "bytes32"
        }
      ],
      "name": "AccessControlUnauthorizedAccount",
      "type": "error"
    },
    {
      "inputs": [],
      "name": "EnforcedPause",
      "type": "error"
    },
    {
      "inputs": [],
      "name": "ExpectedPause",
      "type": "error"
    },
    {
      "inputs": [],
      "name": "InvalidAddress",
      "type": "error"
    },
    {
      "inputs": [],
      "name": "InvalidAmount",
      "type": "error"
    },
    {
      "inputs": [],
      "name": "InvalidMarketplaceFee",
      "type": "error"
    },
    {
      "inputs": [],
      "name": "InvalidPaymentAmount",
      "type": "error"
    },
    {
      "inputs": [],
      "name": "InvalidPrice",
      "type": "error"
    },
    {
      "inputs": [],
      "name": "ListingInactive",
      "type": "error"
    },
    {
      "inputs": [],
      "name": "ListingLockedError",
      "type": "error"
    },
    {
      "inputs": [],
      "name": "ListingNotFound",
      "type": "error"
    },
    {
      "inputs": [],
      "name": "NFTNotOwned",
      "type": "error"
    },
    {
      "inputs": [],
      "name": "ReentrancyGuardReentrantCall",
      "type": "error"
    },
    {
      "inputs": [],
      "name": "TransferFailed",
      "type": "error"
    },
    {
      "inputs": [],
      "name": "Unauthorized",
      "type": "error"
    },
    {
      "inputs": [],
      "name": "UnsupportedTokenStandard",
      "type": "error"
    },
    {
      "anonymous": false,
      "inputs": [
        {
          "indexed": true,
          "internalType": "uint256",
          "name": "listingId",
          "type": "uint256"
        }
      ],
      "name": "Delisted",
      "type": "event"
    },
    {
      "anonymous": false,
      "inputs": [
        {
          "indexed": false,
          "internalType": "address",
          "name": "nft",
          "type": "address"
        },
        {
          "indexed": false,
          "internalType": "uint256",
          "name": "tokenId",
          "type": "uint256"
        },
        {
          "indexed": false,
          "internalType": "uint256",
          "name": "amount",
          "type": "uint256"
        }
      ],
      "name": "EmergencyWithdrawERC1155",
      "type": "event"
    },
    {
      "anonymous": false,
      "inputs": [
        {
          "indexed": false,
          "internalType": "address",
          "name": "token",
          "type": "address"
        },
        {
          "indexed": false,
          "internalType": "uint256",
          "name": "amount",
          "type": "uint256"
        }
      ],
      "name": "EmergencyWithdrawERC20",
      "type": "event"
    },
    {
      "anonymous": false,
      "inputs": [
        {
          "indexed": false,
          "internalType": "address",
          "name": "nft",
          "type": "address"
        },
        {
          "indexed": false,
          "internalType": "uint256",
          "name": "tokenId",
          "type": "uint256"
        }
      ],
      "name": "EmergencyWithdrawERC721",
      "type": "event"
    },
    {
      "anonymous": false,
      "inputs": [
        {
          "indexed": false,
          "internalType": "uint256",
          "name": "amount",
          "type": "uint256"
        }
      ],
      "name": "EmergencyWithdrawNative",
      "type": "event"
    },
    {
      "anonymous": false,
      "inputs": [
        {
          "indexed": true,
          "internalType": "uint256",
          "name": "listingId",
          "type": "uint256"
        },
        {
          "indexed": true,
          "internalType": "address",
          "name": "seller",
          "type": "address"
        },
        {
          "indexed": true,
          "internalType": "address",
          "name": "nft",
          "type": "address"
        },
        {
          "indexed": false,
          "internalType": "uint256",
          "name": "tokenId",
          "type": "uint256"
        },
        {
          "indexed": false,
          "internalType": "uint256",
          "name": "amount",
          "type": "uint256"
        },
        {
          "indexed": false,
          "internalType": "uint256",
          "name": "price",
          "type": "uint256"
        },
        {
          "indexed": false,
          "internalType": "enum IFrameMarketplace.TokenStandard",
          "name": "standard",
          "type": "uint8"
        }
      ],
      "name": "Listed",
      "type": "event"
    },
    {
      "anonymous": false,
      "inputs": [
        {
          "indexed": true,
          "internalType": "uint256",
          "name": "listingId",
          "type": "uint256"
        }
      ],
      "name": "ListingLocked",
      "type": "event"
    },
    {
      "anonymous": false,
      "inputs": [
        {
          "indexed": true,
          "internalType": "uint256",
          "name": "listingId",
          "type": "uint256"
        }
      ],
      "name": "ListingUnlocked",
      "type": "event"
    },
    {
      "anonymous": false,
      "inputs": [
        {
          "indexed": false,
          "internalType": "uint96",
          "name": "oldFee",
          "type": "uint96"
        },
        {
          "indexed": false,
          "internalType": "uint96",
          "name": "newFee",
          "type": "uint96"
        }
      ],
      "name": "MarketplaceFeeUpdated",
      "type": "event"
    },
    {
      "anonymous": false,
      "inputs": [
        {
          "indexed": false,
          "internalType": "address",
          "name": "account",
          "type": "address"
        }
      ],
      "name": "Paused",
      "type": "event"
    },
    {
      "anonymous": false,
      "inputs": [
        {
          "indexed": true,
          "internalType": "uint256",
          "name": "listingId",
          "type": "uint256"
        },
        {
          "indexed": true,
          "internalType": "address",
          "name": "buyer",
          "type": "address"
        },
        {
          "indexed": false,
          "internalType": "uint256",
          "name": "price",
          "type": "uint256"
        }
      ],
      "name": "Purchased",
      "type": "event"
    },
    {
      "anonymous": false,
      "inputs": [
        {
          "indexed": true,
          "internalType": "bytes32",
          "name": "role",
          "type": "bytes32"
        },
        {
          "indexed": true,
          "internalType": "bytes32",
          "name": "previousAdminRole",
          "type": "bytes32"
        },
        {
          "indexed": true,
          "internalType": "bytes32",
          "name": "newAdminRole",
          "type": "bytes32"
        }
      ],
      "name": "RoleAdminChanged",
      "type": "event"
    },
    {
      "anonymous": false,
      "inputs": [
        {
          "indexed": true,
          "internalType": "bytes32",
          "name": "role",
          "type": "bytes32"
        },
        {
          "indexed": true,
          "internalType": "address",
          "name": "account",
          "type": "address"
        },
        {
          "indexed": true,
          "internalType": "address",
          "name": "sender",
          "type": "address"
        }
      ],
      "name": "RoleGranted",
      "type": "event"
    },
    {
      "anonymous": false,
      "inputs": [
        {
          "indexed": true,
          "internalType": "bytes32",
          "name": "role",
          "type": "bytes32"
        },
        {
          "indexed": true,
          "internalType": "address",
          "name": "account",
          "type": "address"
        },
        {
          "indexed": true,
          "internalType": "address",
          "name": "sender",
          "type": "address"
        }
      ],
      "name": "RoleRevoked",
      "type": "event"
    },
    {
      "anonymous": false,
      "inputs": [
        {
          "indexed": false,
          "internalType": "address",
          "name": "oldTreasury",
          "type": "address"
        },
        {
          "indexed": false,
          "internalType": "address",
          "name": "newTreasury",
          "type": "address"
        }
      ],
      "name": "TreasuryUpdated",
      "type": "event"
    },
    {
      "anonymous": false,
      "inputs": [
        {
          "indexed": false,
          "internalType": "address",
          "name": "account",
          "type": "address"
        }
      ],
      "name": "Unpaused",
      "type": "event"
    },
    {
      "inputs": [],
      "name": "ADMIN_ROLE",
      "outputs": [
        {
          "internalType": "bytes32",
          "name": "",
          "type": "bytes32"
        }
      ],
      "stateMutability": "view",
      "type": "function"
    },
    {
      "inputs": [],
      "name": "DEFAULT_ADMIN_ROLE",
      "outputs": [
        {
          "internalType": "bytes32",
          "name": "",
          "type": "bytes32"
        }
      ],
      "stateMutability": "view",
      "type": "function"
    },
    {
      "inputs": [],
      "name": "MAX_MARKETPLACE_FEE_BPS",
      "outputs": [
        {
          "internalType": "uint96",
          "name": "",
          "type": "uint96"
        }
      ],
      "stateMutability": "view",
      "type": "function"
    },
    {
      "inputs": [],
      "name": "OPERATOR_ROLE",
      "outputs": [
        {
          "internalType": "bytes32",
          "name": "",
          "type": "bytes32"
        }
      ],
      "stateMutability": "view",
      "type": "function"
    },
    {
      "inputs": [],
      "name": "PAUSER_ROLE",
      "outputs": [
        {
          "internalType": "bytes32",
          "name": "",
          "type": "bytes32"
        }
      ],
      "stateMutability": "view",
      "type": "function"
    },
    {
      "inputs": [
        {
          "internalType": "uint256",
          "name": "listingId",
          "type": "uint256"
        }
      ],
      "name": "buy",
      "outputs": [],
      "stateMutability": "payable",
      "type": "function"
    },
    {
      "inputs": [
        {
          "internalType": "uint256",
          "name": "listingId",
          "type": "uint256"
        }
      ],
      "name": "delist",
      "outputs": [],
      "stateMutability": "nonpayable",
      "type": "function"
    },
    {
      "inputs": [
        {
          "internalType": "address",
          "name": "nft",
          "type": "address"
        },
        {
          "internalType": "uint256",
          "name": "tokenId",
          "type": "uint256"
        },
        {
          "internalType": "uint256",
          "name": "amount",
          "type": "uint256"
        },
        {
          "internalType": "address",
          "name": "to",
          "type": "address"
        }
      ],
      "name": "emergencyWithdrawERC1155",
      "outputs": [],
      "stateMutability": "nonpayable",
      "type": "function"
    },
    {
      "inputs": [
        {
          "internalType": "address",
          "name": "token",
          "type": "address"
        },
        {
          "internalType": "uint256",
          "name": "amount",
          "type": "uint256"
        }
      ],
      "name": "emergencyWithdrawERC20",
      "outputs": [],
      "stateMutability": "nonpayable",
      "type": "function"
    },
    {
      "inputs": [
        {
          "internalType": "address",
          "name": "nft",
          "type": "address"
        },
        {
          "internalType": "uint256",
          "name": "tokenId",
          "type": "uint256"
        },
        {
          "internalType": "address",
          "name": "to",
          "type": "address"
        }
      ],
      "name": "emergencyWithdrawERC721",
      "outputs": [],
      "stateMutability": "nonpayable",
      "type": "function"
    },
    {
      "inputs": [
        {
          "internalType": "uint256",
          "name": "amount",
          "type": "uint256"
        }
      ],
      "name": "emergencyWithdrawNative",
      "outputs": [],
      "stateMutability": "nonpayable",
      "type": "function"
    },
    {
      "inputs": [
        {
          "internalType": "bytes32",
          "name": "role",
          "type": "bytes32"
        }
      ],
      "name": "getRoleAdmin",
      "outputs": [
        {
          "internalType": "bytes32",
          "name": "",
          "type": "bytes32"
        }
      ],
      "stateMutability": "view",
      "type": "function"
    },
    {
      "inputs": [
        {
          "internalType": "bytes32",
          "name": "role",
          "type": "bytes32"
        },
        {
          "internalType": "address",
          "name": "account",
          "type": "address"
        }
      ],
      "name": "grantRole",
      "outputs": [],
      "stateMutability": "nonpayable",
      "type": "function"
    },
    {
      "inputs": [
        {
          "internalType": "bytes32",
          "name": "role",
          "type": "bytes32"
        },
        {
          "internalType": "address",
          "name": "account",
          "type": "address"
        }
      ],
      "name": "hasRole",
      "outputs": [
        {
          "internalType": "bool",
          "name": "",
          "type": "bool"
        }
      ],
      "stateMutability": "view",
      "type": "function"
    },
    {
      "inputs": [
        {
          "internalType": "address",
          "name": "nft",
          "type": "address"
        },
        {
          "internalType": "uint256",
          "name": "tokenId",
          "type": "uint256"
        },
        {
          "internalType": "uint256",
          "name": "amount",
          "type": "uint256"
        },
        {
          "internalType": "uint256",
          "name": "price",
          "type": "uint256"
        }
      ],
      "name": "listERC1155",
      "outputs": [],
      "stateMutability": "nonpayable",
      "type": "function"
    },
    {
      "inputs": [
        {
          "internalType": "address",
          "name": "nft",
          "type": "address"
        },
        {
          "internalType": "uint256",
          "name": "tokenId",
          "type": "uint256"
        },
        {
          "internalType": "uint256",
          "name": "price",
          "type": "uint256"
        }
      ],
      "name": "listERC721",
      "outputs": [],
      "stateMutability": "nonpayable",
      "type": "function"
    },
    {
      "inputs": [
        {
          "internalType": "uint256",
          "name": "",
          "type": "uint256"
        }
      ],
      "name": "listings",
      "outputs": [
        {
          "internalType": "uint256",
          "name": "listingId",
          "type": "uint256"
        },
        {
          "internalType": "address",
          "name": "nft",
          "type": "address"
        },
        {
          "internalType": "uint256",
          "name": "tokenId",
          "type": "uint256"
        },
        {
          "internalType": "uint256",
          "name": "amount",
          "type": "uint256"
        },
        {
          "internalType": "address",
          "name": "seller",
          "type": "address"
        },
        {
          "internalType": "uint256",
          "name": "price",
          "type": "uint256"
        },
        {
          "internalType": "bool",
          "name": "active",
          "type": "bool"
        },
        {
          "internalType": "bool",
          "name": "locked",
          "type": "bool"
        },
        {
          "internalType": "enum IFrameMarketplace.TokenStandard",
          "name": "standard",
          "type": "uint8"
        }
      ],
      "stateMutability": "view",
      "type": "function"
    },
    {
      "inputs": [
        {
          "internalType": "uint256",
          "name": "listingId",
          "type": "uint256"
        }
      ],
      "name": "lockListing",
      "outputs": [],
      "stateMutability": "nonpayable",
      "type": "function"
    },
    {
      "inputs": [],
      "name": "marketplaceFeeBps",
      "outputs": [
        {
          "internalType": "uint96",
          "name": "",
          "type": "uint96"
        }
      ],
      "stateMutability": "view",
      "type": "function"
    },
    {
      "inputs": [],
      "name": "nextListingId",
      "outputs": [
        {
          "internalType": "uint256",
          "name": "",
          "type": "uint256"
        }
      ],
      "stateMutability": "view",
      "type": "function"
    },
    {
      "inputs": [
        {
          "internalType": "address",
          "name": "",
          "type": "address"
        },
        {
          "internalType": "address",
          "name": "",
          "type": "address"
        },
        {
          "internalType": "uint256[]",
          "name": "",
          "type": "uint256[]"
        },
        {
          "internalType": "uint256[]",
          "name": "",
          "type": "uint256[]"
        },
        {
          "internalType": "bytes",
          "name": "",
          "type": "bytes"
        }
      ],
      "name": "onERC1155BatchReceived",
      "outputs": [
        {
          "internalType": "bytes4",
          "name": "",
          "type": "bytes4"
        }
      ],
      "stateMutability": "nonpayable",
      "type": "function"
    },
    {
      "inputs": [
        {
          "internalType": "address",
          "name": "",
          "type": "address"
        },
        {
          "internalType": "address",
          "name": "",
          "type": "address"
        },
        {
          "internalType": "uint256",
          "name": "",
          "type": "uint256"
        },
        {
          "internalType": "uint256",
          "name": "",
          "type": "uint256"
        },
        {
          "internalType": "bytes",
          "name": "",
          "type": "bytes"
        }
      ],
      "name": "onERC1155Received",
      "outputs": [
        {
          "internalType": "bytes4",
          "name": "",
          "type": "bytes4"
        }
      ],
      "stateMutability": "nonpayable",
      "type": "function"
    },
    {
      "inputs": [
        {
          "internalType": "address",
          "name": "",
          "type": "address"
        },
        {
          "internalType": "address",
          "name": "",
          "type": "address"
        },
        {
          "internalType": "uint256",
          "name": "",
          "type": "uint256"
        },
        {
          "internalType": "bytes",
          "name": "",
          "type": "bytes"
        }
      ],
      "name": "onERC721Received",
      "outputs": [
        {
          "internalType": "bytes4",
          "name": "",
          "type": "bytes4"
        }
      ],
      "stateMutability": "nonpayable",
      "type": "function"
    },
    {
      "inputs": [],
      "name": "pause",
      "outputs": [],
      "stateMutability": "nonpayable",
      "type": "function"
    },
    {
      "inputs": [],
      "name": "paused",
      "outputs": [
        {
          "internalType": "bool",
          "name": "",
          "type": "bool"
        }
      ],
      "stateMutability": "view",
      "type": "function"
    },
    {
      "inputs": [
        {
          "internalType": "bytes32",
          "name": "role",
          "type": "bytes32"
        },
        {
          "internalType": "address",
          "name": "callerConfirmation",
          "type": "address"
        }
      ],
      "name": "renounceRole",
      "outputs": [],
      "stateMutability": "nonpayable",
      "type": "function"
    },
    {
      "inputs": [
        {
          "internalType": "bytes32",
          "name": "role",
          "type": "bytes32"
        },
        {
          "internalType": "address",
          "name": "account",
          "type": "address"
        }
      ],
      "name": "revokeRole",
      "outputs": [],
      "stateMutability": "nonpayable",
      "type": "function"
    },
    {
      "inputs": [
        {
          "internalType": "uint96",
          "name": "newFee",
          "type": "uint96"
        }
      ],
      "name": "setMarketplaceFee",
      "outputs": [],
      "stateMutability": "nonpayable",
      "type": "function"
    },
    {
      "inputs": [
        {
          "internalType": "address",
          "name": "newTreasury",
          "type": "address"
        }
      ],
      "name": "setTreasury",
      "outputs": [],
      "stateMutability": "nonpayable",
      "type": "function"
    },
    {
      "inputs": [
        {
          "internalType": "bytes4",
          "name": "interfaceId",
          "type": "bytes4"
        }
      ],
      "name": "supportsInterface",
      "outputs": [
        {
          "internalType": "bool",
          "name": "",
          "type": "bool"
        }
      ],
      "stateMutability": "view",
      "type": "function"
    },
    {
      "inputs": [],
      "name": "treasury",
      "outputs": [
        {
          "internalType": "address",
          "name": "",
          "type": "address"
        }
      ],
      "stateMutability": "view",
      "type": "function"
    },
    {
      "inputs": [
        {
          "internalType": "uint256",
          "name": "listingId",
          "type": "uint256"
        }
      ],
      "name": "unlockListing",
      "outputs": [],
      "stateMutability": "nonpayable",
      "type": "function"
    },
    {
      "inputs": [],
      "name": "unpause",
      "outputs": [],
      "stateMutability": "nonpayable",
      "type": "function"
    },
    {
      "stateMutability": "payable",
      "type": "receive"
    }
  ],
  "bytecode": "0x6080346200013f57601f6200219e38819003918201601f1916830191906001600160401b03831184841017620001435781606092859260409586528339810103126200013f57620000508262000157565b816200005f6020850162000157565b9301516001600160601b038116908190036200013f5760017f9b779b17422d0df92223018b32b4d1fa46e071723d6817e2486d003becc55f00556001600160a01b03828116156200012e578416156200011d5761271081116200010c57620000fd929360018060601b03199060601b1617600355620000de816200016c565b50620000ea81620001dc565b50620000f6816200027c565b5062000316565b5051611dad9081620003b18239f35b8251634a079fe960e11b8152600490fd5b825163e6c4247b60e01b8152600490fd5b835163e6c4247b60e01b8152600490fd5b5f80fd5b634e487b7160e01b5f52604160045260245ffd5b51906001600160a01b03821682036200013f57565b6001600160a01b03165f8181525f805160206200217e833981519152602052604090205460ff16620001d7575f8181525f805160206200217e83398151915260205260408120805460ff191660011790553391905f805160206200215e8339815191528180a4600190565b505f90565b6001600160a01b03165f8181527f7d7ffb7a348e1c6a02869081a26547b49160dd3df72d1d75a570eb9b698292ec60205260409020547fa49807205ce4d355092ef5a8a18f56e8913cf4a201fbe287825b095693c21775919060ff166200027657815f525f60205260405f20815f5260205260405f20600160ff1982541617905533915f805160206200215e8339815191525f80a4600190565b50505f90565b6001600160a01b03165f8181527ff7c9542c591017a21c74b6f3fab6263c7952fc0aaf9db4c22a2a04ddc7f8674f60205260409020547f65d7a28e3265b37a6474929f336521b332c1681b933f6cb9f3376673440d862a919060ff166200027657815f525f60205260405f20815f5260205260405f20600160ff1982541617905533915f805160206200215e8339815191525f80a4600190565b6001600160a01b03165f8181527fee57cd81e84075558e8fcc182a1f4393f91fc97f963a136e66b7f949a62f319f60205260409020547f97667070c54ef182b0f5858b034beac1b6f3089aa2d3188bb1e8929f4fa9b929919060ff166200027657815f525f60205260405f20815f5260205260405f20600160ff1982541617905533915f805160206200215e8339815191525f80a460019056fe6080604081815260049182361015610021575b505050361561001f575f80fd5b005b5f925f3560e01c91826301ffc9a71461158c575081630f6835b814611539578163150b7a02146114e6578163248a9ca3146114bd5781632f2ff15d14611484578163319e991e146113f857816336568abe146113b45781633f4ba83a1461134d5781634a3f0bf9146112e25781635280af1d14610fd25781635c975abb14610fae57816361d027b314610f8c57816375b238fc14610f515781638456cb5914610ef757816391d1485414610eb4578163964bc33f14610d8f578163a217fddf14610d74578163a52c428d14610cff578163a8f46f5314610c0a578163aaccf1ec14610beb578163b74fb31614610bce578163bc197c8114610b47578163cd10744014610a69578163d3929c8a14610a41578163d547741f14610a02578163d96a094a14610864578163de74e57b146107b3578163df29b982146106b9578163e63ab1e91461067e578163e8d9b52f146102c9578163f0f4426014610231578163f23a6e61146101d8575063f5b541a61461019b5780610012565b346101d457816003193601126101d457602090517f97667070c54ef182b0f5858b034beac1b6f3089aa2d3188bb1e8929f4fa9b9298152f35b5080fd5b82843461022e5760a036600319011261022e576101f3611612565b506101fc611628565b506084359067ffffffffffffffff821161022e5750602092610220913691016116c1565b505163f23a6e6160e01b8152f35b80fd5b8383346101d45760203660031901126101d45761024c611612565b610254611891565b6001600160a01b03811680156102b9577f4ab5be82436d353e61ca18726e984e561f5c1cc7c6d38b29d2553c790434705a939450600354916001600160601b03199060601b166001600160601b0383161760035582519160601c82526020820152a180f35b825163e6c4247b60e01b81528590fd5b839150346101d45760803660031901126101d4576102e5611612565b9260243590606435906044356102f9611b28565b610301611b46565b821561066f57801561065f578151627eeac760e11b8082523382880190815260208181018890526001600160a01b039a8b1698909390929184908290819060400103818c5afa908115610655579085918b91610624575b5010610615578888999a8489898960029d9c9d549c8d9561037887611782565b6002558251946103878661163e565b87865286860192835283860190815260608601908d8252608087019433865260a0880196875260c088019a60018c528d60e08a019a828c526101008b019c60018e5283525220965187558260018801945116936001600160601b0360a01b9485825416179055516002870155516003860155898501925116908254161790555160058201556006019251151561042990849060ff801983541691151516179055565b51825461ff00191690151560081b61ff001617825551600281101561060257815462ff0000191660109190911b62ff000016179055845181815230838201908152602081018a905290919084908390819060400103818d5afa9182156105a7578b926105d3575b50893b156105c5578a6104bf81878d8d838c51809681958294637921219560e11b84528d309033908601611839565b03925af180156105c9576105b1575b5050855190815230838201908152602081018a905284908290819060400103818d5afa9081156105a757908592918c9161056e575b509061050e9161186c565b0361056057508251958652850152830152600160608301527f04339a90322faa2fb5b15a3a9e23156a23c97893e4618a34bc7ed68b582bd4a460803393a460015f80516020611d588339815191525580f35b83516312171d8360e31b8152fd5b80929350858092503d83116105a0575b6105888183611683565b8101031261059c575184919061050e610503565b5f80fd5b503d61057e565b86513d8d823e3d90fd5b6105ba9061166f565b6105c5578a8c6104ce565b8a80fd5b88513d84823e3d90fd5b9091508381813d83116105fb575b6105eb8183611683565b8101031261059c5751908b610490565b503d6105e1565b634e487b7160e01b8c526021845260248cfd5b50835163ca5ae8a360e01b8152fd5b809250858092503d831161064e575b61063d8183611683565b8101031261059c578490518c610358565b503d610633565b86513d8c823e3d90fd5b815163162908e360e11b81528590fd5b815162bfc92160e01b81528590fd5b5050346101d457816003193601126101d457602090517f65d7a28e3265b37a6474929f336521b332c1681b933f6cb9f3376673440d862a8152f35b9050346107af57816003193601126107af576106d3611612565b61070e602060243580946106e5611891565b865163a9059cbb60e01b8152339181019182526020820192909252909283918291604090910190565b0381886001600160a01b0387165af180156107a55793610770917f3d5112fd88bb733a9b31d13ca8b164627be30715dbcd38969b1039a40ebee22f95610776575b50516001600160a01b03909216825260208201929092529081906040820190565b0390a180f35b6107979060203d60201161079e575b61078f8183611683565b810190611879565b505f61074f565b503d610785565b84513d87823e3d90fd5b8280fd5b82843461022e57602036600319011261022e57819083358152836020522060ff81549260018060a01b039283600182015416936002820154906003830154908884015416916006600585015494015494868660101c16978151998a5260208a01528801526060870152608086015260a0850152818116151560c085015260081c16151560e08301526002811015610851576101209250610100820152f35b602183634e487b7160e01b5f525260245ffd5b905060203660031901126107af5780359061087d611b28565b610885611b46565b81845280602052828420600681019182549060ff8216156109f45760ff8260081c166109e65760058301938454928334036109d65760ff19169055600183015460028401546001600160a01b0392916108e19185918516611c6b565b936001600160601b03600354168082029082820414821517156109c357928561094c9693610926610953999794610921612710610947990494859261186c565b61186c565b94801515806109b8575b6109a8575b505080610993575b50840154166119e1565b6117a4565b3330611b75565b5491519182527ffd51b2c9f55c42d2b72ac683526519563be02fc0107f034ff430c05185ff1b6660203393a360015f80516020611d588339815191525580f35b6109a29060035460601c6119e1565b5f61093d565b6109b1916119e1565b5f80610935565b508482161515610930565b634e487b7160e01b8b526011845260248bfd5b8751637e2897ef60e11b81528390fd5b8551633de8edd160e11b8152fd5b8551631a319ff960e31b8152fd5b919050346107af57806003193601126107af57610a3d9135610a386001610a27611628565b9383875286602052862001546119c0565b611ab6565b5080f35b5050346101d457816003193601126101d4576020906001600160601b03600354169051908152f35b9050346107af5760803660031901126107af57610a84611612565b60443590602435906064356001600160a01b03808216820361059c578792610aaa611891565b1694853b156107af5783918391610ad5878a519586948594637921219560e11b865230908601611839565b038183895af18015610b3d57610b1f575b50927f085236991fba27d2a7bc4f19ab7478da4eef13bf07129d2f561942e05383f4e5928560609381519384526020840152820152a180f35b610b2c909493929461166f565b610b39579091845f610ae6565b8480fd5b86513d84823e3d90fd5b82843461022e5760a036600319011261022e57610b62611612565b50610b6b611628565b5067ffffffffffffffff906044358281116101d457610b8d9036908601611707565b506064358281116101d457610ba59036908601611707565b5060843591821161022e5750602092610bc0913691016116c1565b505163bc197c8160e01b8152f35b5050346101d457816003193601126101d457602090516127108152f35b5050346101d457816003193601126101d4576020906002549051908152f35b9050346107af5760603660031901126107af57610c25611612565b602435916001600160a01b0390604435828116810361059c578692610c48611891565b841691823b15610cf1578651632142170760e11b8152309181019182526001600160a01b039092166020820152604081018690529091839183919082908490829060600103925af18015610cf557610cdd575b505091516001600160a01b03909216825260208201527f0c824d299b998c4d0a115139e69b35f5762de26537a4d7cc3577705834a10e14908060408101610770565b610ce69061166f565b610cf157835f610c9b565b8380fd5b85513d84823e3d90fd5b9050346107af5760203660031901126107af57803591610d1d611965565b828452816020526006818520019182549160ff831615610d6757505061ff00191690557f3240783f91ee584ba7ddb79fd08cf5d412e5e67754edfbf0df5448f97807deee8280a280f35b51631a319ff960e31b8152fd5b5050346101d457816003193601126101d45751908152602090f35b919050346107af5760203660031901126107af57813591610dae611b28565b610db6611b46565b8284528060205281842090600682019081549060ff821615610ea65760ff8260081c16610e9857838101546001600160a01b0316943386141580610e5a575b610e4e57505060ff19169055610e169190610e0f906117a4565b9030611b75565b7fc40fdc946efe80191c467f60727c4abc08254a056035d467a4516a86005ab7638280a260015f80516020611d588339815191525580f35b516282b42960e81b8152fd5b507f97667070c54ef182b0f5858b034beac1b6f3089aa2d3188bb1e8929f4fa9b929885287602052808820335f5260205260ff815f20541615610df5565b8451633de8edd160e11b8152fd5b8451631a319ff960e31b8152fd5b9050346107af57816003193601126107af5781602093610ed2611628565b92358152808552209060018060a01b03165f52825260ff815f20541690519015158152f35b5050346101d457816003193601126101d45760207f62e78cea01bee320cd4e420270b5ea74000d11b0c9f74754ebdbfc544b05a25891610f3561190a565b610f3d611b28565b600160ff198154161760015551338152a180f35b5050346101d457816003193601126101d457602090517fa49807205ce4d355092ef5a8a18f56e8913cf4a201fbe287825b095693c217758152f35b5050346101d457816003193601126101d45760209060035460601c9051908152f35b5050346101d457816003193601126101d45760209060ff6001541690519015158152f35b9190503461059c57606036600319011261059c57610fee611612565b6024359160443590610ffe611b28565b611006611b46565b81156112d45780516331a9108f60e11b8082528187018690526001600160a01b039485169660209290919083816024818c5afa9081156112ca575f91611295575b508633911603611286576002549561105e87611782565b600255845161106c8161163e565b87815287858201918b8352878101908b82526060810193600185526080820133815260a08301918c835260c08401966001885260e08501955f87526101008601975f89525f528b8d528d5f20955186558960018701935116926001600160601b0360a01b9384825416179055516002860155516003850155878a8501925116908254161790555160058201556006019251151561111590849060ff801983541691151516179055565b51825461ff00191690151560081b61ff00161782555160028110156112735762ff000082549160101b169062ff00001916179055883b1561059c578451632142170760e11b815233848201908152306020820152604081018a90525f90829081900360600181838e5af1801561126957611256575b508451918252878383015283826024818c5afa91821561124c578a92611211575b5030911603611203575060019082519586528501528301525f60608301527f04339a90322faa2fb5b15a3a9e23156a23c97893e4618a34bc7ed68b582bd4a460803393a460015f80516020611d588339815191525580f35b82516312171d8360e31b8152fd5b9091508381813d8311611245575b6112298183611683565b810103126112415761123a9061176e565b905f6111ab565b8980fd5b503d61121f565b85513d8c823e3d90fd5b611261919a5061166f565b5f985f61118a565b86513d5f823e3d90fd5b602185634e487b7160e01b5f525260245ffd5b50825163ca5ae8a360e01b8152fd5b90508381813d83116112c3575b6112ac8183611683565b8101031261059c576112bd9061176e565b5f611047565b503d6112a2565b85513d5f823e3d90fd5b5162bfc92160e01b81528490fd5b90503461059c57602036600319011261059c57803591611300611965565b825f52816020526006815f20019182549160ff831615610d6757505061ff0019166101001790557f28e73ecebe49de8b5602b4482bff10dce9c71ed1fe459ea78ce4add73079d0fe5f80a2005b823461059c575f36600319011261059c5761136661190a565b6001549160ff8316156113a6577f5db9ee0a495bf2e6ff9c91a7834c1ba4fdd244a5e8aa4e537bd38aeae4b073aa6020838560ff191660015551338152a1005b9051638dfc202b60e01b8152fd5b823461059c578060031936011261059c576113cd611628565b90336001600160a01b038316036113e9575061001f9135611ab6565b5163334bd91960e11b81529050fd5b823461059c57602036600319011261059c5781356001600160601b039081811680910361059c57611427611891565b6127108111611475577fb4213675470c3b51739d200ecdfe26bdf7fede1669b9b06220618e03540f0431935060035491816001600160601b03198416176003558351921682526020820152a1005b505051634a079fe960e11b8152fd5b823461059c578060031936011261059c5761001f91356114b860016114a7611628565b93835f525f6020525f2001546119c0565b611a3a565b823461059c57602036600319011261059c57602091355f525f82526001815f2001549051908152f35b823461059c57608036600319011261059c57611500611612565b50611509611628565b5060643567ffffffffffffffff811161059c5760209261152b913691016116c1565b5051630a85bd0160e11b8152f35b90503461059c57602036600319011261059c577f728b95a98aa0bd98a161028735aa6e7525e94c2b001ad446bb0477846fbbfb9d91602091359061157b611891565b61158582336119e1565b51908152a1005b903461059c57602036600319011261059c57359063ffffffff60e01b821680920361059c5760209163f578d04760e01b81149081156115cd575b5015158152f35b630271189760e51b8114915081156115e7575b50836115c6565b637965db0b60e01b811491508115611601575b50836115e0565b6301ffc9a760e01b149050836115fa565b600435906001600160a01b038216820361059c57565b602435906001600160a01b038216820361059c57565b610120810190811067ffffffffffffffff82111761165b57604052565b634e487b7160e01b5f52604160045260245ffd5b67ffffffffffffffff811161165b57604052565b90601f8019910116810190811067ffffffffffffffff82111761165b57604052565b67ffffffffffffffff811161165b57601f01601f191660200190565b81601f8201121561059c578035906116d8826116a5565b926116e66040519485611683565b8284526020838301011161059c57815f926020809301838601378301015290565b81601f8201121561059c5780359160209167ffffffffffffffff841161165b578360051b906040519461173c85840187611683565b8552838086019282010192831161059c578301905b82821061175f575050505090565b81358152908301908301611751565b51906001600160a01b038216820361059c57565b5f1981146117905760010190565b634e487b7160e01b5f52601160045260245ffd5b906040516117b18161163e565b60ff600682948054845260018060a01b0380600183015416602086015260028201546040860152600382015460608601526004820154166080850152600581015460a08501520154818116151560c0840152818160081c16151560e084015260101c16906002821015611825576101000152565b634e487b7160e01b5f52602160045260245ffd5b929060c0949260018060a01b0380921685521660208401526040830152606082015260a060808201525f60a08201520190565b9190820391821161179057565b9081602091031261059c5751801515810361059c5790565b335f9081527f7d7ffb7a348e1c6a02869081a26547b49160dd3df72d1d75a570eb9b698292ec60205260409020547fa49807205ce4d355092ef5a8a18f56e8913cf4a201fbe287825b095693c217759060ff16156118ec5750565b6044906040519063e2517d3f60e01b82523360048301526024820152fd5b335f9081527ff7c9542c591017a21c74b6f3fab6263c7952fc0aaf9db4c22a2a04ddc7f8674f60205260409020547f65d7a28e3265b37a6474929f336521b332c1681b933f6cb9f3376673440d862a9060ff16156118ec5750565b335f9081527fee57cd81e84075558e8fcc182a1f4393f91fc97f963a136e66b7f949a62f319f60205260409020547f97667070c54ef182b0f5858b034beac1b6f3089aa2d3188bb1e8929f4fa9b9299060ff16156118ec5750565b805f525f60205260405f20335f5260205260ff60405f205416156118ec5750565b5f918291829182916001600160a01b03165af13d15611a35573d611a04816116a5565b90611a126040519283611683565b81525f60203d92013e5b15611a2357565b6040516312171d8360e31b8152600490fd5b611a1c565b90815f525f60205260405f209060018060a01b031690815f5260205260ff60405f205416155f14611ab057815f525f60205260405f20815f5260205260405f20600160ff1982541617905533917f2f8788117e7eff1d82e926ec794901d17c78024a50270940304540a733656f0d5f80a4600190565b50505f90565b90815f525f60205260405f209060018060a01b031690815f5260205260ff60405f2054165f14611ab057815f525f60205260405f20815f5260205260405f2060ff19815416905533917ff6391f5c32d9c69d2a47ea670b442974b53935d1edc7fd64eb21e047a839171b5f80a4600190565b60ff60015416611b3457565b60405163d93c066560e01b8152600490fd5b5f80516020611d588339815191526002815414611b635760029055565b604051633ee5aeb560e01b8152600490fd5b909161010081018051600281101561182557611c0657506020810151604090910151906001600160a01b0316803b1561059c57604051632142170760e11b81526001600160a01b03938416600482015293909216602484015260448301525f908290818381606481015b03925af18015611bfb57611bf05750565b611bf99061166f565b565b6040513d5f823e3d90fd5b51600281101561182557600103611c595760018060a01b036020820151166060604083015192015193813b1561059c575f8094611bdf60405197889687958694637921219560e11b865260048601611839565b604051639a9d6f4f60e01b8152600490fd5b604080516301ffc9a760e01b815263152a902d60e11b600482018190529495949193926001600160a01b031690602081602481855afa9081156112ca575f91611d38575b50611cc0575050505090505f905f90565b839291604491845197889485938452600484015260248301525afa928315611d2e575f915f94611cf1575b50509190565b8194508092503d8311611d27575b611d098183611683565b8101031261059c576020611d1c8361176e565b920151915f80611ceb565b503d611cff565b50513d5f823e3d90fd5b611d51915060203d60201161079e5761078f8183611683565b5f611caf56fe9b779b17422d0df92223018b32b4d1fa46e071723d6817e2486d003becc55f00a264697066735822122045deae5f9b91f646c56042eca38f1a1c43ae5644a6b636f289246b1713ea7ce764736f6c634300081800332f8788117e7eff1d82e926ec794901d17c78024a50270940304540a733656f0dad3228b676f7d3cd4284a5443f17f1962b36e491b30a40b2405849e597ba5fb5",
  "linkReferences": {},
  "deployedLinkReferences": {}
}