{
  "contracts/ReframeMarketplace.sol": {
    "ReframeMarketplace": {
      "abi": [
        {
          "inputs": [
            {
              "internalType": "address",
              "name": "admin",
              "type": "address"
            },
            {
              "internalType": "address",
              "name": "treasuryAddress",
              "type": "address"
            },
            {
              "internalType": "uint96",
              "name": "feeBps",
              "type": "uint96"
            }
          ],
          "stateMutability": "nonpayable",
          "type": "constructor"
        },
        {
          "inputs": [],
          "name": "AccessControlBadConfirmation",
          "type": "error"
        },
        {
          "inputs": [
            {
              "internalType": "address",
              "name": "account",
              "type": "address"
            },
            {
              "internalType": "bytes32",
              "name": "neededRole",
              "type": "bytes32"
            }
          ],
          "name": "AccessControlUnauthorizedAccount",
          "type": "error"
        },
        {
          "inputs": [],
          "name": "EnforcedPause",
          "type": "error"
        },
        {
          "inputs": [],
          "name": "ExpectedPause",
          "type": "error"
        },
        {
          "inputs": [],
          "name": "InvalidAddress",
          "type": "error"
        },
        {
          "inputs": [],
          "name": "InvalidAmount",
          "type": "error"
        },
        {
          "inputs": [],
          "name": "InvalidMarketplaceFee",
          "type": "error"
        },
        {
          "inputs": [],
          "name": "InvalidPaymentAmount",
          "type": "error"
        },
        {
          "inputs": [],
          "name": "InvalidPrice",
          "type": "error"
        },
        {
          "inputs": [],
          "name": "ListingInactive",
          "type": "error"
        },
        {
          "inputs": [],
          "name": "ListingLockedError",
          "type": "error"
        },
        {
          "inputs": [],
          "name": "ListingNotFound",
          "type": "error"
        },
        {
          "inputs": [],
          "name": "NFTNotOwned",
          "type": "error"
        },
        {
          "inputs": [],
          "name": "ReentrancyGuardReentrantCall",
          "type": "error"
        },
        {
          "inputs": [],
          "name": "TransferFailed",
          "type": "error"
        },
        {
          "inputs": [],
          "name": "Unauthorized",
          "type": "error"
        },
        {
          "inputs": [],
          "name": "UnsupportedTokenStandard",
          "type": "error"
        },
        {
          "anonymous": false,
          "inputs": [
            {
              "indexed": true,
              "internalType": "uint256",
              "name": "listingId",
              "type": "uint256"
            }
          ],
          "name": "Delisted",
          "type": "event"
        },
        {
          "anonymous": false,
          "inputs": [
            {
              "indexed": false,
              "internalType": "address",
              "name": "nft",
              "type": "address"
            },
            {
              "indexed": false,
              "internalType": "uint256",
              "name": "tokenId",
              "type": "uint256"
            },
            {
              "indexed": false,
              "internalType": "uint256",
              "name": "amount",
              "type": "uint256"
            }
          ],
          "name": "EmergencyWithdrawERC1155",
          "type": "event"
        },
        {
          "anonymous": false,
          "inputs": [
            {
              "indexed": false,
              "internalType": "address",
              "name": "token",
              "type": "address"
            },
            {
              "indexed": false,
              "internalType": "uint256",
              "name": "amount",
              "type": "uint256"
            }
          ],
          "name": "EmergencyWithdrawERC20",
          "type": "event"
        },
        {
          "anonymous": false,
          "inputs": [
            {
              "indexed": false,
              "internalType": "address",
              "name": "nft",
              "type": "address"
            },
            {
              "indexed": false,
              "internalType": "uint256",
              "name": "tokenId",
              "type": "uint256"
            }
          ],
          "name": "EmergencyWithdrawERC721",
          "type": "event"
        },
        {
          "anonymous": false,
          "inputs": [
            {
              "indexed": false,
              "internalType": "uint256",
              "name": "amount",
              "type": "uint256"
            }
          ],
          "name": "EmergencyWithdrawNative",
          "type": "event"
        },
        {
          "anonymous": false,
          "inputs": [
            {
              "indexed": true,
              "internalType": "uint256",
              "name": "listingId",
              "type": "uint256"
            },
            {
              "indexed": true,
              "internalType": "address",
              "name": "seller",
              "type": "address"
            },
            {
              "indexed": true,
              "internalType": "address",
              "name": "nft",
              "type": "address"
            },
            {
              "indexed": false,
              "internalType": "uint256",
              "name": "tokenId",
              "type": "uint256"
            },
            {
              "indexed": false,
              "internalType": "uint256",
              "name": "amount",
              "type": "uint256"
            },
            {
              "indexed": false,
              "internalType": "uint256",
              "name": "price",
              "type": "uint256"
            },
            {
              "indexed": false,
              "internalType": "enum IFrameMarketplace.TokenStandard",
              "name": "standard",
              "type": "uint8"
            }
          ],
          "name": "Listed",
          "type": "event"
        },
        {
          "anonymous": false,
          "inputs": [
            {
              "indexed": true,
              "internalType": "uint256",
              "name": "listingId",
              "type": "uint256"
            }
          ],
          "name": "ListingLocked",
          "type": "event"
        },
        {
          "anonymous": false,
          "inputs": [
            {
              "indexed": true,
              "internalType": "uint256",
              "name": "listingId",
              "type": "uint256"
            }
          ],
          "name": "ListingUnlocked",
          "type": "event"
        },
        {
          "anonymous": false,
          "inputs": [
            {
              "indexed": false,
              "internalType": "uint96",
              "name": "oldFee",
              "type": "uint96"
            },
            {
              "indexed": false,
              "internalType": "uint96",
              "name": "newFee",
              "type": "uint96"
            }
          ],
          "name": "MarketplaceFeeUpdated",
          "type": "event"
        },
        {
          "anonymous": false,
          "inputs": [
            {
              "indexed": false,
              "internalType": "address",
              "name": "account",
              "type": "address"
            }
          ],
          "name": "Paused",
          "type": "event"
        },
        {
          "anonymous": false,
          "inputs": [
            {
              "indexed": true,
              "internalType": "uint256",
              "name": "listingId",
              "type": "uint256"
            },
            {
              "indexed": true,
              "internalType": "address",
              "name": "buyer",
              "type": "address"
            },
            {
              "indexed": false,
              "internalType": "uint256",
              "name": "price",
              "type": "uint256"
            }
          ],
          "name": "Purchased",
          "type": "event"
        },
        {
          "anonymous": false,
          "inputs": [
            {
              "indexed": true,
              "internalType": "bytes32",
              "name": "role",
              "type": "bytes32"
            },
            {
              "indexed": true,
              "internalType": "bytes32",
              "name": "previousAdminRole",
              "type": "bytes32"
            },
            {
              "indexed": true,
              "internalType": "bytes32",
              "name": "newAdminRole",
              "type": "bytes32"
            }
          ],
          "name": "RoleAdminChanged",
          "type": "event"
        },
        {
          "anonymous": false,
          "inputs": [
            {
              "indexed": true,
              "internalType": "bytes32",
              "name": "role",
              "type": "bytes32"
            },
            {
              "indexed": true,
              "internalType": "address",
              "name": "account",
              "type": "address"
            },
            {
              "indexed": true,
              "internalType": "address",
              "name": "sender",
              "type": "address"
            }
          ],
          "name": "RoleGranted",
          "type": "event"
        },
        {
          "anonymous": false,
          "inputs": [
            {
              "indexed": true,
              "internalType": "bytes32",
              "name": "role",
              "type": "bytes32"
            },
            {
              "indexed": true,
              "internalType": "address",
              "name": "account",
              "type": "address"
            },
            {
              "indexed": true,
              "internalType": "address",
              "name": "sender",
              "type": "address"
            }
          ],
          "name": "RoleRevoked",
          "type": "event"
        },
        {
          "anonymous": false,
          "inputs": [
            {
              "indexed": false,
              "internalType": "address",
              "name": "oldTreasury",
              "type": "address"
            },
            {
              "indexed": false,
              "internalType": "address",
              "name": "newTreasury",
              "type": "address"
            }
          ],
          "name": "TreasuryUpdated",
          "type": "event"
        },
        {
          "anonymous": false,
          "inputs": [
            {
              "indexed": false,
              "internalType": "address",
              "name": "account",
              "type": "address"
            }
          ],
          "name": "Unpaused",
          "type": "event"
        },
        {
          "inputs": [],
          "name": "ADMIN_ROLE",
          "outputs": [
            {
              "internalType": "bytes32",
              "name": "",
              "type": "bytes32"
            }
          ],
          "stateMutability": "view",
          "type": "function"
        },
        {
          "inputs": [],
          "name": "DEFAULT_ADMIN_ROLE",
          "outputs": [
            {
              "internalType": "bytes32",
              "name": "",
              "type": "bytes32"
            }
          ],
          "stateMutability": "view",
          "type": "function"
        },
        {
          "inputs": [],
          "name": "MAX_MARKETPLACE_FEE_BPS",
          "outputs": [
            {
              "internalType": "uint96",
              "name": "",
              "type": "uint96"
            }
          ],
          "stateMutability": "view",
          "type": "function"
        },
        {
          "inputs": [],
          "name": "OPERATOR_ROLE",
          "outputs": [
            {
              "internalType": "bytes32",
              "name": "",
              "type": "bytes32"
            }
          ],
          "stateMutability": "view",
          "type": "function"
        },
        {
          "inputs": [],
          "name": "PAUSER_ROLE",
          "outputs": [
            {
              "internalType": "bytes32",
              "name": "",
              "type": "bytes32"
            }
          ],
          "stateMutability": "view",
          "type": "function"
        },
        {
          "inputs": [
            {
              "internalType": "uint256",
              "name": "listingId",
              "type": "uint256"
            }
          ],
          "name": "buy",
          "outputs": [],
          "stateMutability": "payable",
          "type": "function"
        },
        {
          "inputs": [
            {
              "internalType": "uint256",
              "name": "listingId",
              "type": "uint256"
            }
          ],
          "name": "delist",
          "outputs": [],
          "stateMutability": "nonpayable",
          "type": "function"
        },
        {
          "inputs": [
            {
              "internalType": "address",
              "name": "nft",
              "type": "address"
            },
            {
              "internalType": "uint256",
              "name": "tokenId",
              "type": "uint256"
            },
            {
              "internalType": "uint256",
              "name": "amount",
              "type": "uint256"
            },
            {
              "internalType": "address",
              "name": "to",
              "type": "address"
            }
          ],
          "name": "emergencyWithdrawERC1155",
          "outputs": [],
          "stateMutability": "nonpayable",
          "type": "function"
        },
        {
          "inputs": [
            {
              "internalType": "address",
              "name": "token",
              "type": "address"
            },
            {
              "internalType": "uint256",
              "name": "amount",
              "type": "uint256"
            }
          ],
          "name": "emergencyWithdrawERC20",
          "outputs": [],
          "stateMutability": "nonpayable",
          "type": "function"
        },
        {
          "inputs": [
            {
              "internalType": "address",
              "name": "nft",
              "type": "address"
            },
            {
              "internalType": "uint256",
              "name": "tokenId",
              "type": "uint256"
            },
            {
              "internalType": "address",
              "name": "to",
              "type": "address"
            }
          ],
          "name": "emergencyWithdrawERC721",
          "outputs": [],
          "stateMutability": "nonpayable",
          "type": "function"
        },
        {
          "inputs": [
            {
              "internalType": "uint256",
              "name": "amount",
              "type": "uint256"
            }
          ],
          "name": "emergencyWithdrawNative",
          "outputs": [],
          "stateMutability": "nonpayable",
          "type": "function"
        },
        {
          "inputs": [
            {
              "internalType": "bytes32",
              "name": "role",
              "type": "bytes32"
            }
          ],
          "name": "getRoleAdmin",
          "outputs": [
            {
              "internalType": "bytes32",
              "name": "",
              "type": "bytes32"
            }
          ],
          "stateMutability": "view",
          "type": "function"
        },
        {
          "inputs": [
            {
              "internalType": "bytes32",
              "name": "role",
              "type": "bytes32"
            },
            {
              "internalType": "address",
              "name": "account",
              "type": "address"
            }
          ],
          "name": "grantRole",
          "outputs": [],
          "stateMutability": "nonpayable",
          "type": "function"
        },
        {
          "inputs": [
            {
              "internalType": "bytes32",
              "name": "role",
              "type": "bytes32"
            },
            {
              "internalType": "address",
              "name": "account",
              "type": "address"
            }
          ],
          "name": "hasRole",
          "outputs": [
            {
              "internalType": "bool",
              "name": "",
              "type": "bool"
            }
          ],
          "stateMutability": "view",
          "type": "function"
        },
        {
          "inputs": [
            {
              "internalType": "address",
              "name": "nft",
              "type": "address"
            },
            {
              "internalType": "uint256",
              "name": "tokenId",
              "type": "uint256"
            },
            {
              "internalType": "uint256",
              "name": "amount",
              "type": "uint256"
            },
            {
              "internalType": "uint256",
              "name": "price",
              "type": "uint256"
            }
          ],
          "name": "listERC1155",
          "outputs": [],
          "stateMutability": "nonpayable",
          "type": "function"
        },
        {
          "inputs": [
            {
              "internalType": "address",
              "name": "nft",
              "type": "address"
            },
            {
              "internalType": "uint256",
              "name": "tokenId",
              "type": "uint256"
            },
            {
              "internalType": "uint256",
              "name": "price",
              "type": "uint256"
            }
          ],
          "name": "listERC721",
          "outputs": [],
          "stateMutability": "nonpayable",
          "type": "function"
        },
        {
          "inputs": [
            {
              "internalType": "uint256",
              "name": "",
              "type": "uint256"
            }
          ],
          "name": "listings",
          "outputs": [
            {
              "internalType": "uint256",
              "name": "listingId",
              "type": "uint256"
            },
            {
              "internalType": "address",
              "name": "nft",
              "type": "address"
            },
            {
              "internalType": "uint256",
              "name": "tokenId",
              "type": "uint256"
            },
            {
              "internalType": "uint256",
              "name": "amount",
              "type": "uint256"
            },
            {
              "internalType": "address",
              "name": "seller",
              "type": "address"
            },
            {
              "internalType": "uint256",
              "name": "price",
              "type": "uint256"
            },
            {
              "internalType": "bool",
              "name": "active",
              "type": "bool"
            },
            {
              "internalType": "bool",
              "name": "locked",
              "type": "bool"
            },
            {
              "internalType": "enum IFrameMarketplace.TokenStandard",
              "name": "standard",
              "type": "uint8"
            }
          ],
          "stateMutability": "view",
          "type": "function"
        },
        {
          "inputs": [
            {
              "internalType": "uint256",
              "name": "listingId",
              "type": "uint256"
            }
          ],
          "name": "lockListing",
          "outputs": [],
          "stateMutability": "nonpayable",
          "type": "function"
        },
        {
          "inputs": [],
          "name": "marketplaceFeeBps",
          "outputs": [
            {
              "internalType": "uint96",
              "name": "",
              "type": "uint96"
            }
          ],
          "stateMutability": "view",
          "type": "function"
        },
        {
          "inputs": [],
          "name": "nextListingId",
          "outputs": [
            {
              "internalType": "uint256",
              "name": "",
              "type": "uint256"
            }
          ],
          "stateMutability": "view",
          "type": "function"
        },
        {
          "inputs": [
            {
              "internalType": "address",
              "name": "",
              "type": "address"
            },
            {
              "internalType": "address",
              "name": "",
              "type": "address"
            },
            {
              "internalType": "uint256[]",
              "name": "",
              "type": "uint256[]"
            },
            {
              "internalType": "uint256[]",
              "name": "",
              "type": "uint256[]"
            },
            {
              "internalType": "bytes",
              "name": "",
              "type": "bytes"
            }
          ],
          "name": "onERC1155BatchReceived",
          "outputs": [
            {
              "internalType": "bytes4",
              "name": "",
              "type": "bytes4"
            }
          ],
          "stateMutability": "nonpayable",
          "type": "function"
        },
        {
          "inputs": [
            {
              "internalType": "address",
              "name": "",
              "type": "address"
            },
            {
              "internalType": "address",
              "name": "",
              "type": "address"
            },
            {
              "internalType": "uint256",
              "name": "",
              "type": "uint256"
            },
            {
              "internalType": "uint256",
              "name": "",
              "type": "uint256"
            },
            {
              "internalType": "bytes",
              "name": "",
              "type": "bytes"
            }
          ],
          "name": "onERC1155Received",
          "outputs": [
            {
              "internalType": "bytes4",
              "name": "",
              "type": "bytes4"
            }
          ],
          "stateMutability": "nonpayable",
          "type": "function"
        },
        {
          "inputs": [
            {
              "internalType": "address",
              "name": "",
              "type": "address"
            },
            {
              "internalType": "address",
              "name": "",
              "type": "address"
            },
            {
              "internalType": "uint256",
              "name": "",
              "type": "uint256"
            },
            {
              "internalType": "bytes",
              "name": "",
              "type": "bytes"
            }
          ],
          "name": "onERC721Received",
          "outputs": [
            {
              "internalType": "bytes4",
              "name": "",
              "type": "bytes4"
            }
          ],
          "stateMutability": "nonpayable",
          "type": "function"
        },
        {
          "inputs": [],
          "name": "pause",
          "outputs": [],
          "stateMutability": "nonpayable",
          "type": "function"
        },
        {
          "inputs": [],
          "name": "paused",
          "outputs": [
            {
              "internalType": "bool",
              "name": "",
              "type": "bool"
            }
          ],
          "stateMutability": "view",
          "type": "function"
        },
        {
          "inputs": [
            {
              "internalType": "bytes32",
              "name": "role",
              "type": "bytes32"
            },
            {
              "internalType": "address",
              "name": "callerConfirmation",
              "type": "address"
            }
          ],
          "name": "renounceRole",
          "outputs": [],
          "stateMutability": "nonpayable",
          "type": "function"
        },
        {
          "inputs": [
            {
              "internalType": "bytes32",
              "name": "role",
              "type": "bytes32"
            },
            {
              "internalType": "address",
              "name": "account",
              "type": "address"
            }
          ],
          "name": "revokeRole",
          "outputs": [],
          "stateMutability": "nonpayable",
          "type": "function"
        },
        {
          "inputs": [
            {
              "internalType": "uint96",
              "name": "newFee",
              "type": "uint96"
            }
          ],
          "name": "setMarketplaceFee",
          "outputs": [],
          "stateMutability": "nonpayable",
          "type": "function"
        },
        {
          "inputs": [
            {
              "internalType": "address",
              "name": "newTreasury",
              "type": "address"
            }
          ],
          "name": "setTreasury",
          "outputs": [],
          "stateMutability": "nonpayable",
          "type": "function"
        },
        {
          "inputs": [
            {
              "internalType": "bytes4",
              "name": "interfaceId",
              "type": "bytes4"
            }
          ],
          "name": "supportsInterface",
          "outputs": [
            {
              "internalType": "bool",
              "name": "",
              "type": "bool"
            }
          ],
          "stateMutability": "view",
          "type": "function"
        },
        {
          "inputs": [],
          "name": "treasury",
          "outputs": [
            {
              "internalType": "address",
              "name": "",
              "type": "address"
            }
          ],
          "stateMutability": "view",
          "type": "function"
        },
        {
          "inputs": [
            {
              "internalType": "uint256",
              "name": "listingId",
              "type": "uint256"
            }
          ],
          "name": "unlockListing",
          "outputs": [],
          "stateMutability": "nonpayable",
          "type": "function"
        },
        {
          "inputs": [],
          "name": "unpause",
          "outputs": [],
          "stateMutability": "nonpayable",
          "type": "function"
        },
        {
          "stateMutability": "payable",
          "type": "receive"
        }
      ],
      "evm": {
        "bytecode": {
          "linkReferences": {},
          "object": "6080346200013f57601f6200219e38819003918201601f1916830191906001600160401b03831184841017620001435781606092859260409586528339810103126200013f57620000508262000157565b816200005f6020850162000157565b9301516001600160601b038116908190036200013f5760017f9b779b17422d0df92223018b32b4d1fa46e071723d6817e2486d003becc55f00556001600160a01b03828116156200012e578416156200011d5761271081116200010c57620000fd929360018060601b03199060601b1617600355620000de816200016c565b50620000ea81620001dc565b50620000f6816200027c565b5062000316565b5051611dad9081620003b18239f35b8251634a079fe960e11b8152600490fd5b825163e6c4247b60e01b8152600490fd5b835163e6c4247b60e01b8152600490fd5b5f80fd5b634e487b7160e01b5f52604160045260245ffd5b51906001600160a01b03821682036200013f57565b6001600160a01b03165f8181525f805160206200217e833981519152602052604090205460ff16620001d7575f8181525f805160206200217e83398151915260205260408120805460ff191660011790553391905f805160206200215e8339815191528180a4600190565b505f90565b6001600160a01b03165f8181527f7d7ffb7a348e1c6a02869081a26547b49160dd3df72d1d75a570eb9b698292ec60205260409020547fa49807205ce4d355092ef5a8a18f56e8913cf4a201fbe287825b095693c21775919060ff166200027657815f525f60205260405f20815f5260205260405f20600160ff1982541617905533915f805160206200215e8339815191525f80a4600190565b50505f90565b6001600160a01b03165f8181527ff7c9542c591017a21c74b6f3fab6263c7952fc0aaf9db4c22a2a04ddc7f8674f60205260409020547f65d7a28e3265b37a6474929f336521b332c1681b933f6cb9f3376673440d862a919060ff166200027657815f525f60205260405f20815f5260205260405f20600160ff1982541617905533915f805160206200215e8339815191525f80a4600190565b6001600160a01b03165f8181527fee57cd81e84075558e8fcc182a1f4393f91fc97f963a136e66b7f949a62f319f60205260409020547f97667070c54ef182b0f5858b034beac1b6f3089aa2d3188bb1e8929f4fa9b929919060ff166200027657815f525f60205260405f20815f5260205260405f20600160ff1982541617905533915f805160206200215e8339815191525f80a460019056fe6080604081815260049182361015610021575b505050361561001f575f80fd5b005b5f925f3560e01c91826301ffc9a71461158c575081630f6835b814611539578163150b7a02146114e6578163248a9ca3146114bd5781632f2ff15d14611484578163319e991e146113f857816336568abe146113b45781633f4ba83a1461134d5781634a3f0bf9146112e25781635280af1d14610fd25781635c975abb14610fae57816361d027b314610f8c57816375b238fc14610f515781638456cb5914610ef757816391d1485414610eb4578163964bc33f14610d8f578163a217fddf14610d74578163a52c428d14610cff578163a8f46f5314610c0a578163aaccf1ec14610beb578163b74fb31614610bce578163bc197c8114610b47578163cd10744014610a69578163d3929c8a14610a41578163d547741f14610a02578163d96a094a14610864578163de74e57b146107b3578163df29b982146106b9578163e63ab1e91461067e578163e8d9b52f146102c9578163f0f4426014610231578163f23a6e61146101d8575063f5b541a61461019b5780610012565b346101d457816003193601126101d457602090517f97667070c54ef182b0f5858b034beac1b6f3089aa2d3188bb1e8929f4fa9b9298152f35b5080fd5b82843461022e5760a036600319011261022e576101f3611612565b506101fc611628565b506084359067ffffffffffffffff821161022e5750602092610220913691016116c1565b505163f23a6e6160e01b8152f35b80fd5b8383346101d45760203660031901126101d45761024c611612565b610254611891565b6001600160a01b03811680156102b9577f4ab5be82436d353e61ca18726e984e561f5c1cc7c6d38b29d2553c790434705a939450600354916001600160601b03199060601b166001600160601b0383161760035582519160601c82526020820152a180f35b825163e6c4247b60e01b81528590fd5b839150346101d45760803660031901126101d4576102e5611612565b9260243590606435906044356102f9611b28565b610301611b46565b821561066f57801561065f578151627eeac760e11b8082523382880190815260208181018890526001600160a01b039a8b1698909390929184908290819060400103818c5afa908115610655579085918b91610624575b5010610615578888999a8489898960029d9c9d549c8d9561037887611782565b6002558251946103878661163e565b87865286860192835283860190815260608601908d8252608087019433865260a0880196875260c088019a60018c528d60e08a019a828c526101008b019c60018e5283525220965187558260018801945116936001600160601b0360a01b9485825416179055516002870155516003860155898501925116908254161790555160058201556006019251151561042990849060ff801983541691151516179055565b51825461ff00191690151560081b61ff001617825551600281101561060257815462ff0000191660109190911b62ff000016179055845181815230838201908152602081018a905290919084908390819060400103818d5afa9182156105a7578b926105d3575b50893b156105c5578a6104bf81878d8d838c51809681958294637921219560e11b84528d309033908601611839565b03925af180156105c9576105b1575b5050855190815230838201908152602081018a905284908290819060400103818d5afa9081156105a757908592918c9161056e575b509061050e9161186c565b0361056057508251958652850152830152600160608301527f04339a90322faa2fb5b15a3a9e23156a23c97893e4618a34bc7ed68b582bd4a460803393a460015f80516020611d588339815191525580f35b83516312171d8360e31b8152fd5b80929350858092503d83116105a0575b6105888183611683565b8101031261059c575184919061050e610503565b5f80fd5b503d61057e565b86513d8d823e3d90fd5b6105ba9061166f565b6105c5578a8c6104ce565b8a80fd5b88513d84823e3d90fd5b9091508381813d83116105fb575b6105eb8183611683565b8101031261059c5751908b610490565b503d6105e1565b634e487b7160e01b8c526021845260248cfd5b50835163ca5ae8a360e01b8152fd5b809250858092503d831161064e575b61063d8183611683565b8101031261059c578490518c610358565b503d610633565b86513d8c823e3d90fd5b815163162908e360e11b81528590fd5b815162bfc92160e01b81528590fd5b5050346101d457816003193601126101d457602090517f65d7a28e3265b37a6474929f336521b332c1681b933f6cb9f3376673440d862a8152f35b9050346107af57816003193601126107af576106d3611612565b61070e602060243580946106e5611891565b865163a9059cbb60e01b8152339181019182526020820192909252909283918291604090910190565b0381886001600160a01b0387165af180156107a55793610770917f3d5112fd88bb733a9b31d13ca8b164627be30715dbcd38969b1039a40ebee22f95610776575b50516001600160a01b03909216825260208201929092529081906040820190565b0390a180f35b6107979060203d60201161079e575b61078f8183611683565b810190611879565b505f61074f565b503d610785565b84513d87823e3d90fd5b8280fd5b82843461022e57602036600319011261022e57819083358152836020522060ff81549260018060a01b039283600182015416936002820154906003830154908884015416916006600585015494015494868660101c16978151998a5260208a01528801526060870152608086015260a0850152818116151560c085015260081c16151560e08301526002811015610851576101209250610100820152f35b602183634e487b7160e01b5f525260245ffd5b905060203660031901126107af5780359061087d611b28565b610885611b46565b81845280602052828420600681019182549060ff8216156109f45760ff8260081c166109e65760058301938454928334036109d65760ff19169055600183015460028401546001600160a01b0392916108e19185918516611c6b565b936001600160601b03600354168082029082820414821517156109c357928561094c9693610926610953999794610921612710610947990494859261186c565b61186c565b94801515806109b8575b6109a8575b505080610993575b50840154166119e1565b6117a4565b3330611b75565b5491519182527ffd51b2c9f55c42d2b72ac683526519563be02fc0107f034ff430c05185ff1b6660203393a360015f80516020611d588339815191525580f35b6109a29060035460601c6119e1565b5f61093d565b6109b1916119e1565b5f80610935565b508482161515610930565b634e487b7160e01b8b526011845260248bfd5b8751637e2897ef60e11b81528390fd5b8551633de8edd160e11b8152fd5b8551631a319ff960e31b8152fd5b919050346107af57806003193601126107af57610a3d9135610a386001610a27611628565b9383875286602052862001546119c0565b611ab6565b5080f35b5050346101d457816003193601126101d4576020906001600160601b03600354169051908152f35b9050346107af5760803660031901126107af57610a84611612565b60443590602435906064356001600160a01b03808216820361059c578792610aaa611891565b1694853b156107af5783918391610ad5878a519586948594637921219560e11b865230908601611839565b038183895af18015610b3d57610b1f575b50927f085236991fba27d2a7bc4f19ab7478da4eef13bf07129d2f561942e05383f4e5928560609381519384526020840152820152a180f35b610b2c909493929461166f565b610b39579091845f610ae6565b8480fd5b86513d84823e3d90fd5b82843461022e5760a036600319011261022e57610b62611612565b50610b6b611628565b5067ffffffffffffffff906044358281116101d457610b8d9036908601611707565b506064358281116101d457610ba59036908601611707565b5060843591821161022e5750602092610bc0913691016116c1565b505163bc197c8160e01b8152f35b5050346101d457816003193601126101d457602090516127108152f35b5050346101d457816003193601126101d4576020906002549051908152f35b9050346107af5760603660031901126107af57610c25611612565b602435916001600160a01b0390604435828116810361059c578692610c48611891565b841691823b15610cf1578651632142170760e11b8152309181019182526001600160a01b039092166020820152604081018690529091839183919082908490829060600103925af18015610cf557610cdd575b505091516001600160a01b03909216825260208201527f0c824d299b998c4d0a115139e69b35f5762de26537a4d7cc3577705834a10e14908060408101610770565b610ce69061166f565b610cf157835f610c9b565b8380fd5b85513d84823e3d90fd5b9050346107af5760203660031901126107af57803591610d1d611965565b828452816020526006818520019182549160ff831615610d6757505061ff00191690557f3240783f91ee584ba7ddb79fd08cf5d412e5e67754edfbf0df5448f97807deee8280a280f35b51631a319ff960e31b8152fd5b5050346101d457816003193601126101d45751908152602090f35b919050346107af5760203660031901126107af57813591610dae611b28565b610db6611b46565b8284528060205281842090600682019081549060ff821615610ea65760ff8260081c16610e9857838101546001600160a01b0316943386141580610e5a575b610e4e57505060ff19169055610e169190610e0f906117a4565b9030611b75565b7fc40fdc946efe80191c467f60727c4abc08254a056035d467a4516a86005ab7638280a260015f80516020611d588339815191525580f35b516282b42960e81b8152fd5b507f97667070c54ef182b0f5858b034beac1b6f3089aa2d3188bb1e8929f4fa9b929885287602052808820335f5260205260ff815f20541615610df5565b8451633de8edd160e11b8152fd5b8451631a319ff960e31b8152fd5b9050346107af57816003193601126107af5781602093610ed2611628565b92358152808552209060018060a01b03165f52825260ff815f20541690519015158152f35b5050346101d457816003193601126101d45760207f62e78cea01bee320cd4e420270b5ea74000d11b0c9f74754ebdbfc544b05a25891610f3561190a565b610f3d611b28565b600160ff198154161760015551338152a180f35b5050346101d457816003193601126101d457602090517fa49807205ce4d355092ef5a8a18f56e8913cf4a201fbe287825b095693c217758152f35b5050346101d457816003193601126101d45760209060035460601c9051908152f35b5050346101d457816003193601126101d45760209060ff6001541690519015158152f35b9190503461059c57606036600319011261059c57610fee611612565b6024359160443590610ffe611b28565b611006611b46565b81156112d45780516331a9108f60e11b8082528187018690526001600160a01b039485169660209290919083816024818c5afa9081156112ca575f91611295575b508633911603611286576002549561105e87611782565b600255845161106c8161163e565b87815287858201918b8352878101908b82526060810193600185526080820133815260a08301918c835260c08401966001885260e08501955f87526101008601975f89525f528b8d528d5f20955186558960018701935116926001600160601b0360a01b9384825416179055516002860155516003850155878a8501925116908254161790555160058201556006019251151561111590849060ff801983541691151516179055565b51825461ff00191690151560081b61ff00161782555160028110156112735762ff000082549160101b169062ff00001916179055883b1561059c578451632142170760e11b815233848201908152306020820152604081018a90525f90829081900360600181838e5af1801561126957611256575b508451918252878383015283826024818c5afa91821561124c578a92611211575b5030911603611203575060019082519586528501528301525f60608301527f04339a90322faa2fb5b15a3a9e23156a23c97893e4618a34bc7ed68b582bd4a460803393a460015f80516020611d588339815191525580f35b82516312171d8360e31b8152fd5b9091508381813d8311611245575b6112298183611683565b810103126112415761123a9061176e565b905f6111ab565b8980fd5b503d61121f565b85513d8c823e3d90fd5b611261919a5061166f565b5f985f61118a565b86513d5f823e3d90fd5b602185634e487b7160e01b5f525260245ffd5b50825163ca5ae8a360e01b8152fd5b90508381813d83116112c3575b6112ac8183611683565b8101031261059c576112bd9061176e565b5f611047565b503d6112a2565b85513d5f823e3d90fd5b5162bfc92160e01b81528490fd5b90503461059c57602036600319011261059c57803591611300611965565b825f52816020526006815f20019182549160ff831615610d6757505061ff0019166101001790557f28e73ecebe49de8b5602b4482bff10dce9c71ed1fe459ea78ce4add73079d0fe5f80a2005b823461059c575f36600319011261059c5761136661190a565b6001549160ff8316156113a6577f5db9ee0a495bf2e6ff9c91a7834c1ba4fdd244a5e8aa4e537bd38aeae4b073aa6020838560ff191660015551338152a1005b9051638dfc202b60e01b8152fd5b823461059c578060031936011261059c576113cd611628565b90336001600160a01b038316036113e9575061001f9135611ab6565b5163334bd91960e11b81529050fd5b823461059c57602036600319011261059c5781356001600160601b039081811680910361059c57611427611891565b6127108111611475577fb4213675470c3b51739d200ecdfe26bdf7fede1669b9b06220618e03540f0431935060035491816001600160601b03198416176003558351921682526020820152a1005b505051634a079fe960e11b8152fd5b823461059c578060031936011261059c5761001f91356114b860016114a7611628565b93835f525f6020525f2001546119c0565b611a3a565b823461059c57602036600319011261059c57602091355f525f82526001815f2001549051908152f35b823461059c57608036600319011261059c57611500611612565b50611509611628565b5060643567ffffffffffffffff811161059c5760209261152b913691016116c1565b5051630a85bd0160e11b8152f35b90503461059c57602036600319011261059c577f728b95a98aa0bd98a161028735aa6e7525e94c2b001ad446bb0477846fbbfb9d91602091359061157b611891565b61158582336119e1565b51908152a1005b903461059c57602036600319011261059c57359063ffffffff60e01b821680920361059c5760209163f578d04760e01b81149081156115cd575b5015158152f35b630271189760e51b8114915081156115e7575b50836115c6565b637965db0b60e01b811491508115611601575b50836115e0565b6301ffc9a760e01b149050836115fa565b600435906001600160a01b038216820361059c57565b602435906001600160a01b038216820361059c57565b610120810190811067ffffffffffffffff82111761165b57604052565b634e487b7160e01b5f52604160045260245ffd5b67ffffffffffffffff811161165b57604052565b90601f8019910116810190811067ffffffffffffffff82111761165b57604052565b67ffffffffffffffff811161165b57601f01601f191660200190565b81601f8201121561059c578035906116d8826116a5565b926116e66040519485611683565b8284526020838301011161059c57815f926020809301838601378301015290565b81601f8201121561059c5780359160209167ffffffffffffffff841161165b578360051b906040519461173c85840187611683565b8552838086019282010192831161059c578301905b82821061175f575050505090565b81358152908301908301611751565b51906001600160a01b038216820361059c57565b5f1981146117905760010190565b634e487b7160e01b5f52601160045260245ffd5b906040516117b18161163e565b60ff600682948054845260018060a01b0380600183015416602086015260028201546040860152600382015460608601526004820154166080850152600581015460a08501520154818116151560c0840152818160081c16151560e084015260101c16906002821015611825576101000152565b634e487b7160e01b5f52602160045260245ffd5b929060c0949260018060a01b0380921685521660208401526040830152606082015260a060808201525f60a08201520190565b9190820391821161179057565b9081602091031261059c5751801515810361059c5790565b335f9081527f7d7ffb7a348e1c6a02869081a26547b49160dd3df72d1d75a570eb9b698292ec60205260409020547fa49807205ce4d355092ef5a8a18f56e8913cf4a201fbe287825b095693c217759060ff16156118ec5750565b6044906040519063e2517d3f60e01b82523360048301526024820152fd5b335f9081527ff7c9542c591017a21c74b6f3fab6263c7952fc0aaf9db4c22a2a04ddc7f8674f60205260409020547f65d7a28e3265b37a6474929f336521b332c1681b933f6cb9f3376673440d862a9060ff16156118ec5750565b335f9081527fee57cd81e84075558e8fcc182a1f4393f91fc97f963a136e66b7f949a62f319f60205260409020547f97667070c54ef182b0f5858b034beac1b6f3089aa2d3188bb1e8929f4fa9b9299060ff16156118ec5750565b805f525f60205260405f20335f5260205260ff60405f205416156118ec5750565b5f918291829182916001600160a01b03165af13d15611a35573d611a04816116a5565b90611a126040519283611683565b81525f60203d92013e5b15611a2357565b6040516312171d8360e31b8152600490fd5b611a1c565b90815f525f60205260405f209060018060a01b031690815f5260205260ff60405f205416155f14611ab057815f525f60205260405f20815f5260205260405f20600160ff1982541617905533917f2f8788117e7eff1d82e926ec794901d17c78024a50270940304540a733656f0d5f80a4600190565b50505f90565b90815f525f60205260405f209060018060a01b031690815f5260205260ff60405f2054165f14611ab057815f525f60205260405f20815f5260205260405f2060ff19815416905533917ff6391f5c32d9c69d2a47ea670b442974b53935d1edc7fd64eb21e047a839171b5f80a4600190565b60ff60015416611b3457565b60405163d93c066560e01b8152600490fd5b5f80516020611d588339815191526002815414611b635760029055565b604051633ee5aeb560e01b8152600490fd5b909161010081018051600281101561182557611c0657506020810151604090910151906001600160a01b0316803b1561059c57604051632142170760e11b81526001600160a01b03938416600482015293909216602484015260448301525f908290818381606481015b03925af18015611bfb57611bf05750565b611bf99061166f565b565b6040513d5f823e3d90fd5b51600281101561182557600103611c595760018060a01b036020820151166060604083015192015193813b1561059c575f8094611bdf60405197889687958694637921219560e11b865260048601611839565b604051639a9d6f4f60e01b8152600490fd5b604080516301ffc9a760e01b815263152a902d60e11b600482018190529495949193926001600160a01b031690602081602481855afa9081156112ca575f91611d38575b50611cc0575050505090505f905f90565b839291604491845197889485938452600484015260248301525afa928315611d2e575f915f94611cf1575b50509190565b8194508092503d8311611d27575b611d098183611683565b8101031261059c576020611d1c8361176e565b920151915f80611ceb565b503d611cff565b50513d5f823e3d90fd5b611d51915060203d60201161079e5761078f8183611683565b5f611caf56fe9b779b17422d0df92223018b32b4d1fa46e071723d6817e2486d003becc55f00a264697066735822122045deae5f9b91f646c56042eca38f1a1c43ae5644a6b636f289246b1713ea7ce764736f6c634300081800332f8788117e7eff1d82e926ec794901d17c78024a50270940304540a733656f0dad3228b676f7d3cd4284a5443f17f1962b36e491b30a40b2405849e597ba5fb5",
          "opcodes": "PUSH1 0x80 CALLVALUE PUSH3 0x13F JUMPI PUSH1 0x1F PUSH3 0x219E CODESIZE DUP2 SWAP1 SUB SWAP2 DUP3 ADD PUSH1 0x1F NOT AND DUP4 ADD SWAP2 SWAP1 PUSH1 0x1 PUSH1 0x1 PUSH1 0x40 SHL SUB DUP4 GT DUP5 DUP5 LT OR PUSH3 0x143 JUMPI DUP2 PUSH1 0x60 SWAP3 DUP6 SWAP3 PUSH1 0x40 SWAP6 DUP7 MSTORE DUP4 CODECOPY DUP2 ADD SUB SLT PUSH3 0x13F JUMPI PUSH3 0x50 DUP3 PUSH3 0x157 JUMP JUMPDEST DUP2 PUSH3 0x5F PUSH1 0x20 DUP6 ADD PUSH3 0x157 JUMP JUMPDEST SWAP4 ADD MLOAD PUSH1 0x1 PUSH1 0x1 PUSH1 0x60 SHL SUB DUP2 AND SWAP1 DUP2 SWAP1 SUB PUSH3 0x13F JUMPI PUSH1 0x1 PUSH32 0x9B779B17422D0DF92223018B32B4D1FA46E071723D6817E2486D003BECC55F00 SSTORE PUSH1 0x1 PUSH1 0x1 PUSH1 0xA0 SHL SUB DUP3 DUP2 AND ISZERO PUSH3 0x12E JUMPI DUP5 AND ISZERO PUSH3 0x11D JUMPI PUSH2 0x2710 DUP2 GT PUSH3 0x10C JUMPI PUSH3 0xFD SWAP3 SWAP4 PUSH1 0x1 DUP1 PUSH1 0x60 SHL SUB NOT SWAP1 PUSH1 0x60 SHL AND OR PUSH1 0x3 SSTORE PUSH3 0xDE DUP2 PUSH3 0x16C JUMP JUMPDEST POP PUSH3 0xEA DUP2 PUSH3 0x1DC JUMP JUMPDEST POP PUSH3 0xF6 DUP2 PUSH3 0x27C JUMP JUMPDEST POP PUSH3 0x316 JUMP JUMPDEST POP MLOAD PUSH2 0x1DAD SWAP1 DUP2 PUSH3 0x3B1 DUP3 CODECOPY RETURN JUMPDEST DUP3 MLOAD PUSH4 0x4A079FE9 PUSH1 0xE1 SHL DUP2 MSTORE PUSH1 0x4 SWAP1 REVERT JUMPDEST DUP3 MLOAD PUSH4 0xE6C4247B PUSH1 0xE0 SHL DUP2 MSTORE PUSH1 0x4 SWAP1 REVERT JUMPDEST DUP4 MLOAD PUSH4 0xE6C4247B PUSH1 0xE0 SHL DUP2 MSTORE PUSH1 0x4 SWAP1 REVERT JUMPDEST PUSH0 DUP1 REVERT JUMPDEST PUSH4 0x4E487B71 PUSH1 0xE0 SHL PUSH0 MSTORE PUSH1 0x41 PUSH1 0x4 MSTORE PUSH1 0x24 PUSH0 REVERT JUMPDEST MLOAD SWAP1 PUSH1 0x1 PUSH1 0x1 PUSH1 0xA0 SHL SUB DUP3 AND DUP3 SUB PUSH3 0x13F JUMPI JUMP JUMPDEST PUSH1 0x1 PUSH1 0x1 PUSH1 0xA0 SHL SUB AND PUSH0 DUP2 DUP2 MSTORE PUSH0 DUP1 MLOAD PUSH1 0x20 PUSH3 0x217E DUP4 CODECOPY DUP2 MLOAD SWAP2 MSTORE PUSH1 0x20 MSTORE PUSH1 0x40 SWAP1 KECCAK256 SLOAD PUSH1 0xFF AND PUSH3 0x1D7 JUMPI PUSH0 DUP2 DUP2 MSTORE PUSH0 DUP1 MLOAD PUSH1 0x20 PUSH3 0x217E DUP4 CODECOPY DUP2 MLOAD SWAP2 MSTORE PUSH1 0x20 MSTORE PUSH1 0x40 DUP2 KECCAK256 DUP1 SLOAD PUSH1 0xFF NOT AND PUSH1 0x1 OR SWAP1 SSTORE CALLER SWAP2 SWAP1 PUSH0 DUP1 MLOAD PUSH1 0x20 PUSH3 0x215E DUP4 CODECOPY DUP2 MLOAD SWAP2 MSTORE DUP2 DUP1 LOG4 PUSH1 0x1 SWAP1 JUMP JUMPDEST POP PUSH0 SWAP1 JUMP JUMPDEST PUSH1 0x1 PUSH1 0x1 PUSH1 0xA0 SHL SUB AND PUSH0 DUP2 DUP2 MSTORE PUSH32 0x7D7FFB7A348E1C6A02869081A26547B49160DD3DF72D1D75A570EB9B698292EC PUSH1 0x20 MSTORE PUSH1 0x40 SWAP1 KECCAK256 SLOAD PUSH32 0xA49807205CE4D355092EF5A8A18F56E8913CF4A201FBE287825B095693C21775 SWAP2 SWAP1 PUSH1 0xFF AND PUSH3 0x276 JUMPI DUP2 PUSH0 MSTORE PUSH0 PUSH1 0x20 MSTORE PUSH1 0x40 PUSH0 KECCAK256 DUP2 PUSH0 MSTORE PUSH1 0x20 MSTORE PUSH1 0x40 PUSH0 KECCAK256 PUSH1 0x1 PUSH1 0xFF NOT DUP3 SLOAD AND OR SWAP1 SSTORE CALLER SWAP2 PUSH0 DUP1 MLOAD PUSH1 0x20 PUSH3 0x215E DUP4 CODECOPY DUP2 MLOAD SWAP2 MSTORE PUSH0 DUP1 LOG4 PUSH1 0x1 SWAP1 JUMP JUMPDEST POP POP PUSH0 SWAP1 JUMP JUMPDEST PUSH1 0x1 PUSH1 0x1 PUSH1 0xA0 SHL SUB AND PUSH0 DUP2 DUP2 MSTORE PUSH32 0xF7C9542C591017A21C74B6F3FAB6263C7952FC0AAF9DB4C22A2A04DDC7F8674F PUSH1 0x20 MSTORE PUSH1 0x40 SWAP1 KECCAK256 SLOAD PUSH32 0x65D7A28E3265B37A6474929F336521B332C1681B933F6CB9F3376673440D862A SWAP2 SWAP1 PUSH1 0xFF AND PUSH3 0x276 JUMPI DUP2 PUSH0 MSTORE PUSH0 PUSH1 0x20 MSTORE PUSH1 0x40 PUSH0 KECCAK256 DUP2 PUSH0 MSTORE PUSH1 0x20 MSTORE PUSH1 0x40 PUSH0 KECCAK256 PUSH1 0x1 PUSH1 0xFF NOT DUP3 SLOAD AND OR SWAP1 SSTORE CALLER SWAP2 PUSH0 DUP1 MLOAD PUSH1 0x20 PUSH3 0x215E DUP4 CODECOPY DUP2 MLOAD SWAP2 MSTORE PUSH0 DUP1 LOG4 PUSH1 0x1 SWAP1 JUMP JUMPDEST PUSH1 0x1 PUSH1 0x1 PUSH1 0xA0 SHL SUB AND PUSH0 DUP2 DUP2 MSTORE PUSH32 0xEE57CD81E84075558E8FCC182A1F4393F91FC97F963A136E66B7F949A62F319F PUSH1 0x20 MSTORE PUSH1 0x40 SWAP1 KECCAK256 SLOAD PUSH32 0x97667070C54EF182B0F5858B034BEAC1B6F3089AA2D3188BB1E8929F4FA9B929 SWAP2 SWAP1 PUSH1 0xFF AND PUSH3 0x276 JUMPI DUP2 PUSH0 MSTORE PUSH0 PUSH1 0x20 MSTORE PUSH1 0x40 PUSH0 KECCAK256 DUP2 PUSH0 MSTORE PUSH1 0x20 MSTORE PUSH1 0x40 PUSH0 KECCAK256 PUSH1 0x1 PUSH1 0xFF NOT DUP3 SLOAD AND OR SWAP1 SSTORE CALLER SWAP2 PUSH0 DUP1 MLOAD PUSH1 0x20 PUSH3 0x215E DUP4 CODECOPY DUP2 MLOAD SWAP2 MSTORE PUSH0 DUP1 LOG4 PUSH1 0x1 SWAP1 JUMP INVALID PUSH1 0x80 PUSH1 0x40 DUP2 DUP2 MSTORE PUSH1 0x4 SWAP2 DUP3 CALLDATASIZE LT ISZERO PUSH2 0x21 JUMPI JUMPDEST POP POP POP CALLDATASIZE ISZERO PUSH2 0x1F JUMPI PUSH0 DUP1 REVERT JUMPDEST STOP JUMPDEST PUSH0 SWAP3 PUSH0 CALLDATALOAD PUSH1 0xE0 SHR SWAP2 DUP3 PUSH4 0x1FFC9A7 EQ PUSH2 0x158C JUMPI POP DUP2 PUSH4 0xF6835B8 EQ PUSH2 0x1539 JUMPI DUP2 PUSH4 0x150B7A02 EQ PUSH2 0x14E6 JUMPI DUP2 PUSH4 0x248A9CA3 EQ PUSH2 0x14BD JUMPI DUP2 PUSH4 0x2F2FF15D EQ PUSH2 0x1484 JUMPI DUP2 PUSH4 0x319E991E EQ PUSH2 0x13F8 JUMPI DUP2 PUSH4 0x36568ABE EQ PUSH2 0x13B4 JUMPI DUP2 PUSH4 0x3F4BA83A EQ PUSH2 0x134D JUMPI DUP2 PUSH4 0x4A3F0BF9 EQ PUSH2 0x12E2 JUMPI DUP2 PUSH4 0x5280AF1D EQ PUSH2 0xFD2 JUMPI DUP2 PUSH4 0x5C975ABB EQ PUSH2 0xFAE JUMPI DUP2 PUSH4 0x61D027B3 EQ PUSH2 0xF8C JUMPI DUP2 PUSH4 0x75B238FC EQ PUSH2 0xF51 JUMPI DUP2 PUSH4 0x8456CB59 EQ PUSH2 0xEF7 JUMPI DUP2 PUSH4 0x91D14854 EQ PUSH2 0xEB4 JUMPI DUP2 PUSH4 0x964BC33F EQ PUSH2 0xD8F JUMPI DUP2 PUSH4 0xA217FDDF EQ PUSH2 0xD74 JUMPI DUP2 PUSH4 0xA52C428D EQ PUSH2 0xCFF JUMPI DUP2 PUSH4 0xA8F46F53 EQ PUSH2 0xC0A JUMPI DUP2 PUSH4 0xAACCF1EC EQ PUSH2 0xBEB JUMPI DUP2 PUSH4 0xB74FB316 EQ PUSH2 0xBCE JUMPI DUP2 PUSH4 0xBC197C81 EQ PUSH2 0xB47 JUMPI DUP2 PUSH4 0xCD107440 EQ PUSH2 0xA69 JUMPI DUP2 PUSH4 0xD3929C8A EQ PUSH2 0xA41 JUMPI DUP2 PUSH4 0xD547741F EQ PUSH2 0xA02 JUMPI DUP2 PUSH4 0xD96A094A EQ PUSH2 0x864 JUMPI DUP2 PUSH4 0xDE74E57B EQ PUSH2 0x7B3 JUMPI DUP2 PUSH4 0xDF29B982 EQ PUSH2 0x6B9 JUMPI DUP2 PUSH4 0xE63AB1E9 EQ PUSH2 0x67E JUMPI DUP2 PUSH4 0xE8D9B52F EQ PUSH2 0x2C9 JUMPI DUP2 PUSH4 0xF0F44260 EQ PUSH2 0x231 JUMPI DUP2 PUSH4 0xF23A6E61 EQ PUSH2 0x1D8 JUMPI POP PUSH4 0xF5B541A6 EQ PUSH2 0x19B JUMPI DUP1 PUSH2 0x12 JUMP JUMPDEST CALLVALUE PUSH2 0x1D4 JUMPI DUP2 PUSH1 0x3 NOT CALLDATASIZE ADD SLT PUSH2 0x1D4 JUMPI PUSH1 0x20 SWAP1 MLOAD PUSH32 0x97667070C54EF182B0F5858B034BEAC1B6F3089AA2D3188BB1E8929F4FA9B929 DUP2 MSTORE RETURN JUMPDEST POP DUP1 REVERT JUMPDEST DUP3 DUP5 CALLVALUE PUSH2 0x22E JUMPI PUSH1 0xA0 CALLDATASIZE PUSH1 0x3 NOT ADD SLT PUSH2 0x22E JUMPI PUSH2 0x1F3 PUSH2 0x1612 JUMP JUMPDEST POP PUSH2 0x1FC PUSH2 0x1628 JUMP JUMPDEST POP PUSH1 0x84 CALLDATALOAD SWAP1 PUSH8 0xFFFFFFFFFFFFFFFF DUP3 GT PUSH2 0x22E JUMPI POP PUSH1 0x20 SWAP3 PUSH2 0x220 SWAP2 CALLDATASIZE SWAP2 ADD PUSH2 0x16C1 JUMP JUMPDEST POP MLOAD PUSH4 0xF23A6E61 PUSH1 0xE0 SHL DUP2 MSTORE RETURN JUMPDEST DUP1 REVERT JUMPDEST DUP4 DUP4 CALLVALUE PUSH2 0x1D4 JUMPI PUSH1 0x20 CALLDATASIZE PUSH1 0x3 NOT ADD SLT PUSH2 0x1D4 JUMPI PUSH2 0x24C PUSH2 0x1612 JUMP JUMPDEST PUSH2 0x254 PUSH2 0x1891 JUMP JUMPDEST PUSH1 0x1 PUSH1 0x1 PUSH1 0xA0 SHL SUB DUP2 AND DUP1 ISZERO PUSH2 0x2B9 JUMPI PUSH32 0x4AB5BE82436D353E61CA18726E984E561F5C1CC7C6D38B29D2553C790434705A SWAP4 SWAP5 POP PUSH1 0x3 SLOAD SWAP2 PUSH1 0x1 PUSH1 0x1 PUSH1 0x60 SHL SUB NOT SWAP1 PUSH1 0x60 SHL AND PUSH1 0x1 PUSH1 0x1 PUSH1 0x60 SHL SUB DUP4 AND OR PUSH1 0x3 SSTORE DUP3 MLOAD SWAP2 PUSH1 0x60 SHR DUP3 MSTORE PUSH1 0x20 DUP3 ADD MSTORE LOG1 DUP1 RETURN JUMPDEST DUP3 MLOAD PUSH4 0xE6C4247B PUSH1 0xE0 SHL DUP2 MSTORE DUP6 SWAP1 REVERT JUMPDEST DUP4 SWAP2 POP CALLVALUE PUSH2 0x1D4 JUMPI PUSH1 0x80 CALLDATASIZE PUSH1 0x3 NOT ADD SLT PUSH2 0x1D4 JUMPI PUSH2 0x2E5 PUSH2 0x1612 JUMP JUMPDEST SWAP3 PUSH1 0x24 CALLDATALOAD SWAP1 PUSH1 0x64 CALLDATALOAD SWAP1 PUSH1 0x44 CALLDATALOAD PUSH2 0x2F9 PUSH2 0x1B28 JUMP JUMPDEST PUSH2 0x301 PUSH2 0x1B46 JUMP JUMPDEST DUP3 ISZERO PUSH2 0x66F JUMPI DUP1 ISZERO PUSH2 0x65F JUMPI DUP2 MLOAD PUSH3 0x7EEAC7 PUSH1 0xE1 SHL DUP1 DUP3 MSTORE CALLER DUP3 DUP9 ADD SWAP1 DUP2 MSTORE PUSH1 0x20 DUP2 DUP2 ADD DUP9 SWAP1 MSTORE PUSH1 0x1 PUSH1 0x1 PUSH1 0xA0 SHL SUB SWAP11 DUP12 AND SWAP9 SWAP1 SWAP4 SWAP1 SWAP3 SWAP2 DUP5 SWAP1 DUP3 SWAP1 DUP2 SWAP1 PUSH1 0x40 ADD SUB DUP2 DUP13 GAS STATICCALL SWAP1 DUP2 ISZERO PUSH2 0x655 JUMPI SWAP1 DUP6 SWAP2 DUP12 SWAP2 PUSH2 0x624 JUMPI JUMPDEST POP LT PUSH2 0x615 JUMPI DUP9 DUP9 SWAP10 SWAP11 DUP5 DUP10 DUP10 DUP10 PUSH1 0x2 SWAP14 SWAP13 SWAP14 SLOAD SWAP13 DUP14 SWAP6 PUSH2 0x378 DUP8 PUSH2 0x1782 JUMP JUMPDEST PUSH1 0x2 SSTORE DUP3 MLOAD SWAP5 PUSH2 0x387 DUP7 PUSH2 0x163E JUMP JUMPDEST DUP8 DUP7 MSTORE DUP7 DUP7 ADD SWAP3 DUP4 MSTORE DUP4 DUP7 ADD SWAP1 DUP2 MSTORE PUSH1 0x60 DUP7 ADD SWAP1 DUP14 DUP3 MSTORE PUSH1 0x80 DUP8 ADD SWAP5 CALLER DUP7 MSTORE PUSH1 0xA0 DUP9 ADD SWAP7 DUP8 MSTORE PUSH1 0xC0 DUP9 ADD SWAP11 PUSH1 0x1 DUP13 MSTORE DUP14 PUSH1 0xE0 DUP11 ADD SWAP11 DUP3 DUP13 MSTORE PUSH2 0x100 DUP12 ADD SWAP13 PUSH1 0x1 DUP15 MSTORE DUP4 MSTORE MSTORE KECCAK256 SWAP7 MLOAD DUP8 SSTORE DUP3 PUSH1 0x1 DUP9 ADD SWAP5 MLOAD AND SWAP4 PUSH1 0x1 PUSH1 0x1 PUSH1 0x60 SHL SUB PUSH1 0xA0 SHL SWAP5 DUP6 DUP3 SLOAD AND OR SWAP1 SSTORE MLOAD PUSH1 0x2 DUP8 ADD SSTORE MLOAD PUSH1 0x3 DUP7 ADD SSTORE DUP10 DUP6 ADD SWAP3 MLOAD AND SWAP1 DUP3 SLOAD AND OR SWAP1 SSTORE MLOAD PUSH1 0x5 DUP3 ADD SSTORE PUSH1 0x6 ADD SWAP3 MLOAD ISZERO ISZERO PUSH2 0x429 SWAP1 DUP5 SWAP1 PUSH1 0xFF DUP1 NOT DUP4 SLOAD AND SWAP2 ISZERO ISZERO AND OR SWAP1 SSTORE JUMP JUMPDEST MLOAD DUP3 SLOAD PUSH2 0xFF00 NOT AND SWAP1 ISZERO ISZERO PUSH1 0x8 SHL PUSH2 0xFF00 AND OR DUP3 SSTORE MLOAD PUSH1 0x2 DUP2 LT ISZERO PUSH2 0x602 JUMPI DUP2 SLOAD PUSH3 0xFF0000 NOT AND PUSH1 0x10 SWAP2 SWAP1 SWAP2 SHL PUSH3 0xFF0000 AND OR SWAP1 SSTORE DUP5 MLOAD DUP2 DUP2 MSTORE ADDRESS DUP4 DUP3 ADD SWAP1 DUP2 MSTORE PUSH1 0x20 DUP2 ADD DUP11 SWAP1 MSTORE SWAP1 SWAP2 SWAP1 DUP5 SWAP1 DUP4 SWAP1 DUP2 SWAP1 PUSH1 0x40 ADD SUB DUP2 DUP14 GAS STATICCALL SWAP2 DUP3 ISZERO PUSH2 0x5A7 JUMPI DUP12 SWAP3 PUSH2 0x5D3 JUMPI JUMPDEST POP DUP10 EXTCODESIZE ISZERO PUSH2 0x5C5 JUMPI DUP11 PUSH2 0x4BF DUP2 DUP8 DUP14 DUP14 DUP4 DUP13 MLOAD DUP1 SWAP7 DUP2 SWAP6 DUP3 SWAP5 PUSH4 0x79212195 PUSH1 0xE1 SHL DUP5 MSTORE DUP14 ADDRESS SWAP1 CALLER SWAP1 DUP7 ADD PUSH2 0x1839 JUMP JUMPDEST SUB SWAP3 GAS CALL DUP1 ISZERO PUSH2 0x5C9 JUMPI PUSH2 0x5B1 JUMPI JUMPDEST POP POP DUP6 MLOAD SWAP1 DUP2 MSTORE ADDRESS DUP4 DUP3 ADD SWAP1 DUP2 MSTORE PUSH1 0x20 DUP2 ADD DUP11 SWAP1 MSTORE DUP5 SWAP1 DUP3 SWAP1 DUP2 SWAP1 PUSH1 0x40 ADD SUB DUP2 DUP14 GAS STATICCALL SWAP1 DUP2 ISZERO PUSH2 0x5A7 JUMPI SWAP1 DUP6 SWAP3 SWAP2 DUP13 SWAP2 PUSH2 0x56E JUMPI JUMPDEST POP SWAP1 PUSH2 0x50E SWAP2 PUSH2 0x186C JUMP JUMPDEST SUB PUSH2 0x560 JUMPI POP DUP3 MLOAD SWAP6 DUP7 MSTORE DUP6 ADD MSTORE DUP4 ADD MSTORE PUSH1 0x1 PUSH1 0x60 DUP4 ADD MSTORE PUSH32 0x4339A90322FAA2FB5B15A3A9E23156A23C97893E4618A34BC7ED68B582BD4A4 PUSH1 0x80 CALLER SWAP4 LOG4 PUSH1 0x1 PUSH0 DUP1 MLOAD PUSH1 0x20 PUSH2 0x1D58 DUP4 CODECOPY DUP2 MLOAD SWAP2 MSTORE SSTORE DUP1 RETURN JUMPDEST DUP4 MLOAD PUSH4 0x12171D83 PUSH1 0xE3 SHL DUP2 MSTORE REVERT JUMPDEST DUP1 SWAP3 SWAP4 POP DUP6 DUP1 SWAP3 POP RETURNDATASIZE DUP4 GT PUSH2 0x5A0 JUMPI JUMPDEST PUSH2 0x588 DUP2 DUP4 PUSH2 0x1683 JUMP JUMPDEST DUP2 ADD SUB SLT PUSH2 0x59C JUMPI MLOAD DUP5 SWAP2 SWAP1 PUSH2 0x50E PUSH2 0x503 JUMP JUMPDEST PUSH0 DUP1 REVERT JUMPDEST POP RETURNDATASIZE PUSH2 0x57E JUMP JUMPDEST DUP7 MLOAD RETURNDATASIZE DUP14 DUP3 RETURNDATACOPY RETURNDATASIZE SWAP1 REVERT JUMPDEST PUSH2 0x5BA SWAP1 PUSH2 0x166F JUMP JUMPDEST PUSH2 0x5C5 JUMPI DUP11 DUP13 PUSH2 0x4CE JUMP JUMPDEST DUP11 DUP1 REVERT JUMPDEST DUP9 MLOAD RETURNDATASIZE DUP5 DUP3 RETURNDATACOPY RETURNDATASIZE SWAP1 REVERT JUMPDEST SWAP1 SWAP2 POP DUP4 DUP2 DUP2 RETURNDATASIZE DUP4 GT PUSH2 0x5FB JUMPI JUMPDEST PUSH2 0x5EB DUP2 DUP4 PUSH2 0x1683 JUMP JUMPDEST DUP2 ADD SUB SLT PUSH2 0x59C JUMPI MLOAD SWAP1 DUP12 PUSH2 0x490 JUMP JUMPDEST POP RETURNDATASIZE PUSH2 0x5E1 JUMP JUMPDEST PUSH4 0x4E487B71 PUSH1 0xE0 SHL DUP13 MSTORE PUSH1 0x21 DUP5 MSTORE PUSH1 0x24 DUP13 REVERT JUMPDEST POP DUP4 MLOAD PUSH4 0xCA5AE8A3 PUSH1 0xE0 SHL DUP2 MSTORE REVERT JUMPDEST DUP1 SWAP3 POP DUP6 DUP1 SWAP3 POP RETURNDATASIZE DUP4 GT PUSH2 0x64E JUMPI JUMPDEST PUSH2 0x63D DUP2 DUP4 PUSH2 0x1683 JUMP JUMPDEST DUP2 ADD SUB SLT PUSH2 0x59C JUMPI DUP5 SWAP1 MLOAD DUP13 PUSH2 0x358 JUMP JUMPDEST POP RETURNDATASIZE PUSH2 0x633 JUMP JUMPDEST DUP7 MLOAD RETURNDATASIZE DUP13 DUP3 RETURNDATACOPY RETURNDATASIZE SWAP1 REVERT JUMPDEST DUP2 MLOAD PUSH4 0x162908E3 PUSH1 0xE1 SHL DUP2 MSTORE DUP6 SWAP1 REVERT JUMPDEST DUP2 MLOAD PUSH3 0xBFC921 PUSH1 0xE0 SHL DUP2 MSTORE DUP6 SWAP1 REVERT JUMPDEST POP POP CALLVALUE PUSH2 0x1D4 JUMPI DUP2 PUSH1 0x3 NOT CALLDATASIZE ADD SLT PUSH2 0x1D4 JUMPI PUSH1 0x20 SWAP1 MLOAD PUSH32 0x65D7A28E3265B37A6474929F336521B332C1681B933F6CB9F3376673440D862A DUP2 MSTORE RETURN JUMPDEST SWAP1 POP CALLVALUE PUSH2 0x7AF JUMPI DUP2 PUSH1 0x3 NOT CALLDATASIZE ADD SLT PUSH2 0x7AF JUMPI PUSH2 0x6D3 PUSH2 0x1612 JUMP JUMPDEST PUSH2 0x70E PUSH1 0x20 PUSH1 0x24 CALLDATALOAD DUP1 SWAP5 PUSH2 0x6E5 PUSH2 0x1891 JUMP JUMPDEST DUP7 MLOAD PUSH4 0xA9059CBB PUSH1 0xE0 SHL DUP2 MSTORE CALLER SWAP2 DUP2 ADD SWAP2 DUP3 MSTORE PUSH1 0x20 DUP3 ADD SWAP3 SWAP1 SWAP3 MSTORE SWAP1 SWAP3 DUP4 SWAP2 DUP3 SWAP2 PUSH1 0x40 SWAP1 SWAP2 ADD SWAP1 JUMP JUMPDEST SUB DUP2 DUP9 PUSH1 0x1 PUSH1 0x1 PUSH1 0xA0 SHL SUB DUP8 AND GAS CALL DUP1 ISZERO PUSH2 0x7A5 JUMPI SWAP4 PUSH2 0x770 SWAP2 PUSH32 0x3D5112FD88BB733A9B31D13CA8B164627BE30715DBCD38969B1039A40EBEE22F SWAP6 PUSH2 0x776 JUMPI JUMPDEST POP MLOAD PUSH1 0x1 PUSH1 0x1 PUSH1 0xA0 SHL SUB SWAP1 SWAP3 AND DUP3 MSTORE PUSH1 0x20 DUP3 ADD SWAP3 SWAP1 SWAP3 MSTORE SWAP1 DUP2 SWAP1 PUSH1 0x40 DUP3 ADD SWAP1 JUMP JUMPDEST SUB SWAP1 LOG1 DUP1 RETURN JUMPDEST PUSH2 0x797 SWAP1 PUSH1 0x20 RETURNDATASIZE PUSH1 0x20 GT PUSH2 0x79E JUMPI JUMPDEST PUSH2 0x78F DUP2 DUP4 PUSH2 0x1683 JUMP JUMPDEST DUP2 ADD SWAP1 PUSH2 0x1879 JUMP JUMPDEST POP PUSH0 PUSH2 0x74F JUMP JUMPDEST POP RETURNDATASIZE PUSH2 0x785 JUMP JUMPDEST DUP5 MLOAD RETURNDATASIZE DUP8 DUP3 RETURNDATACOPY RETURNDATASIZE SWAP1 REVERT JUMPDEST DUP3 DUP1 REVERT JUMPDEST DUP3 DUP5 CALLVALUE PUSH2 0x22E JUMPI PUSH1 0x20 CALLDATASIZE PUSH1 0x3 NOT ADD SLT PUSH2 0x22E JUMPI DUP2 SWAP1 DUP4 CALLDATALOAD DUP2 MSTORE DUP4 PUSH1 0x20 MSTORE KECCAK256 PUSH1 0xFF DUP2 SLOAD SWAP3 PUSH1 0x1 DUP1 PUSH1 0xA0 SHL SUB SWAP3 DUP4 PUSH1 0x1 DUP3 ADD SLOAD AND SWAP4 PUSH1 0x2 DUP3 ADD SLOAD SWAP1 PUSH1 0x3 DUP4 ADD SLOAD SWAP1 DUP9 DUP5 ADD SLOAD AND SWAP2 PUSH1 0x6 PUSH1 0x5 DUP6 ADD SLOAD SWAP5 ADD SLOAD SWAP5 DUP7 DUP7 PUSH1 0x10 SHR AND SWAP8 DUP2 MLOAD SWAP10 DUP11 MSTORE PUSH1 0x20 DUP11 ADD MSTORE DUP9 ADD MSTORE PUSH1 0x60 DUP8 ADD MSTORE PUSH1 0x80 DUP7 ADD MSTORE PUSH1 0xA0 DUP6 ADD MSTORE DUP2 DUP2 AND ISZERO ISZERO PUSH1 0xC0 DUP6 ADD MSTORE PUSH1 0x8 SHR AND ISZERO ISZERO PUSH1 0xE0 DUP4 ADD MSTORE PUSH1 0x2 DUP2 LT ISZERO PUSH2 0x851 JUMPI PUSH2 0x120 SWAP3 POP PUSH2 0x100 DUP3 ADD MSTORE RETURN JUMPDEST PUSH1 0x21 DUP4 PUSH4 0x4E487B71 PUSH1 0xE0 SHL PUSH0 MSTORE MSTORE PUSH1 0x24 PUSH0 REVERT JUMPDEST SWAP1 POP PUSH1 0x20 CALLDATASIZE PUSH1 0x3 NOT ADD SLT PUSH2 0x7AF JUMPI DUP1 CALLDATALOAD SWAP1 PUSH2 0x87D PUSH2 0x1B28 JUMP JUMPDEST PUSH2 0x885 PUSH2 0x1B46 JUMP JUMPDEST DUP2 DUP5 MSTORE DUP1 PUSH1 0x20 MSTORE DUP3 DUP5 KECCAK256 PUSH1 0x6 DUP2 ADD SWAP2 DUP3 SLOAD SWAP1 PUSH1 0xFF DUP3 AND ISZERO PUSH2 0x9F4 JUMPI PUSH1 0xFF DUP3 PUSH1 0x8 SHR AND PUSH2 0x9E6 JUMPI PUSH1 0x5 DUP4 ADD SWAP4 DUP5 SLOAD SWAP3 DUP4 CALLVALUE SUB PUSH2 0x9D6 JUMPI PUSH1 0xFF NOT AND SWAP1 SSTORE PUSH1 0x1 DUP4 ADD SLOAD PUSH1 0x2 DUP5 ADD SLOAD PUSH1 0x1 PUSH1 0x1 PUSH1 0xA0 SHL SUB SWAP3 SWAP2 PUSH2 0x8E1 SWAP2 DUP6 SWAP2 DUP6 AND PUSH2 0x1C6B JUMP JUMPDEST SWAP4 PUSH1 0x1 PUSH1 0x1 PUSH1 0x60 SHL SUB PUSH1 0x3 SLOAD AND DUP1 DUP3 MUL SWAP1 DUP3 DUP3 DIV EQ DUP3 ISZERO OR ISZERO PUSH2 0x9C3 JUMPI SWAP3 DUP6 PUSH2 0x94C SWAP7 SWAP4 PUSH2 0x926 PUSH2 0x953 SWAP10 SWAP8 SWAP5 PUSH2 0x921 PUSH2 0x2710 PUSH2 0x947 SWAP10 DIV SWAP5 DUP6 SWAP3 PUSH2 0x186C JUMP JUMPDEST PUSH2 0x186C JUMP JUMPDEST SWAP5 DUP1 ISZERO ISZERO DUP1 PUSH2 0x9B8 JUMPI JUMPDEST PUSH2 0x9A8 JUMPI JUMPDEST POP POP DUP1 PUSH2 0x993 JUMPI JUMPDEST POP DUP5 ADD SLOAD AND PUSH2 0x19E1 JUMP JUMPDEST PUSH2 0x17A4 JUMP JUMPDEST CALLER ADDRESS PUSH2 0x1B75 JUMP JUMPDEST SLOAD SWAP2 MLOAD SWAP2 DUP3 MSTORE PUSH32 0xFD51B2C9F55C42D2B72AC683526519563BE02FC0107F034FF430C05185FF1B66 PUSH1 0x20 CALLER SWAP4 LOG3 PUSH1 0x1 PUSH0 DUP1 MLOAD PUSH1 0x20 PUSH2 0x1D58 DUP4 CODECOPY DUP2 MLOAD SWAP2 MSTORE SSTORE DUP1 RETURN JUMPDEST PUSH2 0x9A2 SWAP1 PUSH1 0x3 SLOAD PUSH1 0x60 SHR PUSH2 0x19E1 JUMP JUMPDEST PUSH0 PUSH2 0x93D JUMP JUMPDEST PUSH2 0x9B1 SWAP2 PUSH2 0x19E1 JUMP JUMPDEST PUSH0 DUP1 PUSH2 0x935 JUMP JUMPDEST POP DUP5 DUP3 AND ISZERO ISZERO PUSH2 0x930 JUMP JUMPDEST PUSH4 0x4E487B71 PUSH1 0xE0 SHL DUP12 MSTORE PUSH1 0x11 DUP5 MSTORE PUSH1 0x24 DUP12 REVERT JUMPDEST DUP8 MLOAD PUSH4 0x7E2897EF PUSH1 0xE1 SHL DUP2 MSTORE DUP4 SWAP1 REVERT JUMPDEST DUP6 MLOAD PUSH4 0x3DE8EDD1 PUSH1 0xE1 SHL DUP2 MSTORE REVERT JUMPDEST DUP6 MLOAD PUSH4 0x1A319FF9 PUSH1 0xE3 SHL DUP2 MSTORE REVERT JUMPDEST SWAP2 SWAP1 POP CALLVALUE PUSH2 0x7AF JUMPI DUP1 PUSH1 0x3 NOT CALLDATASIZE ADD SLT PUSH2 0x7AF JUMPI PUSH2 0xA3D SWAP2 CALLDATALOAD PUSH2 0xA38 PUSH1 0x1 PUSH2 0xA27 PUSH2 0x1628 JUMP JUMPDEST SWAP4 DUP4 DUP8 MSTORE DUP7 PUSH1 0x20 MSTORE DUP7 KECCAK256 ADD SLOAD PUSH2 0x19C0 JUMP JUMPDEST PUSH2 0x1AB6 JUMP JUMPDEST POP DUP1 RETURN JUMPDEST POP POP CALLVALUE PUSH2 0x1D4 JUMPI DUP2 PUSH1 0x3 NOT CALLDATASIZE ADD SLT PUSH2 0x1D4 JUMPI PUSH1 0x20 SWAP1 PUSH1 0x1 PUSH1 0x1 PUSH1 0x60 SHL SUB PUSH1 0x3 SLOAD AND SWAP1 MLOAD SWAP1 DUP2 MSTORE RETURN JUMPDEST SWAP1 POP CALLVALUE PUSH2 0x7AF JUMPI PUSH1 0x80 CALLDATASIZE PUSH1 0x3 NOT ADD SLT PUSH2 0x7AF JUMPI PUSH2 0xA84 PUSH2 0x1612 JUMP JUMPDEST PUSH1 0x44 CALLDATALOAD SWAP1 PUSH1 0x24 CALLDATALOAD SWAP1 PUSH1 0x64 CALLDATALOAD PUSH1 0x1 PUSH1 0x1 PUSH1 0xA0 SHL SUB DUP1 DUP3 AND DUP3 SUB PUSH2 0x59C JUMPI DUP8 SWAP3 PUSH2 0xAAA PUSH2 0x1891 JUMP JUMPDEST AND SWAP5 DUP6 EXTCODESIZE ISZERO PUSH2 0x7AF JUMPI DUP4 SWAP2 DUP4 SWAP2 PUSH2 0xAD5 DUP8 DUP11 MLOAD SWAP6 DUP7 SWAP5 DUP6 SWAP5 PUSH4 0x79212195 PUSH1 0xE1 SHL DUP7 MSTORE ADDRESS SWAP1 DUP7 ADD PUSH2 0x1839 JUMP JUMPDEST SUB DUP2 DUP4 DUP10 GAS CALL DUP1 ISZERO PUSH2 0xB3D JUMPI PUSH2 0xB1F JUMPI JUMPDEST POP SWAP3 PUSH32 0x85236991FBA27D2A7BC4F19AB7478DA4EEF13BF07129D2F561942E05383F4E5 SWAP3 DUP6 PUSH1 0x60 SWAP4 DUP2 MLOAD SWAP4 DUP5 MSTORE PUSH1 0x20 DUP5 ADD MSTORE DUP3 ADD MSTORE LOG1 DUP1 RETURN JUMPDEST PUSH2 0xB2C SWAP1 SWAP5 SWAP4 SWAP3 SWAP5 PUSH2 0x166F JUMP JUMPDEST PUSH2 0xB39 JUMPI SWAP1 SWAP2 DUP5 PUSH0 PUSH2 0xAE6 JUMP JUMPDEST DUP5 DUP1 REVERT JUMPDEST DUP7 MLOAD RETURNDATASIZE DUP5 DUP3 RETURNDATACOPY RETURNDATASIZE SWAP1 REVERT JUMPDEST DUP3 DUP5 CALLVALUE PUSH2 0x22E JUMPI PUSH1 0xA0 CALLDATASIZE PUSH1 0x3 NOT ADD SLT PUSH2 0x22E JUMPI PUSH2 0xB62 PUSH2 0x1612 JUMP JUMPDEST POP PUSH2 0xB6B PUSH2 0x1628 JUMP JUMPDEST POP PUSH8 0xFFFFFFFFFFFFFFFF SWAP1 PUSH1 0x44 CALLDATALOAD DUP3 DUP2 GT PUSH2 0x1D4 JUMPI PUSH2 0xB8D SWAP1 CALLDATASIZE SWAP1 DUP7 ADD PUSH2 0x1707 JUMP JUMPDEST POP PUSH1 0x64 CALLDATALOAD DUP3 DUP2 GT PUSH2 0x1D4 JUMPI PUSH2 0xBA5 SWAP1 CALLDATASIZE SWAP1 DUP7 ADD PUSH2 0x1707 JUMP JUMPDEST POP PUSH1 0x84 CALLDATALOAD SWAP2 DUP3 GT PUSH2 0x22E JUMPI POP PUSH1 0x20 SWAP3 PUSH2 0xBC0 SWAP2 CALLDATASIZE SWAP2 ADD PUSH2 0x16C1 JUMP JUMPDEST POP MLOAD PUSH4 0xBC197C81 PUSH1 0xE0 SHL DUP2 MSTORE RETURN JUMPDEST POP POP CALLVALUE PUSH2 0x1D4 JUMPI DUP2 PUSH1 0x3 NOT CALLDATASIZE ADD SLT PUSH2 0x1D4 JUMPI PUSH1 0x20 SWAP1 MLOAD PUSH2 0x2710 DUP2 MSTORE RETURN JUMPDEST POP POP CALLVALUE PUSH2 0x1D4 JUMPI DUP2 PUSH1 0x3 NOT CALLDATASIZE ADD SLT PUSH2 0x1D4 JUMPI PUSH1 0x20 SWAP1 PUSH1 0x2 SLOAD SWAP1 MLOAD SWAP1 DUP2 MSTORE RETURN JUMPDEST SWAP1 POP CALLVALUE PUSH2 0x7AF JUMPI PUSH1 0x60 CALLDATASIZE PUSH1 0x3 NOT ADD SLT PUSH2 0x7AF JUMPI PUSH2 0xC25 PUSH2 0x1612 JUMP JUMPDEST PUSH1 0x24 CALLDATALOAD SWAP2 PUSH1 0x1 PUSH1 0x1 PUSH1 0xA0 SHL SUB SWAP1 PUSH1 0x44 CALLDATALOAD DUP3 DUP2 AND DUP2 SUB PUSH2 0x59C JUMPI DUP7 SWAP3 PUSH2 0xC48 PUSH2 0x1891 JUMP JUMPDEST DUP5 AND SWAP2 DUP3 EXTCODESIZE ISZERO PUSH2 0xCF1 JUMPI DUP7 MLOAD PUSH4 0x21421707 PUSH1 0xE1 SHL DUP2 MSTORE ADDRESS SWAP2 DUP2 ADD SWAP2 DUP3 MSTORE PUSH1 0x1 PUSH1 0x1 PUSH1 0xA0 SHL SUB SWAP1 SWAP3 AND PUSH1 0x20 DUP3 ADD MSTORE PUSH1 0x40 DUP2 ADD DUP7 SWAP1 MSTORE SWAP1 SWAP2 DUP4 SWAP2 DUP4 SWAP2 SWAP1 DUP3 SWAP1 DUP5 SWAP1 DUP3 SWAP1 PUSH1 0x60 ADD SUB SWAP3 GAS CALL DUP1 ISZERO PUSH2 0xCF5 JUMPI PUSH2 0xCDD JUMPI JUMPDEST POP POP SWAP2 MLOAD PUSH1 0x1 PUSH1 0x1 PUSH1 0xA0 SHL SUB SWAP1 SWAP3 AND DUP3 MSTORE PUSH1 0x20 DUP3 ADD MSTORE PUSH32 0xC824D299B998C4D0A115139E69B35F5762DE26537A4D7CC3577705834A10E14 SWAP1 DUP1 PUSH1 0x40 DUP2 ADD PUSH2 0x770 JUMP JUMPDEST PUSH2 0xCE6 SWAP1 PUSH2 0x166F JUMP JUMPDEST PUSH2 0xCF1 JUMPI DUP4 PUSH0 PUSH2 0xC9B JUMP JUMPDEST DUP4 DUP1 REVERT JUMPDEST DUP6 MLOAD RETURNDATASIZE DUP5 DUP3 RETURNDATACOPY RETURNDATASIZE SWAP1 REVERT JUMPDEST SWAP1 POP CALLVALUE PUSH2 0x7AF JUMPI PUSH1 0x20 CALLDATASIZE PUSH1 0x3 NOT ADD SLT PUSH2 0x7AF JUMPI DUP1 CALLDATALOAD SWAP2 PUSH2 0xD1D PUSH2 0x1965 JUMP JUMPDEST DUP3 DUP5 MSTORE DUP2 PUSH1 0x20 MSTORE PUSH1 0x6 DUP2 DUP6 KECCAK256 ADD SWAP2 DUP3 SLOAD SWAP2 PUSH1 0xFF DUP4 AND ISZERO PUSH2 0xD67 JUMPI POP POP PUSH2 0xFF00 NOT AND SWAP1 SSTORE PUSH32 0x3240783F91EE584BA7DDB79FD08CF5D412E5E67754EDFBF0DF5448F97807DEEE DUP3 DUP1 LOG2 DUP1 RETURN JUMPDEST MLOAD PUSH4 0x1A319FF9 PUSH1 0xE3 SHL DUP2 MSTORE REVERT JUMPDEST POP POP CALLVALUE PUSH2 0x1D4 JUMPI DUP2 PUSH1 0x3 NOT CALLDATASIZE ADD SLT PUSH2 0x1D4 JUMPI MLOAD SWAP1 DUP2 MSTORE PUSH1 0x20 SWAP1 RETURN JUMPDEST SWAP2 SWAP1 POP CALLVALUE PUSH2 0x7AF JUMPI PUSH1 0x20 CALLDATASIZE PUSH1 0x3 NOT ADD SLT PUSH2 0x7AF JUMPI DUP2 CALLDATALOAD SWAP2 PUSH2 0xDAE PUSH2 0x1B28 JUMP JUMPDEST PUSH2 0xDB6 PUSH2 0x1B46 JUMP JUMPDEST DUP3 DUP5 MSTORE DUP1 PUSH1 0x20 MSTORE DUP2 DUP5 KECCAK256 SWAP1 PUSH1 0x6 DUP3 ADD SWAP1 DUP2 SLOAD SWAP1 PUSH1 0xFF DUP3 AND ISZERO PUSH2 0xEA6 JUMPI PUSH1 0xFF DUP3 PUSH1 0x8 SHR AND PUSH2 0xE98 JUMPI DUP4 DUP2 ADD SLOAD PUSH1 0x1 PUSH1 0x1 PUSH1 0xA0 SHL SUB AND SWAP5 CALLER DUP7 EQ ISZERO DUP1 PUSH2 0xE5A JUMPI JUMPDEST PUSH2 0xE4E JUMPI POP POP PUSH1 0xFF NOT AND SWAP1 SSTORE PUSH2 0xE16 SWAP2 SWAP1 PUSH2 0xE0F SWAP1 PUSH2 0x17A4 JUMP JUMPDEST SWAP1 ADDRESS PUSH2 0x1B75 JUMP JUMPDEST PUSH32 0xC40FDC946EFE80191C467F60727C4ABC08254A056035D467A4516A86005AB763 DUP3 DUP1 LOG2 PUSH1 0x1 PUSH0 DUP1 MLOAD PUSH1 0x20 PUSH2 0x1D58 DUP4 CODECOPY DUP2 MLOAD SWAP2 MSTORE SSTORE DUP1 RETURN JUMPDEST MLOAD PUSH3 0x82B429 PUSH1 0xE8 SHL DUP2 MSTORE REVERT JUMPDEST POP PUSH32 0x97667070C54EF182B0F5858B034BEAC1B6F3089AA2D3188BB1E8929F4FA9B929 DUP9 MSTORE DUP8 PUSH1 0x20 MSTORE DUP1 DUP9 KECCAK256 CALLER PUSH0 MSTORE PUSH1 0x20 MSTORE PUSH1 0xFF DUP2 PUSH0 KECCAK256 SLOAD AND ISZERO PUSH2 0xDF5 JUMP JUMPDEST DUP5 MLOAD PUSH4 0x3DE8EDD1 PUSH1 0xE1 SHL DUP2 MSTORE REVERT JUMPDEST DUP5 MLOAD PUSH4 0x1A319FF9 PUSH1 0xE3 SHL DUP2 MSTORE REVERT JUMPDEST SWAP1 POP CALLVALUE PUSH2 0x7AF JUMPI DUP2 PUSH1 0x3 NOT CALLDATASIZE ADD SLT PUSH2 0x7AF JUMPI DUP2 PUSH1 0x20 SWAP4 PUSH2 0xED2 PUSH2 0x1628 JUMP JUMPDEST SWAP3 CALLDATALOAD DUP2 MSTORE DUP1 DUP6 MSTORE KECCAK256 SWAP1 PUSH1 0x1 DUP1 PUSH1 0xA0 SHL SUB AND PUSH0 MSTORE DUP3 MSTORE PUSH1 0xFF DUP2 PUSH0 KECCAK256 SLOAD AND SWAP1 MLOAD SWAP1 ISZERO ISZERO DUP2 MSTORE RETURN JUMPDEST POP POP CALLVALUE PUSH2 0x1D4 JUMPI DUP2 PUSH1 0x3 NOT CALLDATASIZE ADD SLT PUSH2 0x1D4 JUMPI PUSH1 0x20 PUSH32 0x62E78CEA01BEE320CD4E420270B5EA74000D11B0C9F74754EBDBFC544B05A258 SWAP2 PUSH2 0xF35 PUSH2 0x190A JUMP JUMPDEST PUSH2 0xF3D PUSH2 0x1B28 JUMP JUMPDEST PUSH1 0x1 PUSH1 0xFF NOT DUP2 SLOAD AND OR PUSH1 0x1 SSTORE MLOAD CALLER DUP2 MSTORE LOG1 DUP1 RETURN JUMPDEST POP POP CALLVALUE PUSH2 0x1D4 JUMPI DUP2 PUSH1 0x3 NOT CALLDATASIZE ADD SLT PUSH2 0x1D4 JUMPI PUSH1 0x20 SWAP1 MLOAD PUSH32 0xA49807205CE4D355092EF5A8A18F56E8913CF4A201FBE287825B095693C21775 DUP2 MSTORE RETURN JUMPDEST POP POP CALLVALUE PUSH2 0x1D4 JUMPI DUP2 PUSH1 0x3 NOT CALLDATASIZE ADD SLT PUSH2 0x1D4 JUMPI PUSH1 0x20 SWAP1 PUSH1 0x3 SLOAD PUSH1 0x60 SHR SWAP1 MLOAD SWAP1 DUP2 MSTORE RETURN JUMPDEST POP POP CALLVALUE PUSH2 0x1D4 JUMPI DUP2 PUSH1 0x3 NOT CALLDATASIZE ADD SLT PUSH2 0x1D4 JUMPI PUSH1 0x20 SWAP1 PUSH1 0xFF PUSH1 0x1 SLOAD AND SWAP1 MLOAD SWAP1 ISZERO ISZERO DUP2 MSTORE RETURN JUMPDEST SWAP2 SWAP1 POP CALLVALUE PUSH2 0x59C JUMPI PUSH1 0x60 CALLDATASIZE PUSH1 0x3 NOT ADD SLT PUSH2 0x59C JUMPI PUSH2 0xFEE PUSH2 0x1612 JUMP JUMPDEST PUSH1 0x24 CALLDATALOAD SWAP2 PUSH1 0x44 CALLDATALOAD SWAP1 PUSH2 0xFFE PUSH2 0x1B28 JUMP JUMPDEST PUSH2 0x1006 PUSH2 0x1B46 JUMP JUMPDEST DUP2 ISZERO PUSH2 0x12D4 JUMPI DUP1 MLOAD PUSH4 0x31A9108F PUSH1 0xE1 SHL DUP1 DUP3 MSTORE DUP2 DUP8 ADD DUP7 SWAP1 MSTORE PUSH1 0x1 PUSH1 0x1 PUSH1 0xA0 SHL SUB SWAP5 DUP6 AND SWAP7 PUSH1 0x20 SWAP3 SWAP1 SWAP2 SWAP1 DUP4 DUP2 PUSH1 0x24 DUP2 DUP13 GAS STATICCALL SWAP1 DUP2 ISZERO PUSH2 0x12CA JUMPI PUSH0 SWAP2 PUSH2 0x1295 JUMPI JUMPDEST POP DUP7 CALLER SWAP2 AND SUB PUSH2 0x1286 JUMPI PUSH1 0x2 SLOAD SWAP6 PUSH2 0x105E DUP8 PUSH2 0x1782 JUMP JUMPDEST PUSH1 0x2 SSTORE DUP5 MLOAD PUSH2 0x106C DUP2 PUSH2 0x163E JUMP JUMPDEST DUP8 DUP2 MSTORE DUP8 DUP6 DUP3 ADD SWAP2 DUP12 DUP4 MSTORE DUP8 DUP2 ADD SWAP1 DUP12 DUP3 MSTORE PUSH1 0x60 DUP2 ADD SWAP4 PUSH1 0x1 DUP6 MSTORE PUSH1 0x80 DUP3 ADD CALLER DUP2 MSTORE PUSH1 0xA0 DUP4 ADD SWAP2 DUP13 DUP4 MSTORE PUSH1 0xC0 DUP5 ADD SWAP7 PUSH1 0x1 DUP9 MSTORE PUSH1 0xE0 DUP6 ADD SWAP6 PUSH0 DUP8 MSTORE PUSH2 0x100 DUP7 ADD SWAP8 PUSH0 DUP10 MSTORE PUSH0 MSTORE DUP12 DUP14 MSTORE DUP14 PUSH0 KECCAK256 SWAP6 MLOAD DUP7 SSTORE DUP10 PUSH1 0x1 DUP8 ADD SWAP4 MLOAD AND SWAP3 PUSH1 0x1 PUSH1 0x1 PUSH1 0x60 SHL SUB PUSH1 0xA0 SHL SWAP4 DUP5 DUP3 SLOAD AND OR SWAP1 SSTORE MLOAD PUSH1 0x2 DUP7 ADD SSTORE MLOAD PUSH1 0x3 DUP6 ADD SSTORE DUP8 DUP11 DUP6 ADD SWAP3 MLOAD AND SWAP1 DUP3 SLOAD AND OR SWAP1 SSTORE MLOAD PUSH1 0x5 DUP3 ADD SSTORE PUSH1 0x6 ADD SWAP3 MLOAD ISZERO ISZERO PUSH2 0x1115 SWAP1 DUP5 SWAP1 PUSH1 0xFF DUP1 NOT DUP4 SLOAD AND SWAP2 ISZERO ISZERO AND OR SWAP1 SSTORE JUMP JUMPDEST MLOAD DUP3 SLOAD PUSH2 0xFF00 NOT AND SWAP1 ISZERO ISZERO PUSH1 0x8 SHL PUSH2 0xFF00 AND OR DUP3 SSTORE MLOAD PUSH1 0x2 DUP2 LT ISZERO PUSH2 0x1273 JUMPI PUSH3 0xFF0000 DUP3 SLOAD SWAP2 PUSH1 0x10 SHL AND SWAP1 PUSH3 0xFF0000 NOT AND OR SWAP1 SSTORE DUP9 EXTCODESIZE ISZERO PUSH2 0x59C JUMPI DUP5 MLOAD PUSH4 0x21421707 PUSH1 0xE1 SHL DUP2 MSTORE CALLER DUP5 DUP3 ADD SWAP1 DUP2 MSTORE ADDRESS PUSH1 0x20 DUP3 ADD MSTORE PUSH1 0x40 DUP2 ADD DUP11 SWAP1 MSTORE PUSH0 SWAP1 DUP3 SWAP1 DUP2 SWAP1 SUB PUSH1 0x60 ADD DUP2 DUP4 DUP15 GAS CALL DUP1 ISZERO PUSH2 0x1269 JUMPI PUSH2 0x1256 JUMPI JUMPDEST POP DUP5 MLOAD SWAP2 DUP3 MSTORE DUP8 DUP4 DUP4 ADD MSTORE DUP4 DUP3 PUSH1 0x24 DUP2 DUP13 GAS STATICCALL SWAP2 DUP3 ISZERO PUSH2 0x124C JUMPI DUP11 SWAP3 PUSH2 0x1211 JUMPI JUMPDEST POP ADDRESS SWAP2 AND SUB PUSH2 0x1203 JUMPI POP PUSH1 0x1 SWAP1 DUP3 MLOAD SWAP6 DUP7 MSTORE DUP6 ADD MSTORE DUP4 ADD MSTORE PUSH0 PUSH1 0x60 DUP4 ADD MSTORE PUSH32 0x4339A90322FAA2FB5B15A3A9E23156A23C97893E4618A34BC7ED68B582BD4A4 PUSH1 0x80 CALLER SWAP4 LOG4 PUSH1 0x1 PUSH0 DUP1 MLOAD PUSH1 0x20 PUSH2 0x1D58 DUP4 CODECOPY DUP2 MLOAD SWAP2 MSTORE SSTORE DUP1 RETURN JUMPDEST DUP3 MLOAD PUSH4 0x12171D83 PUSH1 0xE3 SHL DUP2 MSTORE REVERT JUMPDEST SWAP1 SWAP2 POP DUP4 DUP2 DUP2 RETURNDATASIZE DUP4 GT PUSH2 0x1245 JUMPI JUMPDEST PUSH2 0x1229 DUP2 DUP4 PUSH2 0x1683 JUMP JUMPDEST DUP2 ADD SUB SLT PUSH2 0x1241 JUMPI PUSH2 0x123A SWAP1 PUSH2 0x176E JUMP JUMPDEST SWAP1 PUSH0 PUSH2 0x11AB JUMP JUMPDEST DUP10 DUP1 REVERT JUMPDEST POP RETURNDATASIZE PUSH2 0x121F JUMP JUMPDEST DUP6 MLOAD RETURNDATASIZE DUP13 DUP3 RETURNDATACOPY RETURNDATASIZE SWAP1 REVERT JUMPDEST PUSH2 0x1261 SWAP2 SWAP11 POP PUSH2 0x166F JUMP JUMPDEST PUSH0 SWAP9 PUSH0 PUSH2 0x118A JUMP JUMPDEST DUP7 MLOAD RETURNDATASIZE PUSH0 DUP3 RETURNDATACOPY RETURNDATASIZE SWAP1 REVERT JUMPDEST PUSH1 0x21 DUP6 PUSH4 0x4E487B71 PUSH1 0xE0 SHL PUSH0 MSTORE MSTORE PUSH1 0x24 PUSH0 REVERT JUMPDEST POP DUP3 MLOAD PUSH4 0xCA5AE8A3 PUSH1 0xE0 SHL DUP2 MSTORE REVERT JUMPDEST SWAP1 POP DUP4 DUP2 DUP2 RETURNDATASIZE DUP4 GT PUSH2 0x12C3 JUMPI JUMPDEST PUSH2 0x12AC DUP2 DUP4 PUSH2 0x1683 JUMP JUMPDEST DUP2 ADD SUB SLT PUSH2 0x59C JUMPI PUSH2 0x12BD SWAP1 PUSH2 0x176E JUMP JUMPDEST PUSH0 PUSH2 0x1047 JUMP JUMPDEST POP RETURNDATASIZE PUSH2 0x12A2 JUMP JUMPDEST DUP6 MLOAD RETURNDATASIZE PUSH0 DUP3 RETURNDATACOPY RETURNDATASIZE SWAP1 REVERT JUMPDEST MLOAD PUSH3 0xBFC921 PUSH1 0xE0 SHL DUP2 MSTORE DUP5 SWAP1 REVERT JUMPDEST SWAP1 POP CALLVALUE PUSH2 0x59C JUMPI PUSH1 0x20 CALLDATASIZE PUSH1 0x3 NOT ADD SLT PUSH2 0x59C JUMPI DUP1 CALLDATALOAD SWAP2 PUSH2 0x1300 PUSH2 0x1965 JUMP JUMPDEST DUP3 PUSH0 MSTORE DUP2 PUSH1 0x20 MSTORE PUSH1 0x6 DUP2 PUSH0 KECCAK256 ADD SWAP2 DUP3 SLOAD SWAP2 PUSH1 0xFF DUP4 AND ISZERO PUSH2 0xD67 JUMPI POP POP PUSH2 0xFF00 NOT AND PUSH2 0x100 OR SWAP1 SSTORE PUSH32 0x28E73ECEBE49DE8B5602B4482BFF10DCE9C71ED1FE459EA78CE4ADD73079D0FE PUSH0 DUP1 LOG2 STOP JUMPDEST DUP3 CALLVALUE PUSH2 0x59C JUMPI PUSH0 CALLDATASIZE PUSH1 0x3 NOT ADD SLT PUSH2 0x59C JUMPI PUSH2 0x1366 PUSH2 0x190A JUMP JUMPDEST PUSH1 0x1 SLOAD SWAP2 PUSH1 0xFF DUP4 AND ISZERO PUSH2 0x13A6 JUMPI PUSH32 0x5DB9EE0A495BF2E6FF9C91A7834C1BA4FDD244A5E8AA4E537BD38AEAE4B073AA PUSH1 0x20 DUP4 DUP6 PUSH1 0xFF NOT AND PUSH1 0x1 SSTORE MLOAD CALLER DUP2 MSTORE LOG1 STOP JUMPDEST SWAP1 MLOAD PUSH4 0x8DFC202B PUSH1 0xE0 SHL DUP2 MSTORE REVERT JUMPDEST DUP3 CALLVALUE PUSH2 0x59C JUMPI DUP1 PUSH1 0x3 NOT CALLDATASIZE ADD SLT PUSH2 0x59C JUMPI PUSH2 0x13CD PUSH2 0x1628 JUMP JUMPDEST SWAP1 CALLER PUSH1 0x1 PUSH1 0x1 PUSH1 0xA0 SHL SUB DUP4 AND SUB PUSH2 0x13E9 JUMPI POP PUSH2 0x1F SWAP2 CALLDATALOAD PUSH2 0x1AB6 JUMP JUMPDEST MLOAD PUSH4 0x334BD919 PUSH1 0xE1 SHL DUP2 MSTORE SWAP1 POP REVERT JUMPDEST DUP3 CALLVALUE PUSH2 0x59C JUMPI PUSH1 0x20 CALLDATASIZE PUSH1 0x3 NOT ADD SLT PUSH2 0x59C JUMPI DUP2 CALLDATALOAD PUSH1 0x1 PUSH1 0x1 PUSH1 0x60 SHL SUB SWAP1 DUP2 DUP2 AND DUP1 SWAP2 SUB PUSH2 0x59C JUMPI PUSH2 0x1427 PUSH2 0x1891 JUMP JUMPDEST PUSH2 0x2710 DUP2 GT PUSH2 0x1475 JUMPI PUSH32 0xB4213675470C3B51739D200ECDFE26BDF7FEDE1669B9B06220618E03540F0431 SWAP4 POP PUSH1 0x3 SLOAD SWAP2 DUP2 PUSH1 0x1 PUSH1 0x1 PUSH1 0x60 SHL SUB NOT DUP5 AND OR PUSH1 0x3 SSTORE DUP4 MLOAD SWAP3 AND DUP3 MSTORE PUSH1 0x20 DUP3 ADD MSTORE LOG1 STOP JUMPDEST POP POP MLOAD PUSH4 0x4A079FE9 PUSH1 0xE1 SHL DUP2 MSTORE REVERT JUMPDEST DUP3 CALLVALUE PUSH2 0x59C JUMPI DUP1 PUSH1 0x3 NOT CALLDATASIZE ADD SLT PUSH2 0x59C JUMPI PUSH2 0x1F SWAP2 CALLDATALOAD PUSH2 0x14B8 PUSH1 0x1 PUSH2 0x14A7 PUSH2 0x1628 JUMP JUMPDEST SWAP4 DUP4 PUSH0 MSTORE PUSH0 PUSH1 0x20 MSTORE PUSH0 KECCAK256 ADD SLOAD PUSH2 0x19C0 JUMP JUMPDEST PUSH2 0x1A3A JUMP JUMPDEST DUP3 CALLVALUE PUSH2 0x59C JUMPI PUSH1 0x20 CALLDATASIZE PUSH1 0x3 NOT ADD SLT PUSH2 0x59C JUMPI PUSH1 0x20 SWAP2 CALLDATALOAD PUSH0 MSTORE PUSH0 DUP3 MSTORE PUSH1 0x1 DUP2 PUSH0 KECCAK256 ADD SLOAD SWAP1 MLOAD SWAP1 DUP2 MSTORE RETURN JUMPDEST DUP3 CALLVALUE PUSH2 0x59C JUMPI PUSH1 0x80 CALLDATASIZE PUSH1 0x3 NOT ADD SLT PUSH2 0x59C JUMPI PUSH2 0x1500 PUSH2 0x1612 JUMP JUMPDEST POP PUSH2 0x1509 PUSH2 0x1628 JUMP JUMPDEST POP PUSH1 0x64 CALLDATALOAD PUSH8 0xFFFFFFFFFFFFFFFF DUP2 GT PUSH2 0x59C JUMPI PUSH1 0x20 SWAP3 PUSH2 0x152B SWAP2 CALLDATASIZE SWAP2 ADD PUSH2 0x16C1 JUMP JUMPDEST POP MLOAD PUSH4 0xA85BD01 PUSH1 0xE1 SHL DUP2 MSTORE RETURN JUMPDEST SWAP1 POP CALLVALUE PUSH2 0x59C JUMPI PUSH1 0x20 CALLDATASIZE PUSH1 0x3 NOT ADD SLT PUSH2 0x59C JUMPI PUSH32 0x728B95A98AA0BD98A161028735AA6E7525E94C2B001AD446BB0477846FBBFB9D SWAP2 PUSH1 0x20 SWAP2 CALLDATALOAD SWAP1 PUSH2 0x157B PUSH2 0x1891 JUMP JUMPDEST PUSH2 0x1585 DUP3 CALLER PUSH2 0x19E1 JUMP JUMPDEST MLOAD SWAP1 DUP2 MSTORE LOG1 STOP JUMPDEST SWAP1 CALLVALUE PUSH2 0x59C JUMPI PUSH1 0x20 CALLDATASIZE PUSH1 0x3 NOT ADD SLT PUSH2 0x59C JUMPI CALLDATALOAD SWAP1 PUSH4 0xFFFFFFFF PUSH1 0xE0 SHL DUP3 AND DUP1 SWAP3 SUB PUSH2 0x59C JUMPI PUSH1 0x20 SWAP2 PUSH4 0xF578D047 PUSH1 0xE0 SHL DUP2 EQ SWAP1 DUP2 ISZERO PUSH2 0x15CD JUMPI JUMPDEST POP ISZERO ISZERO DUP2 MSTORE RETURN JUMPDEST PUSH4 0x2711897 PUSH1 0xE5 SHL DUP2 EQ SWAP2 POP DUP2 ISZERO PUSH2 0x15E7 JUMPI JUMPDEST POP DUP4 PUSH2 0x15C6 JUMP JUMPDEST PUSH4 0x7965DB0B PUSH1 0xE0 SHL DUP2 EQ SWAP2 POP DUP2 ISZERO PUSH2 0x1601 JUMPI JUMPDEST POP DUP4 PUSH2 0x15E0 JUMP JUMPDEST PUSH4 0x1FFC9A7 PUSH1 0xE0 SHL EQ SWAP1 POP DUP4 PUSH2 0x15FA JUMP JUMPDEST PUSH1 0x4 CALLDATALOAD SWAP1 PUSH1 0x1 PUSH1 0x1 PUSH1 0xA0 SHL SUB DUP3 AND DUP3 SUB PUSH2 0x59C JUMPI JUMP JUMPDEST PUSH1 0x24 CALLDATALOAD SWAP1 PUSH1 0x1 PUSH1 0x1 PUSH1 0xA0 SHL SUB DUP3 AND DUP3 SUB PUSH2 0x59C JUMPI JUMP JUMPDEST PUSH2 0x120 DUP2 ADD SWAP1 DUP2 LT PUSH8 0xFFFFFFFFFFFFFFFF DUP3 GT OR PUSH2 0x165B JUMPI PUSH1 0x40 MSTORE JUMP JUMPDEST PUSH4 0x4E487B71 PUSH1 0xE0 SHL PUSH0 MSTORE PUSH1 0x41 PUSH1 0x4 MSTORE PUSH1 0x24 PUSH0 REVERT JUMPDEST PUSH8 0xFFFFFFFFFFFFFFFF DUP2 GT PUSH2 0x165B JUMPI PUSH1 0x40 MSTORE JUMP JUMPDEST SWAP1 PUSH1 0x1F DUP1 NOT SWAP2 ADD AND DUP2 ADD SWAP1 DUP2 LT PUSH8 0xFFFFFFFFFFFFFFFF DUP3 GT OR PUSH2 0x165B JUMPI PUSH1 0x40 MSTORE JUMP JUMPDEST PUSH8 0xFFFFFFFFFFFFFFFF DUP2 GT PUSH2 0x165B JUMPI PUSH1 0x1F ADD PUSH1 0x1F NOT AND PUSH1 0x20 ADD SWAP1 JUMP JUMPDEST DUP2 PUSH1 0x1F DUP3 ADD SLT ISZERO PUSH2 0x59C JUMPI DUP1 CALLDATALOAD SWAP1 PUSH2 0x16D8 DUP3 PUSH2 0x16A5 JUMP JUMPDEST SWAP3 PUSH2 0x16E6 PUSH1 0x40 MLOAD SWAP5 DUP6 PUSH2 0x1683 JUMP JUMPDEST DUP3 DUP5 MSTORE PUSH1 0x20 DUP4 DUP4 ADD ADD GT PUSH2 0x59C JUMPI DUP2 PUSH0 SWAP3 PUSH1 0x20 DUP1 SWAP4 ADD DUP4 DUP7 ADD CALLDATACOPY DUP4 ADD ADD MSTORE SWAP1 JUMP JUMPDEST DUP2 PUSH1 0x1F DUP3 ADD SLT ISZERO PUSH2 0x59C JUMPI DUP1 CALLDATALOAD SWAP2 PUSH1 0x20 SWAP2 PUSH8 0xFFFFFFFFFFFFFFFF DUP5 GT PUSH2 0x165B JUMPI DUP4 PUSH1 0x5 SHL SWAP1 PUSH1 0x40 MLOAD SWAP5 PUSH2 0x173C DUP6 DUP5 ADD DUP8 PUSH2 0x1683 JUMP JUMPDEST DUP6 MSTORE DUP4 DUP1 DUP7 ADD SWAP3 DUP3 ADD ADD SWAP3 DUP4 GT PUSH2 0x59C JUMPI DUP4 ADD SWAP1 JUMPDEST DUP3 DUP3 LT PUSH2 0x175F JUMPI POP POP POP POP SWAP1 JUMP JUMPDEST DUP2 CALLDATALOAD DUP2 MSTORE SWAP1 DUP4 ADD SWAP1 DUP4 ADD PUSH2 0x1751 JUMP JUMPDEST MLOAD SWAP1 PUSH1 0x1 PUSH1 0x1 PUSH1 0xA0 SHL SUB DUP3 AND DUP3 SUB PUSH2 0x59C JUMPI JUMP JUMPDEST PUSH0 NOT DUP2 EQ PUSH2 0x1790 JUMPI PUSH1 0x1 ADD SWAP1 JUMP JUMPDEST PUSH4 0x4E487B71 PUSH1 0xE0 SHL PUSH0 MSTORE PUSH1 0x11 PUSH1 0x4 MSTORE PUSH1 0x24 PUSH0 REVERT JUMPDEST SWAP1 PUSH1 0x40 MLOAD PUSH2 0x17B1 DUP2 PUSH2 0x163E JUMP JUMPDEST PUSH1 0xFF PUSH1 0x6 DUP3 SWAP5 DUP1 SLOAD DUP5 MSTORE PUSH1 0x1 DUP1 PUSH1 0xA0 SHL SUB DUP1 PUSH1 0x1 DUP4 ADD SLOAD AND PUSH1 0x20 DUP7 ADD MSTORE PUSH1 0x2 DUP3 ADD SLOAD PUSH1 0x40 DUP7 ADD MSTORE PUSH1 0x3 DUP3 ADD SLOAD PUSH1 0x60 DUP7 ADD MSTORE PUSH1 0x4 DUP3 ADD SLOAD AND PUSH1 0x80 DUP6 ADD MSTORE PUSH1 0x5 DUP2 ADD SLOAD PUSH1 0xA0 DUP6 ADD MSTORE ADD SLOAD DUP2 DUP2 AND ISZERO ISZERO PUSH1 0xC0 DUP5 ADD MSTORE DUP2 DUP2 PUSH1 0x8 SHR AND ISZERO ISZERO PUSH1 0xE0 DUP5 ADD MSTORE PUSH1 0x10 SHR AND SWAP1 PUSH1 0x2 DUP3 LT ISZERO PUSH2 0x1825 JUMPI PUSH2 0x100 ADD MSTORE JUMP JUMPDEST PUSH4 0x4E487B71 PUSH1 0xE0 SHL PUSH0 MSTORE PUSH1 0x21 PUSH1 0x4 MSTORE PUSH1 0x24 PUSH0 REVERT JUMPDEST SWAP3 SWAP1 PUSH1 0xC0 SWAP5 SWAP3 PUSH1 0x1 DUP1 PUSH1 0xA0 SHL SUB DUP1 SWAP3 AND DUP6 MSTORE AND PUSH1 0x20 DUP5 ADD MSTORE PUSH1 0x40 DUP4 ADD MSTORE PUSH1 0x60 DUP3 ADD MSTORE PUSH1 0xA0 PUSH1 0x80 DUP3 ADD MSTORE PUSH0 PUSH1 0xA0 DUP3 ADD MSTORE ADD SWAP1 JUMP JUMPDEST SWAP2 SWAP1 DUP3 SUB SWAP2 DUP3 GT PUSH2 0x1790 JUMPI JUMP JUMPDEST SWAP1 DUP2 PUSH1 0x20 SWAP2 SUB SLT PUSH2 0x59C JUMPI MLOAD DUP1 ISZERO ISZERO DUP2 SUB PUSH2 0x59C JUMPI SWAP1 JUMP JUMPDEST CALLER PUSH0 SWAP1 DUP2 MSTORE PUSH32 0x7D7FFB7A348E1C6A02869081A26547B49160DD3DF72D1D75A570EB9B698292EC PUSH1 0x20 MSTORE PUSH1 0x40 SWAP1 KECCAK256 SLOAD PUSH32 0xA49807205CE4D355092EF5A8A18F56E8913CF4A201FBE287825B095693C21775 SWAP1 PUSH1 0xFF AND ISZERO PUSH2 0x18EC JUMPI POP JUMP JUMPDEST PUSH1 0x44 SWAP1 PUSH1 0x40 MLOAD SWAP1 PUSH4 0xE2517D3F PUSH1 0xE0 SHL DUP3 MSTORE CALLER PUSH1 0x4 DUP4 ADD MSTORE PUSH1 0x24 DUP3 ADD MSTORE REVERT JUMPDEST CALLER PUSH0 SWAP1 DUP2 MSTORE PUSH32 0xF7C9542C591017A21C74B6F3FAB6263C7952FC0AAF9DB4C22A2A04DDC7F8674F PUSH1 0x20 MSTORE PUSH1 0x40 SWAP1 KECCAK256 SLOAD PUSH32 0x65D7A28E3265B37A6474929F336521B332C1681B933F6CB9F3376673440D862A SWAP1 PUSH1 0xFF AND ISZERO PUSH2 0x18EC JUMPI POP JUMP JUMPDEST CALLER PUSH0 SWAP1 DUP2 MSTORE PUSH32 0xEE57CD81E84075558E8FCC182A1F4393F91FC97F963A136E66B7F949A62F319F PUSH1 0x20 MSTORE PUSH1 0x40 SWAP1 KECCAK256 SLOAD PUSH32 0x97667070C54EF182B0F5858B034BEAC1B6F3089AA2D3188BB1E8929F4FA9B929 SWAP1 PUSH1 0xFF AND ISZERO PUSH2 0x18EC JUMPI POP JUMP JUMPDEST DUP1 PUSH0 MSTORE PUSH0 PUSH1 0x20 MSTORE PUSH1 0x40 PUSH0 KECCAK256 CALLER PUSH0 MSTORE PUSH1 0x20 MSTORE PUSH1 0xFF PUSH1 0x40 PUSH0 KECCAK256 SLOAD AND ISZERO PUSH2 0x18EC JUMPI POP JUMP JUMPDEST PUSH0 SWAP2 DUP3 SWAP2 DUP3 SWAP2 DUP3 SWAP2 PUSH1 0x1 PUSH1 0x1 PUSH1 0xA0 SHL SUB AND GAS CALL RETURNDATASIZE ISZERO PUSH2 0x1A35 JUMPI RETURNDATASIZE PUSH2 0x1A04 DUP2 PUSH2 0x16A5 JUMP JUMPDEST SWAP1 PUSH2 0x1A12 PUSH1 0x40 MLOAD SWAP3 DUP4 PUSH2 0x1683 JUMP JUMPDEST DUP2 MSTORE PUSH0 PUSH1 0x20 RETURNDATASIZE SWAP3 ADD RETURNDATACOPY JUMPDEST ISZERO PUSH2 0x1A23 JUMPI JUMP JUMPDEST PUSH1 0x40 MLOAD PUSH4 0x12171D83 PUSH1 0xE3 SHL DUP2 MSTORE PUSH1 0x4 SWAP1 REVERT JUMPDEST PUSH2 0x1A1C JUMP JUMPDEST SWAP1 DUP2 PUSH0 MSTORE PUSH0 PUSH1 0x20 MSTORE PUSH1 0x40 PUSH0 KECCAK256 SWAP1 PUSH1 0x1 DUP1 PUSH1 0xA0 SHL SUB AND SWAP1 DUP2 PUSH0 MSTORE PUSH1 0x20 MSTORE PUSH1 0xFF PUSH1 0x40 PUSH0 KECCAK256 SLOAD AND ISZERO PUSH0 EQ PUSH2 0x1AB0 JUMPI DUP2 PUSH0 MSTORE PUSH0 PUSH1 0x20 MSTORE PUSH1 0x40 PUSH0 KECCAK256 DUP2 PUSH0 MSTORE PUSH1 0x20 MSTORE PUSH1 0x40 PUSH0 KECCAK256 PUSH1 0x1 PUSH1 0xFF NOT DUP3 SLOAD AND OR SWAP1 SSTORE CALLER SWAP2 PUSH32 0x2F8788117E7EFF1D82E926EC794901D17C78024A50270940304540A733656F0D PUSH0 DUP1 LOG4 PUSH1 0x1 SWAP1 JUMP JUMPDEST POP POP PUSH0 SWAP1 JUMP JUMPDEST SWAP1 DUP2 PUSH0 MSTORE PUSH0 PUSH1 0x20 MSTORE PUSH1 0x40 PUSH0 KECCAK256 SWAP1 PUSH1 0x1 DUP1 PUSH1 0xA0 SHL SUB AND SWAP1 DUP2 PUSH0 MSTORE PUSH1 0x20 MSTORE PUSH1 0xFF PUSH1 0x40 PUSH0 KECCAK256 SLOAD AND PUSH0 EQ PUSH2 0x1AB0 JUMPI DUP2 PUSH0 MSTORE PUSH0 PUSH1 0x20 MSTORE PUSH1 0x40 PUSH0 KECCAK256 DUP2 PUSH0 MSTORE PUSH1 0x20 MSTORE PUSH1 0x40 PUSH0 KECCAK256 PUSH1 0xFF NOT DUP2 SLOAD AND SWAP1 SSTORE CALLER SWAP2 PUSH32 0xF6391F5C32D9C69D2A47EA670B442974B53935D1EDC7FD64EB21E047A839171B PUSH0 DUP1 LOG4 PUSH1 0x1 SWAP1 JUMP JUMPDEST PUSH1 0xFF PUSH1 0x1 SLOAD AND PUSH2 0x1B34 JUMPI JUMP JUMPDEST PUSH1 0x40 MLOAD PUSH4 0xD93C0665 PUSH1 0xE0 SHL DUP2 MSTORE PUSH1 0x4 SWAP1 REVERT JUMPDEST PUSH0 DUP1 MLOAD PUSH1 0x20 PUSH2 0x1D58 DUP4 CODECOPY DUP2 MLOAD SWAP2 MSTORE PUSH1 0x2 DUP2 SLOAD EQ PUSH2 0x1B63 JUMPI PUSH1 0x2 SWAP1 SSTORE JUMP JUMPDEST PUSH1 0x40 MLOAD PUSH4 0x3EE5AEB5 PUSH1 0xE0 SHL DUP2 MSTORE PUSH1 0x4 SWAP1 REVERT JUMPDEST SWAP1 SWAP2 PUSH2 0x100 DUP2 ADD DUP1 MLOAD PUSH1 0x2 DUP2 LT ISZERO PUSH2 0x1825 JUMPI PUSH2 0x1C06 JUMPI POP PUSH1 0x20 DUP2 ADD MLOAD PUSH1 0x40 SWAP1 SWAP2 ADD MLOAD SWAP1 PUSH1 0x1 PUSH1 0x1 PUSH1 0xA0 SHL SUB AND DUP1 EXTCODESIZE ISZERO PUSH2 0x59C JUMPI PUSH1 0x40 MLOAD PUSH4 0x21421707 PUSH1 0xE1 SHL DUP2 MSTORE PUSH1 0x1 PUSH1 0x1 PUSH1 0xA0 SHL SUB SWAP4 DUP5 AND PUSH1 0x4 DUP3 ADD MSTORE SWAP4 SWAP1 SWAP3 AND PUSH1 0x24 DUP5 ADD MSTORE PUSH1 0x44 DUP4 ADD MSTORE PUSH0 SWAP1 DUP3 SWAP1 DUP2 DUP4 DUP2 PUSH1 0x64 DUP2 ADD JUMPDEST SUB SWAP3 GAS CALL DUP1 ISZERO PUSH2 0x1BFB JUMPI PUSH2 0x1BF0 JUMPI POP JUMP JUMPDEST PUSH2 0x1BF9 SWAP1 PUSH2 0x166F JUMP JUMPDEST JUMP JUMPDEST PUSH1 0x40 MLOAD RETURNDATASIZE PUSH0 DUP3 RETURNDATACOPY RETURNDATASIZE SWAP1 REVERT JUMPDEST MLOAD PUSH1 0x2 DUP2 LT ISZERO PUSH2 0x1825 JUMPI PUSH1 0x1 SUB PUSH2 0x1C59 JUMPI PUSH1 0x1 DUP1 PUSH1 0xA0 SHL SUB PUSH1 0x20 DUP3 ADD MLOAD AND PUSH1 0x60 PUSH1 0x40 DUP4 ADD MLOAD SWAP3 ADD MLOAD SWAP4 DUP2 EXTCODESIZE ISZERO PUSH2 0x59C JUMPI PUSH0 DUP1 SWAP5 PUSH2 0x1BDF PUSH1 0x40 MLOAD SWAP8 DUP9 SWAP7 DUP8 SWAP6 DUP7 SWAP5 PUSH4 0x79212195 PUSH1 0xE1 SHL DUP7 MSTORE PUSH1 0x4 DUP7 ADD PUSH2 0x1839 JUMP JUMPDEST PUSH1 0x40 MLOAD PUSH4 0x9A9D6F4F PUSH1 0xE0 SHL DUP2 MSTORE PUSH1 0x4 SWAP1 REVERT JUMPDEST PUSH1 0x40 DUP1 MLOAD PUSH4 0x1FFC9A7 PUSH1 0xE0 SHL DUP2 MSTORE PUSH4 0x152A902D PUSH1 0xE1 SHL PUSH1 0x4 DUP3 ADD DUP2 SWAP1 MSTORE SWAP5 SWAP6 SWAP5 SWAP2 SWAP4 SWAP3 PUSH1 0x1 PUSH1 0x1 PUSH1 0xA0 SHL SUB AND SWAP1 PUSH1 0x20 DUP2 PUSH1 0x24 DUP2 DUP6 GAS STATICCALL SWAP1 DUP2 ISZERO PUSH2 0x12CA JUMPI PUSH0 SWAP2 PUSH2 0x1D38 JUMPI JUMPDEST POP PUSH2 0x1CC0 JUMPI POP POP POP POP SWAP1 POP PUSH0 SWAP1 PUSH0 SWAP1 JUMP JUMPDEST DUP4 SWAP3 SWAP2 PUSH1 0x44 SWAP2 DUP5 MLOAD SWAP8 DUP9 SWAP5 DUP6 SWAP4 DUP5 MSTORE PUSH1 0x4 DUP5 ADD MSTORE PUSH1 0x24 DUP4 ADD MSTORE GAS STATICCALL SWAP3 DUP4 ISZERO PUSH2 0x1D2E JUMPI PUSH0 SWAP2 PUSH0 SWAP5 PUSH2 0x1CF1 JUMPI JUMPDEST POP POP SWAP2 SWAP1 JUMP JUMPDEST DUP2 SWAP5 POP DUP1 SWAP3 POP RETURNDATASIZE DUP4 GT PUSH2 0x1D27 JUMPI JUMPDEST PUSH2 0x1D09 DUP2 DUP4 PUSH2 0x1683 JUMP JUMPDEST DUP2 ADD SUB SLT PUSH2 0x59C JUMPI PUSH1 0x20 PUSH2 0x1D1C DUP4 PUSH2 0x176E JUMP JUMPDEST SWAP3 ADD MLOAD SWAP2 PUSH0 DUP1 PUSH2 0x1CEB JUMP JUMPDEST POP RETURNDATASIZE PUSH2 0x1CFF JUMP JUMPDEST POP MLOAD RETURNDATASIZE PUSH0 DUP3 RETURNDATACOPY RETURNDATASIZE SWAP1 REVERT JUMPDEST PUSH2 0x1D51 SWAP2 POP PUSH1 0x20 RETURNDATASIZE PUSH1 0x20 GT PUSH2 0x79E JUMPI PUSH2 0x78F DUP2 DUP4 PUSH2 0x1683 JUMP JUMPDEST PUSH0 PUSH2 0x1CAF JUMP INVALID SWAP12 PUSH24 0x9B17422D0DF92223018B32B4D1FA46E071723D6817E2486D STOP EXTCODESIZE 0xEC 0xC5 PUSH0 STOP LOG2 PUSH5 0x6970667358 0x22 SLT KECCAK256 GASLIMIT 0xDE 0xAE PUSH0 SWAP12 SWAP2 0xF6 CHAINID 0xC5 PUSH1 0x42 0xEC LOG3 DUP16 BYTE SHR NUMBER 0xAE JUMP PREVRANDAO 0xA6 0xB6 CALLDATASIZE CALLCODE DUP10 0x24 PUSH12 0x1713EA7CE764736F6C634300 ADDMOD XOR STOP CALLER 0x2F DUP8 DUP9 GT PUSH31 0x7EFF1D82E926EC794901D17C78024A50270940304540A733656F0DAD3228B6 PUSH23 0xF7D3CD4284A5443F17F1962B36E491B30A40B2405849E5 SWAP8 0xBA PUSH0 0xB5 "
        },
        "methodIdentifiers": {
          "ADMIN_ROLE()": "75b238fc",
          "DEFAULT_ADMIN_ROLE()": "a217fddf",
          "MAX_MARKETPLACE_FEE_BPS()": "b74fb316",
          "OPERATOR_ROLE()": "f5b541a6",
          "PAUSER_ROLE()": "e63ab1e9",
          "buy(uint256)": "d96a094a",
          "delist(uint256)": "964bc33f",
          "emergencyWithdrawERC1155(address,uint256,uint256,address)": "cd107440",
          "emergencyWithdrawERC20(address,uint256)": "df29b982",
          "emergencyWithdrawERC721(address,uint256,address)": "a8f46f53",
          "emergencyWithdrawNative(uint256)": "0f6835b8",
          "getRoleAdmin(bytes32)": "248a9ca3",
          "grantRole(bytes32,address)": "2f2ff15d",
          "hasRole(bytes32,address)": "91d14854",
          "listERC1155(address,uint256,uint256,uint256)": "e8d9b52f",
          "listERC721(address,uint256,uint256)": "5280af1d",
          "listings(uint256)": "de74e57b",
          "lockListing(uint256)": "4a3f0bf9",
          "marketplaceFeeBps()": "d3929c8a",
          "nextListingId()": "aaccf1ec",
          "onERC1155BatchReceived(address,address,uint256[],uint256[],bytes)": "bc197c81",
          "onERC1155Received(address,address,uint256,uint256,bytes)": "f23a6e61",
          "onERC721Received(address,address,uint256,bytes)": "150b7a02",
          "pause()": "8456cb59",
          "paused()": "5c975abb",
          "renounceRole(bytes32,address)": "36568abe",
          "revokeRole(bytes32,address)": "d547741f",
          "setMarketplaceFee(uint96)": "319e991e",
          "setTreasury(address)": "f0f44260",
          "supportsInterface(bytes4)": "01ffc9a7",
          "treasury()": "61d027b3",
          "unlockListing(uint256)": "a52c428d",
          "unpause()": "3f4ba83a"
        }
      }
    }
  }
}